:020000040800F2
:10000000008001200D340008613100086B310008C8
:10001000753100087F3100088931000800000000B8
:100020000000000000000000000000009331000804
:100030009F31000800000000AB310008B731000814
:100040005D3400085D3400085D3400085D3400084C
:100050005D3400085D3400085D3400085D3400083C
:100060005D3400085D3400085D3400085D3400082C
:100070005D3400085D3400085D3400085D3400081C
:100080005D3400085D3400085D34000800000000A5
:10009000000000000000000000000000C331000864
:1000A0005D3400085D3400085D3400085D340008EC
:1000B000D53100085D3400085D3400085D34000867
:1000C0005D3400085D3400085D3400085D340008CC
:1000D0005D340008E9310008FD310008000000002F
:1000E00011320008213200085D34000800000000D1
:1000F0000000000000000000000000005D34000867
:10010000000000005D3400085D3400085D34000824
:1001100000000000000000000000000000000000DF
:100120005D3400085D3400085D3400085D3400086B
:100130005D34000800000000000000000000000026
:100140000000000000000000000000003532000840
:10015000493200085D3400085D3400085D34000851
:100160005D3400085D34000800000000000000005D
:10017000000000000000000000000000000000007F
:10018000000000005D3400080000000000000000D6
:040190005D340008D2
:1001A00010B5054C237833B9044B13B10448AFF3B1
:1001B00000800123237010BD5003002000000000C8
:1001C00070FA010808B5034B1BB103490348AFF3AC
:1001D000008008BD000000005403002070FA0108F0
:1001E00010F8012B11F8013B012A28BF9A42F7D0E1
:1001F000D01A7047034613F8012B002AFBD1181AB6
:1002000001387047000000000000000000000000FE
:1002100001F0FF01102A2BDB10F0070F08D010F8B7
:10022000013B013A8B422DD010F0070F42B3F6D1BB
:10023000F0B441EA012141EA014122F007047FF0D4
:1002400000070023F0E80256083C85EA010586EA2B
:10025000010685FA47F5A3FA87F586FA47F6A5FA67
:1002600087F68EB9EED1F0BC01F0FF0102F0070273
:1002700032B110F8013B013A83EA010313B1F8D11E
:100280000020704701387047002D06BF35460338FF
:10029000073815F0010F07D1013015F4807F02BF38
:1002A000013015F4C03F0130F0BC0138704700BF89
:1002B00081F0004102E000BF83F0004330B54FEA17
:1002C00041044FEA430594EA050F08BF90EA020F84
:1002D0001FBF54EA000C55EA020C7FEA645C7FEA17
:1002E000655C00F0E2804FEA5454D4EB5555B8BF3A
:1002F0006D420CDD2C4480EA020281EA030382EAAB
:10030000000083EA010180EA020281EA0303362D3C
:1003100088BF30BD11F0004F4FEA01314FF4801C0F
:100320004CEA113102D0404261EB410113F0004F21
:100330004FEA03334CEA133302D0524263EB4303D8
:1003400094EA050F00F0A780A4F10104D5F1200E76
:100350000DDB02FA0EFC22FA05F2801841F10001D1
:1003600003FA0EF2801843FA05F359410EE0A5F1A5
:1003700020050EF1200E012A03FA0EFC28BF4CF0D6
:10038000020C43FA05F3C01851EBE37101F000458C
:1003900007D54FF0000EDCF1000C7EEB00006EEB99
:1003A0000101B1F5801F1BD3B1F5001F0CD3490823
:1003B0005FEA30004FEA3C0C04F101044FEA44527A
:1003C00012F5800F80F09A80BCF1004F08BF5FEA01
:1003D000500C50F1000041EB045141EA050130BDE1
:1003E0005FEA4C0C404141EB0101013C28BFB1F5F3
:1003F000801FE9D291F0000F04BF01460020B1FA3E
:1004000081F308BF2033A3F10B03B3F120020CDA10
:100410000C3208DD02F1140CC2F10C0201FA0CF0EE
:1004200021FA02F10CE002F11402D8BFC2F1200C53
:1004300001FA02F120FA0CFCDCBF41EA0C01904009
:10044000E41AA2BF01EB0451294330BD6FEA040452
:100450001F3C1CDA0C340EDC04F11404C4F120023D
:1004600020FA04F001FA02F340EA030021FA04F34F
:1004700045EA030130BDC4F10C04C4F1200220FAA6
:1004800002F001FA04F340EA0300294630BD21FAE4
:1004900004F0294630BD94F0000F83F4801306BFAA
:1004A00081F480110134013D4EE77FEA645C18BF9E
:1004B0007FEA655C29D094EA050F08BF90EA020F35
:1004C00005D054EA000C04BF1946104630BD91EA2D
:1004D000030F1EBF0021002030BD5FEA545C05D130
:1004E0004000494128BF41F0004130BD14F580046F
:1004F0003CBF01F5801130BD01F0004545F0FE41E3
:1005000041F470014FF0000030BD7FEA645C1ABF17
:10051000194610467FEA655C1CBF0B46024650EA4E
:10052000013406BF52EA033591EA030F41F400217A
:1005300030BD00BF90F0000F04BF0021704730B500
:100540004FF4806404F132044FF000054FF00001D5
:1005500050E700BF90F0000F04BF0021704730B596
:100560004FF4806404F1320410F0004548BF40426B
:100570004FF000013EE700BF42004FEAE2014FEAC0
:1005800031014FEA02701FBF12F07F4393F07F4F9B
:1005900081F06051704732F07F4208BF704793F09E
:1005A0007F4F04BF41F40021704730B54FF46074B1
:1005B00001F0004521F000411CE700BF50EA0102B4
:1005C00008BF704730B54FF000050AE050EA01025D
:1005D00008BF704730B511F0004502D5404261EBCD
:1005E00041014FF4806404F132045FEA915C3FF40E
:1005F000D8AE4FF003025FEADC0C18BF03325FEAAB
:10060000DC0C18BF033202EBDC02C2F1200300FA5B
:1006100003FC20FA02F001FA03FE40EA0E0021FA80
:1006200002F11444BDE600BF70B54FF0FF0C4CF46E
:10063000E06C1CEA11541DBF1CEA135594EA0C0F20
:1006400095EA0C0F00F0DEF82C4481EA030621EA5B
:100650004C5123EA4C5350EA013518BF52EA033596
:1006600041F4801143F4801338D0A0FB02CE4FF048
:100670000005E1FB02E506F00042E0FB03E54FF078
:100680000006E1FB03569CF0000F18BF4EF0010E70
:10069000A4F1FF04B6F5007F64F5407404D25FEA6C
:1006A0004E0E6D4146EB060642EAC62141EA55511F
:1006B0004FEAC52040EA5E504FEACE2EB4F1FD0C61
:1006C00088BFBCF5E06F1ED8BEF1004F08BF5FEADF
:1006D000500E50F1000041EB045170BD06F0004691
:1006E00046EA010140EA020081EA0301B4EB5C043E
:1006F000C2BFD4EB0C0541EA045170BD41F4801136
:100700004FF0000E013C00F3AB8014F1360FDEBF5A
:10071000002001F0004170BDC4F10004203C35DA36
:100720000C341BDC04F11404C4F1200500FA05F3B9
:1007300020FA04F001FA05F240EA020001F000425A
:1007400021F0004110EBD37021FA04F642EB0601D0
:100750005EEA430E08BF20EAD37070BDC4F10C04FA
:10076000C4F1200500FA04F320FA05F001FA04F2BE
:1007700040EA020001F0004110EBD37041F10001AA
:100780005EEA430E08BF20EAD37070BDC4F12005B5
:1007900000FA05F24EEA020E20FA04F301FA05F21D
:1007A00043EA020321FA04F001F0004121FA04F2C5
:1007B00020EA020000EBD3705EEA430E08BF20EA95
:1007C000D37070BD94F0000F0FD101F000464000CF
:1007D00041EB010111F4801F08BF013CF7D041EA51
:1007E000060195F0000F18BF704703F00046520055
:1007F00043EB030313F4801F08BF013DF7D043EA26
:100800000603704794EA0C0F0CEA135518BF95EADB
:100810000C0F0CD050EA410618BF52EA4306D1D162
:1008200081EA030101F000414FF0000070BD50EA81
:10083000410606BF1046194652EA430619D094EA0B
:100840000C0F02D150EA013613D195EA0C0F05D1F5
:1008500052EA03361CBF104619460AD181EA030149
:1008600001F0004141F0FE4141F470014FF0000001
:1008700070BD41F0FE4141F4780170BD70B54FF09C
:10088000FF0C4CF4E06C1CEA11541DBF1CEA13551C
:1008900094EA0C0F95EA0C0F00F0A7F8A4EB0504FE
:1008A00081EA030E52EA03354FEA013100F08880F5
:1008B0004FEA03334FF0805545EA131343EA1263BE
:1008C0004FEA022245EA111545EA10654FEA002673
:1008D0000EF000419D4208BF964244F1FD0404F52C
:1008E000407402D25B084FEA3202B61A65EB030588
:1008F0005B084FEA32024FF480104FF4002CB6EB45
:10090000020E75EB030E22BFB61A754640EA0C00C4
:100910005B084FEA3202B6EB020E75EB030E22BF04
:10092000B61A754640EA5C005B084FEA3202B6EB45
:10093000020E75EB030E22BFB61A754640EA9C0004
:100940005B084FEA3202B6EB020E75EB030E22BFD4
:10095000B61A754640EADC0055EA060E18D04FEA92
:10096000051545EA16754FEA06164FEAC30343EA32
:1009700052734FEAC2025FEA1C1CC0D111F4801FFF
:100980000BD141EA00014FF000004FF0004CB6E7F8
:1009900011F4801F04BF01430020B4F1FD0C88BF97
:1009A000BCF5E06F3FF6AFAEB5EB030C04BFB6EBA2
:1009B000020C5FEA500C50F1000041EB045170BD95
:1009C0000EF0004E4EEA113114EB5C04C2BFD4EBC2
:1009D0000C0541EA045170BD41F480114FF0000E46
:1009E000013C90E645EA060E8DE60CEA135594EAC2
:1009F0000C0F08BF95EA0C0F3FF43BAF94EA0C0FC5
:100A00000AD150EA01347FF434AF95EA0C0F7FF439
:100A100025AF104619462CE795EA0C0F06D152EA8D
:100A200003353FF4FDAE1046194622E750EA410671
:100A300018BF52EA43067FF4C5AE50EA41047FF482
:100A40000DAF52EA43057FF4EBAE12E74FF0FF3CE7
:100A500006E000BF4FF0010C02E000BF4FF0010CB8
:100A60004DF804CD4FEA410C7FEA6C5C4FEA430C31
:100A700018BF7FEA6C5C1BD001B050EA410C0CBF80
:100A800052EA430C91EA030F02BF90EA020F0020E2
:100A9000704710F1000F91EA030F58BF994208BF49
:100AA00090422CBFD8176FEAE37040F00100704706
:100AB0004FEA410C7FEA6C5C02D150EA013C07D15D
:100AC0004FEA430C7FEA6C5CD6D152EA033CD3D0A8
:100AD0005DF8040B704700BF8446104662468C46A2
:100AE0001946634600E000BF01B5FFF7B7FF0028D5
:100AF00048BF10F1000F01BD4DF808EDFFF7F4FFFE
:100B00000CBF012000205DF808FB00BF4DF808ED88
:100B1000FFF7EAFF34BF012000205DF808FB00BFAB
:100B20004DF808EDFFF7E0FF94BF012000205DF8CD
:100B300008FB00BF4DF808EDFFF7CEFF94BF012082
:100B400000205DF808FB00BF4DF808EDFFF7C4FF7B
:100B500034BF012000205DF808FB00BF4FEA410CC4
:100B60007FEA6C5C02D150EA013C0AD14FEA430CA7
:100B70007FEA6C5C02D152EA033C02D14FF00000E4
:100B800070474FF0010070474FEA410212F5001222
:100B900015D211D56FF47873B3EB625212D94FEAC4
:100BA000C12343F0004343EA505311F0004F23FAAE
:100BB00002F018BF404270474FF00000704750EA03
:100BC000013005D111F0004008BF6FF000407047C0
:100BD0004FF00000704700BF4A0011D212F500121A
:100BE00011D20DD56FF47873B3EB62520ED44FEA85
:100BF000C12343F0004343EA505323FA02F0704705
:100C00004FF00000704750EA013002D14FF0FF3042
:100C100070474FF0000070474FEA4102B2F1E043E5
:100C200024BFB3F5001CDCF1FE5C0DD901F0004CD3
:100C30004FEAC0024CEA5070B2F1004F40EB830023
:100C400008BF20F00100704711F0804F21D113F14F
:100C50003872BCBF01F00040704741F480114FEA88
:100C60005252C2F11802C2F1200C10FA0CF320FA11
:100C700002F018BF40F001004FEAC1234FEAD3232E
:100C800003FA0CFC40EA0C0023FA02F34FEA430398
:100C9000CCE77FEA625307D150EA01331EBF4FF021
:100CA000FE4040F44000704701F0004040F0FE403C
:100CB00040F40000704700BF53B94AB9002908BF8B
:100CC00000281CBF4FF0FF314FF0FF3000F0AAB9F1
:100CD000ADF1080C6DE904CE00F03CF8DDF804E05D
:100CE000DDE9022304B0704738B500220023044632
:100CF0000D46FFF70BFF28B920462946BDE83840CE
:100D000000F00AB8204605F1004100F005F8404225
:100D100061EB410138BD00BFD0B50C4B0022064647
:100D20000F46FFF781FCFFF757FF0446FFF702FC71
:100D3000074B0022FFF778FC02460B463046394647
:100D4000FFF7BAFAFFF748FF2146D0BD0000F03D9B
:100D50000000F0412DE9F047089D04468E46002B27
:100D60004DD18A42944669D9B2FA82F252B101FA5F
:100D700002F3C2F1200120FA01F10CFA02FC41EA6F
:100D8000030E94404FEA1C48210CBEFBF8F61FFAF4
:100D90008CF708FB16E341EA034306FB07F199428F
:100DA0000AD91CEB030306F1FF3080F01F81994242
:100DB00040F21C81023E63445B1AA4B2B3FBF8F01C
:100DC00008FB103344EA034400FB07F7A7420AD9A3
:100DD0001CEB040400F1FF3380F00A81A74240F2CB
:100DE00007816444023840EA0640E41B00261DB136
:100DF000D4400023C5E900433146BDE8F0878B426B
:100E000009D9002D00F0EF800026C5E90001304629
:100E10003146BDE8F087B3FA83F6002E4AD18B4203
:100E200002D3824200F2F980841A61EB03030120AD
:100E30009E46002DE0D0C5E9004EDDE702B9FFDE99
:100E4000B2FA82F2002A40F09280A1EB0C014FEA44
:100E50001C471FFA8CFE0126200CB1FBF7F307FBA1
:100E6000131140EA01410EFB03F0884208D91CEB44
:100E7000010103F1FF3802D2884200F2CB804346E1
:100E8000091AA4B2B1FBF7F007FB101144EA0144C0
:100E90000EFB00FEA64508D91CEB040400F1FF314F
:100EA00002D2A64500F2BB800846A4EB0E0440EA3D
:100EB00003409CE7C6F12007B34022FA07FC4CEA46
:100EC000030C20FA07F401FA06F31C43F9404FEA39
:100ED0001C4900FA06F3B1FBF9F8200C1FFA8CFE4E
:100EE00009FB181140EA014108FB0EF0884202FAA2
:100EF00006F20BD91CEB010108F1FF3A80F0888063
:100F0000884240F28580A8F102086144091AA4B21F
:100F1000B1FBF9F009FB101144EA014100FB0EFEA0
:100F20008E4508D91CEB010100F1FF346CD28E45CF
:100F30006AD90238614440EA0840A0FB0294A1EB60
:100F40000E01A142C846A64656D353D05DB1B3EBBD
:100F5000080261EB0E0101FA07F722FA06F3F140ED
:100F60001F43C5E9007100263146BDE8F087C2F194
:100F70002003D8400CFA02FC21FA03F3914001430C
:100F80004FEA1C471FFA8CFEB3FBF7F007FB103645
:100F90000B0C43EA064300FB0EF69E4204FA02F4F1
:100FA00008D91CEB030300F1FF382FD29E422DD944
:100FB000023863449B1B89B2B3FBF7F607FB163379
:100FC00041EA034106FB0EF38B4208D91CEB0101F9
:100FD00006F1FF3816D28B4214D9023E6144C91A79
:100FE00046EA004638E72E46284605E70646E3E689
:100FF0001846F8E64B45A9D2B9EB020864EB0C0E93
:101000000138A3E74646EAE7204694E74046D1E7A1
:10101000D0467BE7023B614432E7304609E764444F
:10102000023842E7704700BF80B487B000AF034684
:10103000B9607A60FB8100237B613DE07A69BB681F
:101040009A421BD27B699B007A6813441A68FB8919
:101050001B04DB4318467B699B0079680B44024004
:101060001A607B699B007A6813441968FA897B6966
:101070009B00786803440A431A601AE07B699B006E
:101080007A6813441A68FB89DB4318467B699B0026
:1010900079680B4402401A607B699B007A681344AC
:1010A0001968FB891A047B699B00786803440A432A
:1010B0001A607B6901337B617B69B3F57A7FBDD3AD
:1010C00000BF00BF1C37BD465DF8047B70470000C1
:1010D00080B500AF094B01221A700121084804F0C5
:1010E000F1F90346002B03D0064B01221A7002E0EF
:1010F000044B00221A7000BF80BD00BFF514002011
:1011000000000240F414002080B500AF094B1B68BA
:101110000133084A1360074B1B68B3F5803F02D3C5
:10112000044B00221A6002F001FA0346024A1360DF
:1011300000BF80BDE81400202C17002080B500AF50
:101140004FF40041024804F0BDF900BF80BD00BF6C
:101150000000024080B582B000AF00237B600C4BE2
:101160001B6B0B4A43F480031363094B1B6B03F4A3
:1011700080037B607B6800220021442002F0B9FFDD
:10118000442002F0D2FF00BF0837BD4680BD00BF3B
:101190000038024080B500AF0A4B93F83830002B7E
:1011A0000DD0084B002283F83820074A4FF46171B4
:1011B0000820FFF739FF41F2883002F0C3F900BF81
:1011C00080BD00BFA81400206C03002080B594B03F
:1011D00000AF07F1200330220021184619F0AAFEC3
:1011E00007F10C0300221A605A609A60DA601A61F3
:1011F0000023BB60244B1B6C234A43F080531364D1
:10120000214B1B6C03F08053BB60BB6800237B60E9
:101210001E4B1B6823F440431C4A43F400431360F5
:101220001A4B1B6803F440437B607B6806233B62D8
:101230000123BB620123FB6210233B630023BB63DA
:1012400007F12003184606F0C7FD0346002B01D026
:1012500001F02EFC0F23FB6000233B61C0237B6168
:101260000023BB610023FB6107F10C03002118463A
:1012700007F02AF80346002B01D001F019FC00BF4B
:101280005037BD4680BD00BF0038024000700040AE
:1012900080B594B000AF454B1B68444A43F001034E
:1012A00013604FF6FF73A7F84E3000BF3F4B1B682B
:1012B00003F00203002B06D1B7F84E305A1EA7F8F0
:1012C0004E20002BF2D1394B9B68384A23F00303A0
:1012D0009360364B1B68354A23F08073136007F127
:1012E0001C0330220021184619F024FE07F10803E0
:1012F00000221A605A609A60DA601A6100237B60EB
:101300002A4B1B6C294A43F080531364274B1B6CF8
:1013100003F080537B607B6800233B60244B1B6899
:1013200023F44043224A43F400431360204B1B68DC
:1013300003F440433B603B680523FB614FF480337B
:101340003B6201237B6202237B634FF48003BB6318
:101350001923FB634FF4A8733B6404237B640723C6
:10136000BB6407F11C03184606F036FD0346002B4C
:1013700001D001F09DFB0F23BB600223FB60002323
:101380003B614FF480537B610023BB6107F108038D
:101390000221184606F098FF0346002B01D001F009
:1013A00087FB00BF5037BD4680BD00BF00380240FC
:1013B0000070004080B582B000AF1C4B7B607B6842
:1013C000B3F895319BB24FF4C252934209D1184AF7
:1013D0007B681046194640F297131A4619F082FDB1
:1013E00008E0134A134B1046194640F297131A4669
:1013F00019F078FD104911481AF0D7FD0346002B6B
:1014000004D00F4B012283F826200AE00D490B4837
:101410001AF0CBFD0346002B03D0094B002283F8C2
:10142000262000BF0837BD4680BD00BF000006086B
:10143000101300205812020888FA010874130020C3
:10144000A814002090FA010880B584B000AF72B6ED
:1014500000BF2D4BBB6003F02DFB2C4B0122DA604B
:101460002A4B0222DA60294B1022DA60274B202215
:10147000DA60264B4022DA60244B8022DA60234B6C
:101480004FF48072DA60224B00221A60204B022255
:101490001A611F4B07229A601D4B0122DA603B46FE
:1014A00019461B4803F084FC0346002B03D003F0CD
:1014B00033FB034624E0174B7B60174BFB6016E0C1
:1014C000BB68D3E90023F968022003F09FFA0346C2
:1014D000002B06D1FB680433FB60BB680433BB60A0
:1014E00005E003F009FB03F017FB034608E0FA6888
:1014F0007B689A42E4D303F0FFFA62B600BF002390
:1015000018461037BD4680BD10130020003C024035
:1015100048170020970106080000060880B500AFB4
:10152000144B1B78002B22D0134B1B78002B0BD0B5
:10153000124808F011FF114808F0ACFE104B0022D1
:101540001A600D4B00221A700D4B1B68B3F5967F85
:101550000DD30A4808F000FFFFF776FF084B002282
:101560001A60044B00221A70034B00221A7000BF4D
:1015700080BD00BFE5140020E6140020E418002020
:10158000E814002080B582B000AF11F095F810F09B
:1015900045FF10F0DDFD10F0F5FEBA1C391DBB1D36
:1015A000184610F097FE00BF0837BD4680BD00000A
:1015B00080B590B002AF0023FB8610F019FD034602
:1015C000FB863E4811F0EEF8002387F8353007F12E
:1015D0003503184610F032FE0346FB8697F8353087
:1015E000002B66D0364A3749374810F07FFD034656
:1015F000FB86354B5B68354A82FB03129211DB1781
:10160000D31A314A5360304B9B68304A82FB031235
:101610009211DB17D31A2C4A93602D4B1B78002BA9
:1016200047D0B7F93630002B13D0B7F936203B46F8
:10163000284918461AF084FC3B461846FEF7DAFDA6
:1016400003469AB239464FF47A73234809F040FEB4
:101650002FE01D4B1B88002B11D13B461F4918461C
:101660001AF06EFC3B461846FEF7C4FD03469AB2DC
:1016700039464FF47A73184809F02AFE19E0124BE4
:101680001B881946104B5A680F4B9B6838460093CD
:1016900013460A4612491AF053FC3B461846FEF719
:1016A000A9FD03469AB239464FF47A730A4809F005
:1016B0000FFE00BF3837BD4680BD00BFA0860100C9
:1016C000B0140020AC140020A8140020D34D6210E8
:1016D000E414002098FA0108D4190020C8FA01087F
:1016E000ECFA010880B58CB000AF0B4811F070FC2B
:1016F00011F0B8FB3B1D184611F0AAFD0346FB850F
:1017000007F10C03184611F077FC0346FB8500BF78
:101710003037BD4680BD00BF40420F002DE9B04FBD
:10172000A0B006AF11F094FC0346A7F866303A4823
:1017300011F0BAFC0346A7F86630374B1B68374AEE
:101740001361354B5B68354A5361334B9B68334AB1
:101750009361314BDB68314AD361B7F96630002BB6
:1017600054DB2F4B1B78002B50D0B7F8663043F07A
:10177000FF031BB240F2FF12934213D1B7F8663059
:10178000DAB23B46274918461AF0DAFB3B461846C0
:10179000FEF730FD03469AB239464FF47A73224879
:1017A00009F096FD1C4B1B681846FEF7E5FE8246C5
:1017B0008B46194B5B681846FEF7DEFE04460D4665
:1017C000154B9B681846FEF7D7FE80468946124B9C
:1017D000DB681846FEF7D0FE02460B463846CDE9D8
:1017E0000423CDE90289CDE9004552465B460F4905
:1017F0001AF0A6FB3B461846FEF7FCFC03469AB2DD
:1018000039464FF47A73084809F062FD00BF683723
:10181000BD46BDE8B08F00BF04170020A81400200B
:10182000E41400201CFB0108D419002050FB01081F
:1018300080B500AF1A4B93F82A30002B05D0184B17
:10184000002283F82A200EF0EDFC154B93F8293086
:10185000002B15D0124B002283F8292000224FF4D0
:101860000041104803F046FE4FF4FA7001F06AFEA2
:1018700001224FF400410B4803F03CFEFFF732FF1A
:1018800064230522C421084804F018FB0346002BFA
:1018900003D0034B012283F82B2000BF80BD00BF83
:1018A000A814002000040240A417002080B500AF57
:1018B000104B93F83230002B0BD00E4B93F82C309A
:1018C000002B06D10B4B002283F83220042011F0AC
:1018D000ABFC084B93F83330002B09D0054B0022AA
:1018E00083F83320034B9B8E0349184610F058FCB5
:1018F00000BF80BDA8140020DE14002080B500AF1A
:10190000204B00225A631F4B00229A631E4A00217B
:101910000820FFF789FB1D4801F0BFFE4FF47A73E2
:101920000B221B491B4809F0D3FC00224FF4004155
:10193000194803F0DFFD01220221184803F0DAFD07
:1019400010F006FC10F044FD0EF060FC10F0E6FE16
:1019500011F0C8FA18F09EFC114808F0ECFB114891
:1019600008F0E9FB104808F0E6FB104802F0B8FC6C
:10197000FFF72CFC01F00AFE0121012006F000FA1D
:1019800000BF80BD000400406C0300205C170020F5
:1019900088FB0108D4190020000402400000024026
:1019A0009C180020E41800202C1900207419002035
:1019B00080B500AF01F0FAFDFFF76AFC01224FF499
:1019C0000041304803F096FD002202212E4803F02A
:1019D00091FD0EF027FCFFF7BDFB00F063FD00F06A
:1019E000B1FD00F0FDFDFFF7CDFD18F065FC4FF4F3
:1019F0000071254803F066FD0346002B02D1FFF776
:101A000071FE0FE0214B012283F82C201F4B012295
:101A100083F82F201E4B00221A6001F087FD034639
:101A20001C4A13601C4808F0DBFB1C494FF47A7316
:101A30001B4A1C4802F0B2FC174B1B68DA68164BB5
:101A40001B6842F48072DA60144A00210820FFF714
:101A5000EBFA0021144808F007FD144B00225A63EA
:101A60000421114808F000FD104B00229A63FFF793
:101A700091FB4FF47A730A220D490E4809F028FCB5
:101A800000BF80BD0004024000000240A8140020F6
:101A9000F0140020341700209C1800206C03002054
:101AA00018040240741900202C1900200004004082
:101AB00094FB0108D419002080B500AF154B4FF4FA
:101AC00061725A634FF47A7001F03CFD114B0022B1
:101AD0005A634FF47A7001F035FD0E4B4FF461728A
:101AE0005A634FF47A7001F02DFD0A4B00225A63BD
:101AF0004FF47A7001F026FD064B4FF461725A6381
:101B00004FF47A7001F01EFD024B00225A6300BFB1
:101B100080BD00BF0004004080B500AF664B93F964
:101B20003130002B40F0B9804FF40071634803F06E
:101B3000C9FC0346002B0CD0614B00225A63604B5A
:101B400000229A635F4A4FF461710820FFF76CFA34
:101B5000AFE05C4A00210820FFF766FA564BD3ED50
:101B6000087A9FED597AF4EEC77AF1EE10FA0CDBA1
:101B7000534B4FF461725A63514B00229A63514A9E
:101B800000210820FFF750FA93E04B4BD3ED087A81
:101B90009FED4E7AF4EEC77AF1EE10FA24DD464B53
:101BA000D3ED087A9FED487AF4EEC77AF1EE10FA99
:101BB0001AD8434B00229A63424A00210820FFF7BB
:101BC00033FA434B1B8846339AB2414B1A80404B41
:101BD0001B88B3F57A7F02D93D4B00221A803C4B1B
:101BE0001A88374B5A6364E0334BD3ED087AB0EE72
:101BF000027AF4EEC77AF1EE10FA33DD2E4BD3ED14
:101C0000087A9FED327AF4EEC77AF1EE10FA29D80D
:101C10002C4A00210820FFF707FA2D4B1B8846337A
:101C20009AB22B4B1A802A4B1B88B3F57A7F02D9C4
:101C3000274B00221A80274B1B8846339AB2254B2C
:101C40001A80244B1B88B3F57A7F02D9214B0022DE
:101C50001A801F4B1A881A4B5A631E4B1A88184B4E
:101C60009A6326E0164B00225A63164A0021082088
:101C7000FFF7DAF9174B1B8846339AB2154B1A80D7
:101C8000144B1B88B3F57A7F02D9124B00221A80BD
:101C9000104B1A880A4B9A630BE00E4B1B88B3F566
:101CA000617F01D1002301E04FF46173044A936323
:101CB000FFE700BF80BD00BFA81400200000024065
:101CC000000400406C030020AE4751401F851B40BC
:101CD0000C1300200E13002090B583B000AF01F06C
:101CE00081FC0346DBB27B6001F07CFC03461D4AAD
:101CF0001B0A13601C4C01F081FC034623607B68C7
:101D0000232B09D97B683D2B28BF3D23DBB23D3314
:101D1000DAB2144BDA710BE07B68092B01D941224E
:101D200000E030227B68DBB21344DAB20D4BDA718B
:101D300001F04CFC03461B0CDBB219460B4810F0BB
:101D400027F801F043FC0346DBB21946084810F0BF
:101D50001FF8044B00221A73024B18460C37BD467D
:101D600090BD00BF381700203B170020401700200F
:101D70004217002080B588B000AF0123FB773C22DA
:101D800000218A4819F0D6F8FFF714FB18F094FAEE
:101D900001F0CCFB0346864A13604FF4007185487E
:101DA00003F090FB0346002B02D1FFF79BFC12E0EF
:101DB0007E4B002283F82C207C4B012283F82E20BE
:101DC0007A4B012283F82D20784B012283F82F20B3
:101DD000794B00221A60FFF7D5FB0EF057FA0FF08F
:101DE00063FE07F1180300221946744806F02CFF21
:101DF000BA7E6E4B83F827207149724818F0E0F9DB
:101E000003461A46694B83F830206F4808F0E8F91A
:101E10006E494FF47A736E4A6E4802F0BFFA6A4B0D
:101E20001B68DA68684B1B6842F48072DA60674AA4
:101E300000210820FFF7F8F80021674808F014FB9C
:101E4000664B00225A630421634808F00DFB634B84
:101E500000229A63FFF730FEC823152260496148CB
:101E600009F036FA01F062FB03465F4A136001F0A5
:101E70005DFB03465D4A13600123FB7764E15C4B25
:101E80009B6B002B0AD05B48FEF7B4F903469AB26D
:101E90004FF47A735749534809F01AFA4FF4007116
:101EA000444803F00FFB0346002B04D001F03EFB37
:101EB00003464D4A13603B1D002219463F4806F079
:101EC000E1FD3B46002219463C4806F0BDFEBA78CB
:101ED000364B83F839207A78344B83F83A20FA78F5
:101EE000324B83F83B20314B93F82720BB789A4242
:101EF00007D02E4B012283F82820BA782B4B83F889
:101F00002720FFF795FC294B93F82C30002B04D1A8
:101F1000264B93F82E30002B45D0244B93F82E30CF
:101F2000002B03D0344B01221A7003E01F4B012217
:101F300083F82D2001F0FAFA02461D4B1B68D21AD5
:101F40002E4B1B689A4229D3184B93F93030B3F1CA
:101F5000FF3F0DD1154B93F82E30002B08D01849B8
:101F6000184818F02DF903461A46104B83F8302014
:101F70000E4B002283F82E200C4B002283F82C20DD
:101F80000A4B002283F82D201B4B00221A70FFF70A
:101F9000A9FB01F0CBFA0346144A136001F0C6FA1C
:101FA0000346114A13600EF025F93BE0A814002007
:101FB0003417002000000240F0140020F817002021
:101FC00074130020101300209C1800206C030020C4
:101FD00018040240741900202C190020000400404D
:101FE000A0FB0108D41900202C1700203017002076
:101FF0001818002000000020EC14002044000020ED
:102000000EF0F8F8714B93F82B30002B01D1FFF74D
:10201000CFFAFFF783FB6E480FF04EFFFFF77CFD12
:10202000FFF7B8F801F082FA02466A4B1B68D21A31
:10203000694B1B689A4209D8644B93F82C30002BEB
:1020400004D1624B93F82E30002BD9D0FFF72EFC31
:10205000FB7F002B17D05D4B93F82C30002B12D157
:102060005A4B93F82E30002B0DD14FF400715B4882
:1020700003F028FA0346002B05D110F069F810F0A0
:10208000FFFF0023FB774FF40071544803F01AFA66
:102090000346002B39D0524B1B78002B35D04B4BCD
:1020A00093F82C30002B30D1484B93F82830002B7C
:1020B0000FD1464B93F82430002B0AD1434B93F8B1
:1020C0002530002B05D1414B93F93030B3F1FF3F60
:1020D00014D13E4B002283F828203C4B002283F889
:1020E00024203A4B002283F825203E493E4818F030
:1020F00067F803461A46354B83F8302018F048F845
:1021000001F014FA0346334A13600FF0CDFC304857
:102110000FF0D2FEFFF700FDFFF700FA01212F4874
:1021200003F0D0F90346002B06D0284B01221A7386
:102130002E4B01221A7005E0244B00221A732B4B00
:1021400001221A70FFF726F801F0F0F90246284B39
:102150001B68D21A274B1B689A427FF690AE1B4B26
:1021600093F82830002B0FD1184B93F82430002B14
:102170000AD1164B93F82530002B05D1134B93F958
:102180003030B3F1FF3F14D1104B002283F82820E8
:102190000E4B002283F824200C4B002283F82520CC
:1021A0001049114818F00CF803461A46074B83F8FB
:1021B000302017F0EDFF01F0B9F903460C4A136027
:1021C000FFF79CFBFFF7F4FB4CE600BFA8140020D0
:1021D000C8140020301700204000002000000240FA
:1021E000610000207413002010130020F51400205B
:1021F0002C1700203C00002080B500AF01F030F922
:1022000000F01CF800F0E2FA00F0C0FA00F02AF941
:1022100000F068FA00F000F900F0D0F800F092F950
:1022200000F08AFA00F078F80FF08EFA00F03AF930
:1022300000F0D6F9FFF79EFDFEE7000080B594B0F0
:1022400000AF07F1200330220021184618F072FE7B
:1022500007F10C0300221A605A609A60DA601A6172
:102260000023BB602A4B1B6C294A43F08053136444
:10227000274B1B6C03F08053BB60BB6800237B6063
:10228000244B1B6823F44043224A43F40043136069
:10229000204B1B6803F440437B607B6805233B6253
:1022A0004FF480337B620123BB620223BB634FF494
:1022B0008003FB6319233B644FF4A8737B640423FE
:1022C000BB640723FB6407F12003184605F084FD77
:1022D0000346002B01D000F0EBFB0F23FB60022331
:1022E0003B6100237B614FF48053BB610023FB61A2
:1022F00007F10C030221184605F0E6FF0346002B08
:1023000001D000F0D5FB00BF5037BD4680BD00BFF7
:10231000003802400070004080B584B000AF3B46FA
:1023200000221A605A609A60DA60214B214A1A60D2
:102330001F4B4FF480325A601D4B00229A601C4B99
:1023400000221A611A4B00221A76194B002283F8D8
:102350002020174B0022DA62154B174A9A62144B61
:102360000022DA60124B0122DA61114B002283F85D
:1023700030200F4B01225A610D4801F04BF9034602
:10238000002B01D000F094FB0A233B6001237B600B
:102390000023BB603B461946054801F031FB03466C
:1023A000002B01D000F084FB00BF1037BD4680BD7C
:1023B0005C170020002001400100000F80B500AF35
:1023C000124B134A1A60114B124A5A600F4B0022EB
:1023D0009A600E4B0022DA600C4B4FF480421A6177
:1023E0000A4B00225A61094B00229A61074B0022D6
:1023F000DA61064B00221A62044803F0C7F803466C
:10240000002B01D000F054FB00BF80BDA4170020BA
:1024100000540040801A060080B500AF0F4B104AF0
:102420001A600E4B00225A600C4B7F229A600B4BB5
:10243000FF22DA60094B00221A61084B00225A6120
:10244000064B00229A61054806F00CFA0346002B61
:1024500001D000F02DFB00BF80BD00BFF8170020A9
:102460000028004080B400AF0C4B0D4A1A600B4BA3
:1024700000225A60094B00229A60084B0022DA6061
:10248000064B00221A61054B00225A61034B0522BC
:102490009A6100BFBD465DF8047B704718180020A4
:1024A000002C014080B586B000AF07F10803002280
:1024B0001A605A609A60DA603B4600221A605A60DD
:1024C0001E4B1F4A1A601D4B00225A601B4B0022F4
:1024D0009A601A4B40F2E732DA60184B00221A6118
:1024E000164B00225A61154B00229A61134807F0DF
:1024F000D3FD0346002B01D000F0DAFA4FF48053ED
:10250000BB6007F1080319460C4808F027FA034698
:10251000002B01D000F0CCFA20233B6000237B602D
:102520003B461946054808F0D5FD0346002B01D06F
:1025300000F0BEFA00BF1837BD4680BD9C180020D1
:102540000000014080B586B000AF07F1080300220B
:102550001A605A609A60DA603B4600221A605A603C
:102560001E4B4FF080421A601C4B4FF47A725A6037
:102570001A4B00229A60194B42F2D002DA60174BD4
:1025800000221A61154B80229A61144807F084FDDD
:102590000346002B01D000F08BFA4FF48053BB6050
:1025A00007F1080319460D4808F0D8F90346002B37
:1025B00001D000F07DFA00233B6000237B603B46A6
:1025C0001946064808F086FD0346002B01D000F0AE
:1025D0006FFA00BF1837BD4680BD00BFE418002069
:1025E00080B58EB000AF07F1280300221A605A6050
:1025F0009A60DA6007F1200300221A605A603B1DDE
:1026000000221A605A609A60DA601A615A619A610F
:10261000324B334A1A60314B00225A602F4B002252
:102620009A602E4B40F2E732DA602C4B00221A619E
:102630002A4B80229A61294807F02EFD0346002B81
:1026400001D000F035FA4FF48053BB6207F1280344
:102650001946224808F082F90346002B01D000F009
:1026600027FA1E4807F0A7FE0346002B01D000F012
:102670001FFA00233B6200237B6207F12003194607
:10268000164808F027FD0346002B01D000F010FA91
:1026900060237B600023BB600023FB6000237B6121
:1026A0003B1D002219460D4808F096F80346002B02
:1026B00001D000F0FDF93B1D04221946074808F03F
:1026C0008BF80346002B01D000F0F2F9034800F02C
:1026D0000DFC00BF3837BD4680BD00BF2C1900205F
:1026E0000004004080B500AF114B124A1A60104B35
:1026F0004FF4E1325A600E4B00229A600C4B0022DC
:10270000DA600B4B00221A61094B0C225A61084B0C
:1027100000229A61064B0022DA61054808F05CFD50
:102720000346002B01D000F0C3F900BF80BD00BFFD
:10273000D41900200010014080B500AF114B124A9F
:102740001A60104B4FF4E1325A600E4B00229A602F
:102750000C4B0022DA600B4B00221A61094B0C2251
:102760005A61084B00229A61064B0022DA61054843
:1027700008F032FD0346002B01D000F099F900BFAC
:1027800080BD00BF181A00200044004080B582B010
:1027900000AF00237B600C4B1B6B0B4A43F48003A0
:1027A0001363094B1B6B03F480037B607B6800227F
:1027B0000021442001F09DFC442001F0B6FC00BF44
:1027C0000837BD4680BD00BF0038024080B58AB0E2
:1027D00000AF07F1140300221A605A609A60DA60B1
:1027E0001A6100233B61714B1B6B704A43F0040379
:1027F00013636E4B1B6B03F004033B613B690023C7
:10280000FB606A4B1B6B694A43F080031363674BA1
:102810001B6B03F08003FB60FB680023BB60634B12
:102820001B6B624A43F001031363604B1B6B03F0A5
:102830000103BB60BB6800237B605C4B1B6B5B4A86
:1028400043F002031363594B1B6B03F002037B60DD
:102850007B6800233B60554B1B6B544A43F00803D5
:102860001363524B1B6B03F008033B603B68002271
:1028700002214F4802F03EFE01224FF400414D4834
:1028800002F038FE002208214A4802F033FE42F6E8
:10289000FE637B610323BB610023FB6107F114032B
:1028A0001946454802F0A6FB01237B610023BB616A
:1028B0000023FB6107F1140319463D4802F09AFB1F
:1028C00002237B610123BB610023FB6102233B6286
:1028D00007F114031946364802F08CFB4FF4BE632F
:1028E0007B610323BB610023FB6107F114031946DD
:1028F0002F4802F07FFB47F207437B610323BB6154
:102900000023FB6107F1140319462A4802F072FB09
:102910004FF400437B610123BB610023FB61022371
:102920003B6207F114031946224802F063FB4FF49F
:1029300000737B614FF48813BB610223FB6107F1D5
:10294000140319461A4802F055FB4FF400437B610B
:102950004FF40413BB610123FB6107F11403194613
:10296000134802F047FB08237B610123BB6100236E
:10297000FB6100233B6207F1140319460D4802F086
:1029800039FB00220021172001F0B3FB172001F0D2
:10299000CCFB00220021282001F0ABFB282001F015
:1029A000C4FB00BF2837BD4680BD00BF00380240D1
:1029B00000000240000402400008024080B582B0DE
:1029C00000AF78607B681B68B3F1804F01D1FEF7E0
:1029D0009BFB00BF0837BD4680BD000080B582B0BC
:1029E00000AF0346FB80FB88012B01D1FEF770FB93
:1029F000FB88B3F5007F14D10F4B012283F82C2004
:102A00000D4B012283F82F200C4B00221A6000F09E
:102A10008DFD03460A4A136000F088FD0346094A0B
:102A20001360FB88B3F5004F01D1FEF787FB00BFB1
:102A30000837BD4680BD00BFA8140020F014002058
:102A4000341700202C17002080B582B000AF7860CA
:102A50000EF0F8FF00BF0837BD4680BD80B483B0DC
:102A600000AF78607B680F4A93420AD10E4B012277
:102A700083F82A207B681A6C7B681B68D2431A6033
:102A800009E07B68094A934205D17B681A6C7B6830
:102A90001B68D2431A6000BF0C37BD465DF8047B4B
:102AA000704700BFD4190020A8140020181A002075
:102AB00080B400AF72B600BFFEE7000080B483B000
:102AC00000AF00237B60104B5B6C0F4A43F48043E4
:102AD00053640D4B5B6C03F480437B607B68002385
:102AE0003B60094B1B6C084A43F080531364064B50
:102AF0001B6C03F080533B603B6800BF0C37BD4646
:102B00005DF8047B704700BF0038024080B58AB092
:102B100000AF786007F1140300221A605A609A60CF
:102B2000DA601A617B681B68174A934227D1002339
:102B30003B61164B5B6C154A43F480735364134B33
:102B40005B6C03F480733B613B690023FB600F4BBC
:102B50001B6B0E4A43F0040313630C4B1B6B03F017
:102B60000403FB60FB6801237B610323BB6100233B
:102B7000FB6107F114031946054802F03BFA00BF58
:102B80002837BD4680BD00BF00200140003802400C
:102B90000008024080B582B000AF78607B681B6897
:102BA000084A934209D1084B5B6C074A23F48073AF
:102BB00053640121054802F0A1FB00BF0837BD4660
:102BC00080BD00BF002001400038024000080240E4
:102BD00080B58AB000AF786007F1140300221A6054
:102BE0005A609A60DA601A617B681B68194A9342DE
:102BF0002CD100233B61184B1B6B174A43F0020397
:102C00001363154B1B6B03F002033B613B694FF4ED
:102C100040737B611223BB610023FB6103233B6292
:102C200004237B6207F1140319460C4802F0E2F911
:102C30000023FB60084B1B6C074A43F4001313642A
:102C4000054B1B6C03F40013FB60FB6800BF2837C7
:102C5000BD4680BD005400400038024000040240E0
:102C600080B582B000AF78607B681B680B4A9342E6
:102C70000FD10B4B1B6C0A4A23F4001313644FF45F
:102C80008071084802F03AFB4FF40071054802F0E9
:102C900035FB00BF0837BD4680BD00BF0054004073
:102CA000003802400004024080B588B000AF786070
:102CB00007F10C0300221A605A609A60DA601A6108
:102CC0007B681B68104A934219D10223FB604FF4C2
:102CD0008073BB6107F10C03184605F0D5FC034671
:102CE000002B01D0FFF7E4FE084B01221A600022FE
:102CF0000021292001F0FDF9292001F016FA00BF7A
:102D00002037BD4680BD00BF002800403C0E474232
:102D100080B58AB000AF786007F1140300221A6012
:102D20005A609A60DA601A617B681B68284A93428D
:102D30004AD100233B61274B5B6C264A43F4006376
:102D40005364244B5B6C03F400633B613B690023D9
:102D5000FB60204B1B6B1F4A43F0040313631D4BA6
:102D60001B6B03F00403FB60FB680023BB60194B83
:102D70001B6B184A43F008031363164B1B6B03F0DD
:102D80000803BB60BB684FF488537B610223BB61BF
:102D90000023FB6103233B620C237B6207F11403D6
:102DA00019460D4802F026F904237B610223BB611A
:102DB0000023FB6103233B620C237B6207F11403B6
:102DC0001946064802F016F900BF2837BD4680BDF7
:102DD000002C01400038024000080240000C024074
:102DE00080B586B000AF78607B681B683A4A934232
:102DF0003FD100237B61394B5B6C384A43F00103C0
:102E00005364364B5B6C03F001037B617B69344B8D
:102E1000344A1A60324B4FF040625A60304B4022C5
:102E20009A602F4B0022DA602D4B4FF480621A61BA
:102E30002B4B4FF480525A61294B4FF480429A61D8
:102E4000274B4FF48072DA61254B00221A62244B23
:102E500000225A62224801F095F90346002B01D066
:102E6000FFF726FE7B681E4A1A621D4A7B68936341
:102E70002EE07B681B68B3F1804F16D100233B61C5
:102E8000164B1B6C154A43F001031364134B1B6C68
:102E900003F001033B613B69002200211C2001F08B
:102EA00028F91C2001F041F912E07B681B680E4AEA
:102EB00093420DD10023FB60084B1B6C074A43F083
:102EC00002031364054B1B6C03F00203FB60FB68F9
:102ED00000BF1837BD4680BD0000014000380240E9
:102EE00074190020886402400004004080B588B056
:102EF00000AF786007F10C0300221A605A609A60F4
:102F0000DA601A617B681B68124A93421DD1002364
:102F1000BB60114B1B6B104A43F0020313630E4B53
:102F20001B6B03F00203BB60BB683023FB60022312
:102F30003B6100237B610023BB610223FB6107F13E
:102F40000C031946054802F055F800BF2037BD466E
:102F500080BD00BF00040040003802400004024071
:102F600080B582B000AF78607B681B68164A9342D8
:102F70000BD1164B5B6C154A23F0010353647B683D
:102F80001B6A184601F0ACF919E07B681B68B3F1C5
:102F9000804F09D10D4B1B6C0C4A23F001031364C5
:102FA0001C2001F0D0F80AE07B681B68084A9342B5
:102FB00005D1064B1B6C054A23F00203136400BFC6
:102FC0000837BD4680BD00BF000001400038024008
:102FD0000004004080B58CB000AF786007F11C039E
:102FE00000221A605A609A60DA601A617B681B6876
:102FF0003A4A934234D10023BB61394B5B6C384A67
:1030000043F010035364364B5B6C03F01003BB6159
:10301000BB6900237B61324B1B6B314A43F00203D7
:1030200013632F4B1B6B03F002037B617B69C0238F
:10303000FB6102233B6200237B620323BB62072305
:10304000FB6207F11C031946264801F0D3FF00225A
:103050000021252001F04DF8252001F066F838E028
:103060007B681B68204A934233D100233B611C4B91
:103070001B6C1B4A43F400331364194B1B6C03F4A1
:1030800000333B613B690023FB60154B1B6B144A0B
:1030900043F001031363124B1B6B03F00103FB604E
:1030A000FB680C23FB6102233B6200237B6203234A
:1030B000BB620723FB6207F11C0319460B4801F0B2
:1030C00099FF00220021262001F013F8262001F0AC
:1030D0002CF800BF3037BD4680BD00BF0010014056
:1030E000003802400004024000440040000002405A
:1030F00080B582B000AF78607B681B68134A93424A
:103100000DD1134B5B6C124A23F010035364C021A2
:10311000104802F0F3F8252001F015F811E07B6863
:103120001B680D4A93420CD1094B1B6C084A23F4CF
:10313000003313640C21094802F0E0F8262001F066
:1031400002F800BF0837BD4680BD00BF0010014037
:1031500000380240000402400044004000000240E9
:1031600080B500AF00F0FDFFFEE780B500AF00F0D6
:10317000F8FFFEE780B500AF00F0F3FFFEE780B593
:1031800000AF00F0EEFFFEE780B500AF00F0E9FF12
:10319000FEE780B500AF00F0E4FF00BF80BD80B562
:1031A00000AF00F0DEFF00BF80BD80B500AF00F0D3
:1031B000D8FF00BF80BD80B500AF00F0A3F900BF0D
:1031C00080BD80B500AF4FF4007002F0C7F900BFBA
:1031D00080BD000080B500AF024807F0F5F900BFE0
:1031E00080BD00BFE418002080B500AF024808F0A1
:1031F00097F900BF80BD00BFD419002080B500AF93
:10320000024808F08DF900BF80BD00BF181A0020E9
:1032100080B500AF4FF4004002F0A0F900BF80BDC0
:1032200080B500AF024805F0A1FE00BF80BD00BF21
:10323000F817002080B500AF024803F046FC00BF3D
:1032400080BD00BFC028002080B500AF024801F05B
:1032500073F900BF80BD00BF7419002080B400AFB7
:1032600001231846BD465DF8047B704780B582B0E7
:1032700000AF7860396017F091FD034616221A609E
:103280004FF0FF3318460837BD4680BD80B582B089
:1032900000AF78604FF0FF317868FFF7E7FFFEE797
:1032A00080B586B000AFF860B9607A6000237B61BA
:1032B0000AE0AFF300800146BB685A1CBA60CAB28C
:1032C0001A707B6901337B617A697B689A42F0DB13
:1032D0007B6818461837BD4680BD80B586B000AF04
:1032E000F860B9607A6000237B6109E0BB685A1C12
:1032F000BA601B781846AFF300807B6901337B61AD
:103300007A697B689A42F1DB7B6818461837BD46BC
:1033100080BD80B483B000AF78604FF0FF331846B3
:103320000C37BD465DF8047B704780B483B000AFB6
:10333000786039603B684FF400525A6000231846A9
:103340000C37BD465DF8047B704780B483B000AF96
:103350007860012318460C37BD465DF8047B704742
:1033600080B485B000AFF860B9607A600023184679
:103370001437BD465DF8047B7047000080B586B009
:1033800000AF7860144A154BD31A7B617B693B61AF
:10339000134B1B68002B02D1114B124A1A60104BC1
:1033A0001A687B6813443A699A4207D217F0F6FC10
:1033B00003460C221A604FF0FF3309E0084B1B68EC
:1033C000FB60074B1A687B681344054A1360FB686F
:1033D00018461837BD4680BD00800120000400005B
:1033E0005C1A00205836002080B400AF064BD3F89A
:1033F0008830054A43F47003C2F8883000BFBD46E8
:103400005DF8047B704700BF00ED00E0DFF834D0CA
:103410000D480E490E4A002302E0D458C45004332C
:10342000C4188C42F9D30B4A0B4C002301E0136003
:103430000432A242FBD3FFF7D7FF17F023FDFEF7BC
:10344000DBFE7047008001200000002050030020B8
:10345000B01D02085003002054360020FEE7000093
:1034600080B500AF0E4B1B680D4A43F40073136028
:103470000B4B1B680A4A43F480631360084B1B68BC
:10348000074A43F480731360032000F027FE0F20E7
:1034900000F008F8FFF712FB0023184680BD00BFBC
:1034A000003C024080B582B000AF7860124B1A68D1
:1034B000124B1B7819464FF47A73B3FBF1F3B2FB4E
:1034C000F3F3184600F051FE0346002B01D0012310
:1034D0000EE07B680F2B0AD8002279684FF0FF308E
:1034E00000F007FE064A7B681360002300E001231A
:1034F00018460837BD4680BD480000205000002017
:103500004C00002080B400AF064B1B781A46064BD7
:103510001B681344044A136000BFBD465DF8047B7A
:10352000704700BF50000020601A002080B400AF38
:10353000034B1B681846BD465DF8047B704700BF0F
:10354000601A002080B584B000AF7860FFF7EEFF0E
:10355000B8607B68FB60FB68B3F1FF3F05D00A4BA6
:103560001B781A46FB681344FB6000BFFFF7DEFFC1
:103570000246BB68D31AFA689A42F7D800BF00BF68
:103580001037BD4680BD00BF5000002080B400AFA2
:10359000054B1B68044A23F00203136000BFBD46BD
:1035A0005DF8047B704700BF10E000E080B400AF1E
:1035B000054B1B68044A43F00203136000BFBD467D
:1035C0005DF8047B704700BF10E000E080B400AFFE
:1035D000034B1B681846BD465DF8047B704700BF6F
:1035E000107AFF1F80B400AF034B1B681846BD461E
:1035F0005DF8047B704700BF147AFF1F80B400AFF2
:10360000034B1B681846BD465DF8047B704700BF3E
:10361000187AFF1F80B584B000AF78600023FB7379
:103620007B68002B01D1012333E07B681B6C002BEE
:1036300009D17868FFF76AFA7B6800225A647B68D0
:10364000002283F83C207B681B6C03F01003002BE6
:1036500018D17B681B6C23F4885323F0020343F0DA
:1036600002027B681A64786800F0ECFA7B6800223A
:103670005A647B681B6C23F0030343F001027B68F0
:103680001A6401E00123FB737B68002283F83C206D
:10369000FB7B18461037BD4680BD80B584B000AFB7
:1036A00078600023FB737B68002B01D1012322E0AB
:1036B0007B681B6C43F002027B681A647B681B68A2
:1036C0009A687B681B6822F001029A607B681B681D
:1036D0009B6803F00103002B08D17868FFF75AFAC2
:1036E0007B6800225A647B6800221A647B6800228F
:1036F00083F83C20FB7B18461037BD4680BD000098
:1037000080B485B000AF78600023BB607B6893F81D
:103710003C30012B01D1022397E07B68012283F822
:103720003C207B681B689B6803F00103012B18D0C9
:103730007B681B689A687B681B6842F001029A608C
:10374000454B1B68454AA2FB03239A0C13465B00BA
:103750001344BB6002E0BB68013BBB60BB68002B4D
:10376000F9D17B681B689B6803F00103012B5FD1D3
:103770007B681B6C23F4E06323F0010343F4807245
:103780007B681A647B681B685B6803F48063002BAA
:1037900007D07B681B6C23F4405343F480527B6852
:1037A0001A647B681B6C03F48053B3F5805F06D109
:1037B0007B685B6C23F006027B685A6402E07B68DE
:1037C00000225A647B68002283F83C20244BFB6073
:1037D0007B681B686FF022021A60FB685B6803F06D
:1037E0001F03002B0FD17B681B689B6803F04053BD
:1037F000002B29D17B681B689A687B681B6842F0A4
:1038000080429A6020E07B681B68164A93421BD175
:103810007B681B689B6803F04053002B14D17B68C6
:103820001B689A687B681B6842F080429A600BE0D4
:103830007B681B6C43F010027B681A647B685B6CCE
:1038400043F001027B685A64002318461437BD46D2
:103850005DF8047B704700BF4800002083DE1B43F7
:10386000002301400020014080B483B000AF7860A5
:103870007B6893F83C30012B01D1022321E07B6867
:10388000012283F83C207B681B689A687B681B6870
:1038900022F001029A607B681B689B6803F00103B9
:1038A000002B09D17B681B6C23F4885323F00103A0
:1038B00043F001027B681A647B68002283F83C2095
:1038C000002318460C37BD465DF8047B704780B571
:1038D00084B000AF786039600023FB607B681B68B0
:1038E0009B6803F48063B3F5806F13D17B681B681A
:1038F0009B6803F48073B3F5807F0BD17B681B6CEE
:1039000043F020027B681A647B68002283F83C2025
:10391000012363E0FFF70AFEF86021E03B68B3F1A2
:10392000FF3F1DD03B68002B07D0FFF7FFFD02468D
:10393000FB68D31A3A689A4212D27B681B681B68EC
:1039400003F00203022B0BD07B681B6C43F00402D4
:103950007B681A647B68002283F83C2003233DE0E7
:103960007B681B681B6803F00203022BD6D17B68BF
:103970001B686FF012021A607B681B6C43F40072C4
:103980007B681A647B681B689B6803F04053002BBC
:1039900023D17B681B7E002B1FD17B681B68DB6AF1
:1039A00003F47003002B06D07B681B689B6803F44C
:1039B0008063002B11D17B681B6C23F480727B68C1
:1039C0001A647B681B6C03F48053002B05D17B6861
:1039D0001B6C43F001027B681A6400231846103701
:1039E000BD4680BD80B483B000AF78607B681B6843
:1039F000DB6C18460C37BD465DF8047B7047000051
:103A000080B485B000AF786039600023BB607B680C
:103A100093F83C30012B01D1022305E17B680122A0
:103A200083F83C203B681B68092B25D97B681B6801
:103A3000D9683B681B689BB21A4613465B00134467
:103A40001E3B072202FA03F3DA437B681B680A4035
:103A5000DA607B681B68D9683B689A683B681B68BA
:103A60009BB2184603465B0003441E3B9A407B68AA
:103A70001B680A43DA6022E07B681B6819693B68AF
:103A80001B689BB21A4613465B001344072202FAD6
:103A900003F3DA437B681B680A401A617B681B6882
:103AA00019693B689A683B681B689BB218460346D5
:103AB0005B0003449A407B681B680A431A613B68B9
:103AC0005B68062B24D87B681B68596B3B685A6877
:103AD00013469B001344053B1F2202FA03F3DA430B
:103AE0007B681B680A405A637B681B68596B3B689C
:103AF0001B689BB218463B685A6813469B001344E8
:103B0000053B00FA03F27B681B680A435A634CE0EA
:103B10003B685B680C2B24D87B681B68196B3B687F
:103B20005A6813469B001344233B1F2202FA03F3F7
:103B3000DA437B681B680A401A637B681B68196B51
:103B40003B681B689BB218463B685A6813469B004B
:103B50001344233B00FA03F27B681B680A431A6391
:103B600023E07B681B68D96A3B685A6813469B0050
:103B70001344413B1F2202FA03F3DA437B681B68BC
:103B80000A40DA627B681B68D96A3B681B689BB293
:103B900018463B685A6813469B001344413B00FAA1
:103BA00003F27B681B680A43DA62224BFB607B6886
:103BB0001B68214A934209D13B681B68122B05D12F
:103BC000FB685B6843F48002FB685A607B681B6893
:103BD000194A934223D13B681B68102B03D03B68E2
:103BE0001B68112B1BD1FB685B6843F40002FB6868
:103BF0005A603B681B68102B11D1104B1B68104A90
:103C0000A2FB03239A0C13469B0013445B00BB608A
:103C100002E0BB68013BBB60BB68002BF9D17B684D
:103C2000002283F83C20002318461437BD465DF877
:103C3000047B704700230140002001404800002021
:103C400083DE1B4380B485B000AF7860794BFB60A6
:103C5000FB685B6823F44032FB685A60FB685A6873
:103C60007B685B681A43FB685A607B681B685A680C
:103C70007B681B6822F480725A607B681B685968F5
:103C80007B681B691A027B681B680A435A607B6861
:103C90001B685A687B681B6822F040725A607B6818
:103CA0001B6859687B689A687B681B680A435A607E
:103CB0007B681B689A687B681B6822F400629A60C4
:103CC0007B681B6899687B68DA687B681B680A43B5
:103CD0009A607B689B6A584A934222D07B681B6833
:103CE0009A687B681B6822F070629A607B681B6828
:103CF00099687B689A6A7B681B680A439A607B684C
:103D00001B689A687B681B6822F040529A607B6847
:103D10001B6899687B68DA6A7B681B680A439A604B
:103D20000FE07B681B689A687B681B6822F07062F2
:103D30009A607B681B689A687B681B6822F0405217
:103D40009A607B681B689A687B681B6822F0020295
:103D50009A607B681B6899687B681B7E5A007B6849
:103D60001B680A439A607B6893F82030002B1BD0B5
:103D70007B681B685A687B681B6842F400625A6063
:103D80007B681B685A687B681B6822F460425A6033
:103D90007B681B6859687B685B6A013B5A037B68D8
:103DA0001B680A435A6007E07B681B685A687B6897
:103DB0001B6822F400625A607B681B68DA6A7B68C1
:103DC0001B6822F47002DA627B681B68D96A7B6820
:103DD000DB69013B1A057B681B680A43DA627B6872
:103DE0001B689A687B681B6822F400729A607B6883
:103DF0001B6899687B6893F830305A027B681B68AF
:103E00000A439A607B681B689A687B681B6822F487
:103E100080629A607B681B6899687B685B699A021C
:103E20007B681B680A439A6000BF1437BD465DF883
:103E3000047B7047002301400100000F80B485B06F
:103E400000AF786039607B6893F83C30012B01D17A
:103E5000022331E07B68012283F83C20194BFB6090
:103E6000FB685B6823F01F02FB685A60FB685A68B6
:103E70003B681B681A43FB685A60FB685B6823F465
:103E80004042FB685A60FB685A683B685B681A43AB
:103E9000FB685A60FB685B6823F47062FB685A60D9
:103EA000FB685A683B689B681A43FB685A607B68EA
:103EB000002283F83C20002318461437BD465DF8E5
:103EC000047B70470023014080B485B000AF786068
:103ED0007B6803F00703FB600C4BDB68BB60BA68D0
:103EE0004FF6FF031340BB60FB681A02BB68134325
:103EF00043F0BF6343F40033BB60044ABB68D36044
:103F000000BF1437BD465DF8047B704700ED00E04C
:103F100080B400AF044BDB681B0A03F007031846AC
:103F2000BD465DF8047B704700ED00E080B483B0CF
:103F300000AF0346FB7197F90730002B0BDBFB79D1
:103F400003F01F02074997F907305B09012000FAC7
:103F500002F241F8232000BF0C37BD465DF8047B18
:103F6000704700BF00E100E080B483B000AF0346BB
:103F7000FB7197F90730002B12DBFB7903F01F026E
:103F80000A4997F907305B09012000FA02F2203351
:103F900041F82320BFF34F8F00BFBFF36F8F00BFE7
:103FA00000BF0C37BD465DF8047B704700E100E0C0
:103FB00080B483B000AF03463960FB7197F90730D6
:103FC000002B0ADB3B68DAB20C4997F90730120183
:103FD000D2B20B4483F800230AE03B68DAB2084906
:103FE000FB7903F00F03043B1201D2B20B441A76A3
:103FF00000BF0C37BD465DF8047B704700E100E070
:1040000000ED00E080B489B000AFF860B9607A607C
:10401000FB6803F00703FB61FB69C3F10703042B93
:1040200028BF0423BB61FB690433062B02D9FB695B
:10403000033B00E000237B614FF0FF32BB6902FAD3
:1040400003F3DA43BB681A407B699A404FF0FF31B3
:104050007B6901FA03F3D9437B680B40134318468D
:104060002437BD465DF8047B7047000080B400AF84
:10407000BFF34F8F00BF064BDB6803F4E0620449D7
:10408000044B1343CB60BFF34F8F00BF00BFFDE76E
:1040900000ED00E00400FA0580B582B000AF786062
:1040A0007B68013BB3F1807F01D301230FE00A4A13
:1040B0007B68013B53600F214FF0FF30FFF778FF23
:1040C000054B00229A60044B07221A600023184611
:1040D0000837BD4680BD00BF10E000E080B582B06B
:1040E00000AF78607868FFF7EFFE00BF0837BD4685
:1040F00080BD80B586B000AF0346B9607A60FB73BF
:1041000000237B61FFF704FF78617A68B9687869FA
:10411000FFF778FF024697F90F3011461846FFF770
:1041200047FF00BF1837BD4680BD80B582B000AFE5
:104130000346FB7197F907301846FFF7F7FE00BFFB
:104140000837BD4680BD80B582B000AF0346FB7125
:1041500097F907301846FFF707FF00BF0837BD463D
:1041600080BD80B500AFFFF781FF80B582B000AFA2
:1041700078607868FFF790FF034618460837BD4619
:1041800080BD000080B586B000AF786000237B6101
:10419000FFF7CCF938617B68002B01D1012399E04E
:1041A0007B68022283F835207B68002283F8342064
:1041B0007B681B681A687B681B6822F001021A6022
:1041C0000FE0FFF7B3F902463B69D31A052B08D974
:1041D0007B6820225A657B68032283F835200323FD
:1041E00078E07B681B681B6803F00103002BE8D1B3
:1041F0007B681B681B687B617A69384B13407B6165
:104200007B685A687B689B681A437B68DB681A4343
:104210007B681B691A437B685B691A437B689B69EF
:104220001A437B68DB691A437B681B6A13437A690C
:1042300013437B617B685B6A042B07D17B68DA6A76
:104240007B681B6B13437A6913437B617B681B6834
:104250007A691A607B681B685B697B617B6923F004
:1042600007037B617B685B6A7A6913437B617B68C8
:104270005B6A042B17D17B689B6A7A6913437B6165
:104280007B68DB6A002B0ED0786800F043FB0346A6
:10429000002B08D07B6840225A657B68012283F896
:1042A0003520012316E07B681B687A695A617868BB
:1042B00000F0FAFA0346FB607B68DB6D3F229A4010
:1042C000FB689A607B6800225A657B68012283F84C
:1042D0003520002318461837BD4680BD3F8010F0BA
:1042E00080B584B000AF78607B68002B01D10123DA
:1042F00050E07B6893F83530DBB2022B01D102230A
:1043000048E07B681B681A687B681B6822F0010222
:104310001A607B681B6800221A607B681B68002299
:104320005A607B681B6800229A607B681B680022C9
:10433000DA607B681B6800221A617B681B68212297
:104340005A61786800F0B0FA0346FB607B6800228F
:10435000DA637B6800221A647B6800225A647B68F7
:1043600000229A647B680022DA647B6800221A6566
:104370007B68DB6D3F229A40FB689A607B68002275
:104380005A657B68002283F835207B68002283F819
:104390003420002318461037BD4680BD80B586B056
:1043A00000AFF860B9607A603B600023FB75FB6882
:1043B00093F83430012B01D1022326E0FB6801225F
:1043C00083F83420FB6893F83530DBB2012B15D12C
:1043D000FB68022283F83520FB6800225A653B689F
:1043E0007A68B968F86800F031FAFB681B681A68E7
:1043F000FB681B6842F001021A6005E0FB680022BE
:1044000083F834200223FB75FB7D18461837BD4620
:1044100080BD80B584B000AF78607B689B6DFB6029
:10442000FFF784F8B8607B6893F83530DBB2022B75
:1044300008D07B6880225A657B68002283F834208C
:10444000012352E07B681B681A687B681B6822F0B6
:1044500016021A607B681B685A697B681B6822F029
:1044600080025A617B681B6C002B03D17B689B6CBC
:10447000002B07D07B681B681A687B681B6822F0DA
:1044800008021A607B681B681A687B681B6822F048
:1044900001021A6013E0FFF749F80246BB68D31A1D
:1044A000052B0CD97B6820225A657B68032283F890
:1044B00035207B68002283F83420032315E07B68D5
:1044C0001B681B6803F00103002BE4D17B68DB6DE4
:1044D0003F229A40FB689A607B68012283F835206E
:1044E0007B68002283F83420002318461037BD462D
:1044F00080BD80B483B000AF78607B6893F83530BE
:10450000DBB2022B04D07B6880225A6501230CE0C9
:104510007B68052283F835207B681B681A687B68F6
:104520001B6822F001021A60002318460C37BD46B2
:104530005DF8047B7047000080B586B000AF7860FE
:104540000023BB608E4B1B688E4AA2FB03239B0A91
:104550007B617B689B6D3B613B691B68FB607B6893
:10456000DB6D08229A40FB681340002B1AD07B6851
:104570001B681B6803F00403002B13D07B681B68C7
:104580001A687B681B6822F004021A607B68DB6D86
:1045900008229A403B699A607B685B6D43F0010298
:1045A0007B685A657B68DB6D01229A40FB6813408B
:1045B000002B12D07B681B685B6903F08003002B23
:1045C0000BD07B68DB6D01229A403B699A607B6867
:1045D0005B6D43F002027B685A657B68DB6D0422E9
:1045E0009A40FB681340002B12D07B681B681B6845
:1045F00003F00203002B0BD07B68DB6D04229A4092
:104600003B699A607B685B6D43F004027B685A6586
:104610007B68DB6D10229A40FB681340002B43D06F
:104620007B681B681B6803F00803002B3CD07B6889
:10463000DB6D10229A403B699A607B681B681B689F
:1046400003F48023002B18D07B681B681B6803F4DD
:104650000023002B08D17B681B6C002B24D07B68C7
:104660001B6C786898471FE07B689B6C002B1BD005
:104670007B689B6C7868984716E07B681B681B68B2
:1046800003F48073002B07D17B681B681A687B6872
:104690001B6822F008021A607B681B6C002B03D099
:1046A0007B681B6C786898477B68DB6D20229A409A
:1046B000FB681340002B00F08F807B681B681B6831
:1046C00003F01003002B00F087807B68DB6D202255
:1046D0009A403B699A607B6893F83530DBB2052BD2
:1046E00036D17B681B681A687B681B6822F016024B
:1046F0001A607B681B685A697B681B6822F080021D
:104700005A617B681B6C002B03D17B689B6C002B70
:1047100007D07B681B681A687B681B6822F0080258
:104720001A607B68DB6D3F229A403B699A607B6828
:10473000012283F835207B68002283F834207B68CF
:104740001B6D002B7ED07B681B6D7868984779E0E5
:104750007B681B681B6803F48023002B1DD07B68DB
:104760001B681B6803F40023002B0DD17B685B6C76
:10477000002B31D07B685B6C786898472CE000BFD9
:1047800048000020B5814E1B7B68DB6B002B23D0DB
:104790007B68DB6B786898471EE07B681B681B684A
:1047A00003F48073002B0FD17B681B681A687B6849
:1047B0001B6822F010021A607B68012283F8352002
:1047C0007B68002283F834207B68DB6B002B03D0EE
:1047D0007B68DB6B786898477B685B6D002B32D019
:1047E0007B685B6D03F00103002B22D07B68052200
:1047F00083F835207B681B681A687B681B6822F089
:1048000001021A60BB680133BB607A699A4207D320
:104810007B681B681B6803F00103002BF2D100E0EA
:1048200000BF7B68012283F835207B68002283F873
:1048300034207B68DB6C002B05D07B68DB6C7868F0
:10484000984700E000BF1837BD4680BD80B485B0F2
:1048500000AFF860B9607A603B60FB681B681A685B
:10486000FB681B6822F480221A60FB681B683A68A8
:104870005A60FB689B68402B08D1FB681B687A680C
:104880009A60FB681B68BA68DA6007E0FB681B681F
:10489000BA689A60FB681B687A68DA6000BF1437F0
:1048A000BD465DF8047B704780B485B000AF78608A
:1048B0007B681B68DBB2103B144AA2FB03231B0975
:1048C000FB60134AFB6813441B781A467B68DA6561
:1048D000FB68032B09D97B681B6823F47F7323F0E3
:1048E00003031A1D7B689A6507E07B681B6823F445
:1048F0007F7323F003037A6893657B689B6D18468A
:104900001437BD465DF8047B704700BFABAAAAAA66
:104910000814020880B485B000AF78600023FB73F0
:104920007B689B6ABB607B689B69002B1FD1BB685F
:10493000032B56D801A252F823F000BF4D490008BE
:104940005F4900084D490008E34900087B68DB6ABD
:1049500003F08073002B46D00123FB7343E07B6898
:10496000DB6AB3F1C07F40D10123FB733DE07B687C
:104970009B69B3F5005F21D1BB68032B37D801A237
:1049800052F823F0954900089B4900089549000812
:10499000AD4900080123FB7330E07B68DB6A03F05C
:1049A0008073002B25D00123FB7322E07B68DB6A38
:1049B000B3F1C07F1FD10123FB731CE0BB68022B46
:1049C00003D9BB68032B03D018E00123FB7315E068
:1049D0007B68DB6A03F08073002B0ED00123FB732E
:1049E0000BE000BF0AE000BF08E000BF06E000BF28
:1049F00004E000BF02E000BF00E000BFFB7B184600
:104A00001437BD465DF8047B704700BF80B586B0A3
:104A100000AFF860B960C7E900230123FB75234BA1
:104A20001B7E012B01D102233BE0204B01221A7691
:104A30004CF2503000F07CF80346FB75FB7D002BF8
:104A40002BD1FB68002B05D13B781946B86800F0E4
:104A500027F916E0FB68012B05D13B881946B86899
:104A600000F0FAF80DE0FB68022B05D13B6819460F
:104A7000B86800F0CFF804E0D7E90023B86800F088
:104A800097F84CF2503000F053F80346FB75084B92
:104A90001B69074A23F001031361044B00221A76B5
:104AA000FB7D18461837BD4680BD00BF641A002044
:104AB000003C024080B483B000AF0023FB710B4B7D
:104AC0001B69002B0BDA094B094A5A60074B094A4C
:104AD0005A60064B1B69002B01DA0123FB71FB793D
:104AE00018460C37BD465DF8047B7047003C024019
:104AF00023016745AB89EFCD80B400AF054B1B693F
:104B0000044A43F00043136100231846BD465DF894
:104B1000047B7047003C024080B400AF034BDB696C
:104B20001846BD465DF8047B704700BF641A00203C
:104B300080B584B000AF78600023FB601A4B002280
:104B4000DA61FEF7F3FCF86010E07B68B3F1FF3F39
:104B50000CD07B68002B07D0FEF7E8FC0246FB6810
:104B6000D31A7A689A4201D2032319E00F4BDB680B
:104B700003F48033002BE8D10C4BDB6803F0010316
:104B8000002B02D0094B0122DA60084BDB6803F4EA
:104B9000F973002B03D000F0A5F8012300E00023F7
:104BA00018461037BD4680BD641A0020003C024004
:104BB00080B485B000AFF860C7E90023144B1B69CF
:104BC000134A23F440731361114B1B69104A43F4D9
:104BD000407313610E4B1B690D4A43F001031361CF
:104BE000FB683A681A60BFF36F8F00BFD7E9000116
:104BF0004FF000024FF000030A000023F96804316F
:104C000013460B6000BF1437BD465DF8047B704748
:104C1000003C024080B483B000AF786039600D4B37
:104C20001B690C4A23F4407313610A4B1B69094A40
:104C300043F400731361074B1B69064A43F00103F9
:104C400013617B683A681A6000BF0C37BD465DF897
:104C5000047B7047003C024080B483B000AF7860B2
:104C60000B467B800D4B1B690C4A23F44073136188
:104C70000A4B1B69094A43F480731361074B1B6994
:104C8000064A43F0010313617B687A881A8000BFEB
:104C90000C37BD465DF8047B704700BF003C024006
:104CA00080B483B000AF78600B46FB700C4B1B697F
:104CB0000B4A23F440731361094B094A1B691361C2
:104CC000074B1B69064A43F0010313617B68FA78BE
:104CD0001A7000BF0C37BD465DF8047B704700BFFB
:104CE000003C024080B400AF2F4BDB6803F01003A0
:104CF000002B08D02D4BDB6943F010032B4AD36106
:104D0000294B1022DA60284BDB6803F02003002BCC
:104D100008D0264BDB6943F00803244AD361224BB9
:104D20002022DA60204BDB6803F04003002B08D020
:104D30001E4BDB6943F004031C4AD3611A4B40222B
:104D4000DA60194BDB6803F08003002B08D0174BA7
:104D5000DB6943F00203154AD361134B8022DA600A
:104D6000114BDB6803F48073002B09D00F4BDB6918
:104D700043F001030D4AD3610B4B4FF48072DA60AC
:104D8000094BDB6803F00203002B08D0074BDB69FB
:104D900043F02003054AD361034B0222DA6000BFCF
:104DA000BD465DF8047B7047003C0240641A002059
:104DB00080B584B000AF786039600123FB730023B5
:104DC000BB60314B1B7E012B01D1022358E02E4BDF
:104DD00001221A764CF25030FFF7AAFE0346FB730D
:104DE000FB7B002B48D13B684FF0FF321A607B6899
:104DF0001B68012B15D17B681B69DAB27B685B6885
:104E00001946104600F044F84CF25030FFF790FE7F
:104E10000346FB731D4B1B691C4A23F004031361FB
:104E200028E07B689B68BB601CE07B681B69DBB289
:104E30001946B86800F050F84CF25030FFF778FE91
:104E40000346FB73114B1B69104A23F0FA031361ED
:104E5000FB7B002B03D03B68BA681A600AE0BB6892
:104E60000133BB607B68DA687B689B681344BA686F
:104E70009A42DAD300F078F8034B00221A76FB7BD3
:104E800018461037BD4680BD641A0020003C024021
:104E900080B483B000AF03463960FB710D4B1B69D2
:104EA0000C4A23F4407313610A4B1B69094A43F00F
:104EB00004031361074B1A69FB791B021343054A6C
:104EC00043F48033136100BF0C37BD465DF8047BAB
:104ED000704700BF003C024080B485B000AF7860EE
:104EE0000B46FB700023FB60FB78002B02D10023F4
:104EF000FB6010E0FB78012B03D14FF48073FB6063
:104F000009E0FB78022B03D14FF40073FB6002E051
:104F10004FF44073FB60134B1B69124A23F4407338
:104F20001361104B1A690F49FB6813430B610D4B5A
:104F30001B690C4A23F0F80313610A4B1A697B685A
:104F4000DB001343074A43F002031361054B1B695F
:104F5000044A43F48033136100BF1437BD465DF843
:104F6000047B7047003C024080B400AF204B1B68BC
:104F700003F40073002B17D01D4B1B681C4A23F44D
:104F8000007313601A4B1B68194A43F400631360E3
:104F9000174B1B68164A23F400631360144B1B68FD
:104FA000134A43F400731360114B1B6803F48063CE
:104FB000002B17D00E4B1B680D4A23F4806313603F
:104FC0000B4B1B680A4A43F480531360084B1B6861
:104FD000074A23F480531360054B1B68044A43F4CB
:104FE0008063136000BFBD465DF8047B704700BF5F
:104FF000003C024080B489B000AF78603960002383
:105000007B6100233B610023BB610023FB6159E10D
:105010000122FB6902FA03F37B613B681B687A6932
:1050200013403B613A697B699A4240F048813B6892
:105030005B6803F00303012B05D03B685B6803F05A
:105040000303022B30D17B689B68BB61FB695B006B
:10505000032202FA03F3DB43BA691340BB613B68E6
:10506000DA68FB695B0002FA03F3BA691343BB61B8
:105070007B68BA699A607B685B68BB610122FB69E7
:1050800002FA03F3DB43BA691340BB613B685B6818
:105090001B0903F00102FB6902FA03F3BA69134327
:1050A000BB617B68BA695A603B685B6803F00303C5
:1050B000032B17D07B68DB68BB61FB695B000322B5
:1050C00002FA03F3DB43BA691340BB613B689A6899
:1050D000FB695B0002FA03F3BA691343BB617B68A7
:1050E000BA69DA603B685B6803F00303022B23D1E3
:1050F000FB69DA087B68083253F82230BB61FB6930
:1051000003F007039B000F2202FA03F3DB43BA69A3
:105110001340BB613B681A69FB6903F007039B00FE
:1051200002FA03F3BA691343BB61FB69DA087B68CF
:105130000832B96943F822107B681B68BB61FB69C0
:105140005B00032202FA03F3DB43BA691340BB613D
:105150003B685B6803F00302FB695B0002FA03F340
:10516000BA691343BB617B68BA691A603B685B68C4
:1051700003F44033002B00F0A2800023FB60574B68
:105180005B6C564A43F480435364544B5B6C03F4AA
:105190008043FB60FB68524AFB699B08023352F86C
:1051A0002330BB61FB6903F003039B000F2202FA6B
:1051B00003F3DB43BA691340BB617B68494A9342FE
:1051C00019D07B68484A934213D07B68474A934280
:1051D0000DD07B68464A934207D07B68454A93428C
:1051E00001D1042308E0072306E0032304E002239F
:1051F00002E0012300E00023FA6902F003029200BA
:105200009340BA691343BB613549FB699B0802337C
:10521000BA6941F82320384B9B68BB613B69DB438B
:10522000BA691340BB613B685B6803F48013002BD1
:1052300003D0BA693B691343BB612F4ABB699360D2
:105240002D4BDB68BB613B69DB43BA691340BB6133
:105250003B685B6803F40013002B03D0BA693B6919
:105260001343BB61244ABB69D360234B5B68BB61BA
:105270003B69DB43BA691340BB613B685B6803F47D
:105280000033002B03D0BA693B691343BB611A4A50
:10529000BB695360184B1B68BB613B69DB43BA6950
:1052A0001340BB613B685B6803F48033002B03D081
:1052B000BA693B691343BB610F4ABB691360FB6961
:1052C0000133FB61FB690F2B7FF6A2AE00BF00BF6D
:1052D0002437BD465DF8047B704700BF00380240AC
:1052E0000038014000000240000402400008024073
:1052F000000C024000100240003C014080B487B026
:1053000000AF7860396000233B610023FB6000231D
:10531000BB6000237B61BBE001227B6902FA03F3DF
:105320003B613A683B691340FB60FA683B699A420B
:1053300040F0AB805C4A7B699B08023352F8233013
:10534000BB607B6903F003039B000F2202FA03F3A7
:10535000BA681340BB607B68544A934219D07B689B
:10536000534A934213D07B68524A93420DD07B68D4
:10537000514A934207D07B68504A934201D104239B
:1053800008E0072306E0032304E0022302E00123F0
:1053900000E000237A6902F0030292009340BA68A9
:1053A0009A4232D1464B1A68FB68DB4344491340AA
:1053B0000B60434B5A68FB68DB43414913404B6029
:1053C0003F4BDA68FB68DB433D491340CB603C4B05
:1053D0009A68FB68DB433A4913408B607B6903F0B2
:1053E00003039B000F2202FA03F3BB602E4A7B6982
:1053F0009B08023352F82310BB68DA432A487B69C2
:105400009B080A40023340F823207B681A687B69B6
:105410005B00032101FA03F3DB431A407B681A6047
:105420007B69DA087B68083253F822107B6903F045
:1054300007039B000F2202FA03F3DB437A69D208C9
:1054400019407B68083243F822107B68DA687B6970
:105450005B00032101FA03F3DB431A407B68DA6047
:105460007B685A6801217B6901FA03F3DB431A4028
:105470007B685A607B689A687B695B00032101FA4C
:1054800003F3DB431A407B689A607B6901337B61DD
:105490007B690F2B7FF640AF00BF00BF1C37BD46B6
:1054A0005DF8047B704700BF0038014000000240F7
:1054B0000004024000080240000C024000100240BC
:1054C000003C014080B485B000AF78600B467B8023
:1054D0007B681A697B881340002B02D00123FB7381
:1054E00001E00023FB73FB7B18461437BD465DF8D3
:1054F000047B704780B483B000AF78600B467B803C
:1055000013467B707B78002B03D07A887B689A6186
:1055100003E07B881A047B689A6100BF0C37BD46A4
:105520005DF8047B704780B485B000AF78600B46AF
:105530007B807B685B69FB607A88FB6813401A0498
:10554000FB68D9437B880B401A437B689A6100BF94
:105550001437BD465DF8047B7047000080B582B00B
:1055600000AF0346FB80084B5A69FB881340002BB1
:1055700006D0054AFB885361FB881846FDF72EFAD2
:1055800000BF0837BD4680BD003C014080B584B0F7
:1055900000AF78607B68002B01D101232BE17B6891
:1055A00093F83D30DBB2002B06D17B68002283F8F4
:1055B0003C207868FDF70CFB7B68242283F83D20B3
:1055C0007B681B681A687B681B6822F001021A60FE
:1055D0007B681B681A687B681B6842F400421A608B
:1055E0007B681B681A687B681B6822F400421A609B
:1055F00003F022F8F8607B685B68814A934207D821
:10560000FB68804A934294BF01230023DBB206E08B
:10561000FB687D4A934294BF01230023DBB2002B39
:1056200001D00123E7E0FB68784AA2FB03239B0C2F
:10563000BB607B681B685B6823F03F017B681B686D
:10564000BA680A435A607B681B681B6A23F03F01F3
:105650007B685B686A4A934202D8BB68013309E001
:10566000BB684FF4967202FB03F3694AA2FB032363
:105670009B0901337A6812680B4313627B681B68CD
:10568000DB6923F44F4222F0FF027B685B685C49D0
:105690008B4219D8FB68591E7B685B685B00B1FBC5
:1056A000F3F3591C40F6FC730B40002B0AD0FB6847
:1056B000591E7B685B685B00B1FBF3F30133C3F3F6
:1056C0000B0351E004234FE07B689B68002B11D152
:1056D000FB68581E7B6859680B465B000B44B0FBA7
:1056E000F3F30133C3F30B03002B0CBF012300239F
:1056F000DBB212E0FB68581E7B6859680B469B00C2
:105700000B4499000B44B0FBF3F30133C3F30B03D9
:10571000002B0CBF01230023DBB2002B01D001239F
:1057200022E07B689B68002B0ED1FB68581E7B68CB
:1057300059680B465B000B44B0FBF3F30133C3F332
:105740000B0343F400430FE0FB68581E7B68596865
:105750000B469B000B4499000B44B0FBF3F3013361
:10576000C3F30B0343F44043796809681343CB61E7
:105770007B681B681B6823F0C0017B68DA697B6863
:105780001B6A1A437B681B680A431A607B681B68A4
:105790009B6823F4034323F0FF037A6811697A6856
:1057A000D26811437A6812680B4393607B681B6868
:1057B000DB6823F0FF017B685A697B689B691A43A9
:1057C0007B681B680A43DA607B681B681A687B6821
:1057D0001B6842F001021A607B6800221A647B6831
:1057E000202283F83D207B6800221A637B68002218
:1057F00083F83E20002318461037BD4680BD00BF09
:10580000A08601007F841E00FF083D0083DE1B434D
:10581000D34D621080B582B000AF78607B68002BFA
:1058200001D1012321E07B68242283F83D207B689D
:105830001B681A687B681B6822F001021A6078688E
:10584000FDF70EFA7B6800221A647B68002283F859
:105850003D207B6800221A637B68002283F83E208B
:105860007B68002283F83C20002318460837BD4699
:1058700080BD000080B588B002AFF8607A601A463B
:105880000B467B8113463B81FDF750FE7861FB6838
:1058900093F83D30DBB2202B40F0E0807B69009331
:1058A000192301227049F86800F086FD0346002B99
:1058B00001D00223D3E0FB6893F83C30012B01D1E7
:1058C0000223CCE0FB68012283F83C20FB681B68C4
:1058D0001B6803F00103012B07D0FB681B681A68E3
:1058E000FB681B6842F001021A60FB681B681A68BB
:1058F000FB681B6822F400621A60FB68212283F8AF
:105900003D20FB68102283F83E20FB6800221A64C9
:10591000FB687A685A62FB683A895A85FB685B8D36
:105920009AB2FB681A85FB68504ADA6279897B690A
:105930003A6AF86800F0F0FB0346002B01D001231F
:105940008DE000233B61FB681B685B693B61FB6882
:105950001B689B693B613B6966E07A69396AF86854
:1059600000F000FE0346002B0DD0FB681B6C042BDF
:1059700007D1FB681B681A68FB681B6842F4007259
:105980001A6001236BE0FB685B6A1A78FB681B688E
:105990001A61FB685B6A5A1CFB685A62FB685B8D84
:1059A0009BB2013B9AB2FB685A85FB681B8D013B99
:1059B0009AB2FB681A85FB681B685B6903F00403F5
:1059C000042B1BD1FB681B8D002B17D0FB685B6A77
:1059D0001A78FB681B681A61FB685B6A5A1CFB68D3
:1059E0005A62FB685B8D9BB2013B9AB2FB685A8599
:1059F000FB681B8D013B9AB2FB681A857A69396A8C
:105A0000F86800F0F0FD0346002B0DD0FB681B6C1E
:105A1000042B07D1FB681B681A68FB681B6842F4FB
:105A200000721A6001231AE0FB681B8D002B94D1D1
:105A3000FB681B681A68FB681B6842F400721A60F6
:105A4000FB68202283F83D20FB68002283F83E207B
:105A5000FB68002283F83C20002300E00223184664
:105A60001837BD4680BD00BF020010000000FFFFD8
:105A700080B58CB002AFF8607A601A460B467B8125
:105A800013463B81FDF752FD7862FB6893F83D3089
:105A9000DBB2202B40F00B827B6A0093192301229A
:105AA0007C49F86800F088FC0346002B01D00223F3
:105AB000FEE1FB6893F83C30012B01D10223F7E1B2
:105AC000FB68012283F83C20FB681B681B6803F01D
:105AD0000103012B07D0FB681B681A68FB681B6871
