:020000040800F2
:100000000080012029400008693D0008753D000876
:10001000813D00088D3D0008993D0008000000006A
:10002000000000000000000000000000A53D0008E6
:10003000B13D000800000000BD3D0008C93D0008BA
:1000400079400008794000087940000879400008AC
:10005000794000087940000879400008794000089C
:10006000794000087940000879400008794000088C
:10007000794000087940000879400008794000087C
:10008000794000087940000879400008000000002D
:10009000000000000000000000000000E13D00083A
:1000A000794000087940000879400008794000084C
:1000B000F13D0008794000087940000879400008C7
:1000C000794000087940000879400008794000082C
:1000D00079400008053E0008193E000800000000B5
:1000E0002D3E00083D3E0008794000080000000059
:1000F000000000000000000000000000794000083F
:1001000000000000794000087940000879400008AC
:1001100000000000000000000000000000000000DF
:1001200079400008794000087940000879400008CB
:1001300079400008000000000000000000000000FE
:10014000000000000000000000000000513E000818
:10015000653E0008794000087940000879400008B1
:10016000794000087940000800000000000000000D
:10017000000000000000000000000000000000007F
:1001800000000000794000080000000000000000AE
:0401900079400008AA
:1001A00010B5054C237833B9044B13B10448AFF3B1
:1001B00000800123237010BD040300200000000014
:1001C000D822020808B5034B1BB103490348AFF31B
:1001D000008008BD0000000008030020D8220208AB
:1001E00010F8012B11F8013B012A28BF9A42F7D0E1
:1001F000D01A70470000000000000000000000005E
:1002000001F0FF01102A2BDB10F0070F08D010F8C7
:10021000013B013A8B422DD010F0070F42B3F6D1CB
:10022000F0B441EA012141EA014122F007047FF0E4
:1002300000070023F0E80256083C85EA010586EA3B
:10024000010685FA47F5A3FA87F586FA47F6A5FA77
:1002500087F68EB9EED1F0BC01F0FF0102F0070283
:1002600032B110F8013B013A83EA010313B1F8D12E
:100270000020704701387047002D06BF354603380F
:10028000073815F0010F07D1013015F4807F02BF48
:10029000013015F4C03F0130F0BC0138704700BF99
:1002A000034613F8012B002AFBD1181A01387047B6
:1002B00081F0004102E000BF83F0004330B54FEA17
:1002C00041044FEA430594EA050F08BF90EA020F84
:1002D0001FBF54EA000C55EA020C7FEA645C7FEA17
:1002E000655C00F0E2804FEA5454D4EB5555B8BF3A
:1002F0006D420CDD2C4480EA020281EA030382EAAB
:10030000000083EA010180EA020281EA0303362D3C
:1003100088BF30BD11F0004F4FEA01314FF4801C0F
:100320004CEA113102D0404261EB410113F0004F21
:100330004FEA03334CEA133302D0524263EB4303D8
:1003400094EA050F00F0A780A4F10104D5F1200E76
:100350000DDB02FA0EFC22FA05F2801841F10001D1
:1003600003FA0EF2801843FA05F359410EE0A5F1A5
:1003700020050EF1200E012A03FA0EFC28BF4CF0D6
:10038000020C43FA05F3C01851EBE37101F000458C
:1003900007D54FF0000EDCF1000C7EEB00006EEB99
:1003A0000101B1F5801F1BD3B1F5001F0CD3490823
:1003B0005FEA30004FEA3C0C04F101044FEA44527A
:1003C00012F5800F80F09A80BCF1004F08BF5FEA01
:1003D000500C50F1000041EB045141EA050130BDE1
:1003E0005FEA4C0C404141EB0101013C28BFB1F5F3
:1003F000801FE9D291F0000F04BF01460020B1FA3E
:1004000081F308BF2033A3F10B03B3F120020CDA10
:100410000C3208DD02F1140CC2F10C0201FA0CF0EE
:1004200021FA02F10CE002F11402D8BFC2F1200C53
:1004300001FA02F120FA0CFCDCBF41EA0C01904009
:10044000E41AA2BF01EB0451294330BD6FEA040452
:100450001F3C1CDA0C340EDC04F11404C4F120023D
:1004600020FA04F001FA02F340EA030021FA04F34F
:1004700045EA030130BDC4F10C04C4F1200220FAA6
:1004800002F001FA04F340EA0300294630BD21FAE4
:1004900004F0294630BD94F0000F83F4801306BFAA
:1004A00081F480110134013D4EE77FEA645C18BF9E
:1004B0007FEA655C29D094EA050F08BF90EA020F35
:1004C00005D054EA000C04BF1946104630BD91EA2D
:1004D000030F1EBF0021002030BD5FEA545C05D130
:1004E0004000494128BF41F0004130BD14F580046F
:1004F0003CBF01F5801130BD01F0004545F0FE41E3
:1005000041F470014FF0000030BD7FEA645C1ABF17
:10051000194610467FEA655C1CBF0B46024650EA4E
:10052000013406BF52EA033591EA030F41F400217A
:1005300030BD00BF90F0000F04BF0021704730B500
:100540004FF4806404F132044FF000054FF00001D5
:1005500050E700BF90F0000F04BF0021704730B596
:100560004FF4806404F1320410F0004548BF40426B
:100570004FF000013EE700BF42004FEAE2014FEAC0
:1005800031014FEA02701FBF12F07F4393F07F4F9B
:1005900081F06051704732F07F4208BF704793F09E
:1005A0007F4F04BF41F40021704730B54FF46074B1
:1005B00001F0004521F000411CE700BF50EA0102B4
:1005C00008BF704730B54FF000050AE050EA01025D
:1005D00008BF704730B511F0004502D5404261EBCD
:1005E00041014FF4806404F132045FEA915C3FF40E
:1005F000D8AE4FF003025FEADC0C18BF03325FEAAB
:10060000DC0C18BF033202EBDC02C2F1200300FA5B
:1006100003FC20FA02F001FA03FE40EA0E0021FA80
:1006200002F11444BDE600BF70B54FF0FF0C4CF46E
:10063000E06C1CEA11541DBF1CEA135594EA0C0F20
:1006400095EA0C0F00F0DEF82C4481EA030621EA5B
:100650004C5123EA4C5350EA013518BF52EA033596
:1006600041F4801143F4801338D0A0FB02CE4FF048
:100670000005E1FB02E506F00042E0FB03E54FF078
:100680000006E1FB03569CF0000F18BF4EF0010E70
:10069000A4F1FF04B6F5007F64F5407404D25FEA6C
:1006A0004E0E6D4146EB060642EAC62141EA55511F
:1006B0004FEAC52040EA5E504FEACE2EB4F1FD0C61
:1006C00088BFBCF5E06F1ED8BEF1004F08BF5FEADF
:1006D000500E50F1000041EB045170BD06F0004691
:1006E00046EA010140EA020081EA0301B4EB5C043E
:1006F000C2BFD4EB0C0541EA045170BD41F4801136
:100700004FF0000E013C00F3AB8014F1360FDEBF5A
:10071000002001F0004170BDC4F10004203C35DA36
:100720000C341BDC04F11404C4F1200500FA05F3B9
:1007300020FA04F001FA05F240EA020001F000425A
:1007400021F0004110EBD37021FA04F642EB0601D0
:100750005EEA430E08BF20EAD37070BDC4F10C04FA
:10076000C4F1200500FA04F320FA05F001FA04F2BE
:1007700040EA020001F0004110EBD37041F10001AA
:100780005EEA430E08BF20EAD37070BDC4F12005B5
:1007900000FA05F24EEA020E20FA04F301FA05F21D
:1007A00043EA020321FA04F001F0004121FA04F2C5
:1007B00020EA020000EBD3705EEA430E08BF20EA95
:1007C000D37070BD94F0000F0FD101F000464000CF
:1007D00041EB010111F4801F08BF013CF7D041EA51
:1007E000060195F0000F18BF704703F00046520055
:1007F00043EB030313F4801F08BF013DF7D043EA26
:100800000603704794EA0C0F0CEA135518BF95EADB
:100810000C0F0CD050EA410618BF52EA4306D1D162
:1008200081EA030101F000414FF0000070BD50EA81
:10083000410606BF1046194652EA430619D094EA0B
:100840000C0F02D150EA013613D195EA0C0F05D1F5
:1008500052EA03361CBF104619460AD181EA030149
:1008600001F0004141F0FE4141F470014FF0000001
:1008700070BD41F0FE4141F4780170BD70B54FF09C
:10088000FF0C4CF4E06C1CEA11541DBF1CEA13551C
:1008900094EA0C0F95EA0C0F00F0A7F8A4EB0504FE
:1008A00081EA030E52EA03354FEA013100F08880F5
:1008B0004FEA03334FF0805545EA131343EA1263BE
:1008C0004FEA022245EA111545EA10654FEA002673
:1008D0000EF000419D4208BF964244F1FD0404F52C
:1008E000407402D25B084FEA3202B61A65EB030588
:1008F0005B084FEA32024FF480104FF4002CB6EB45
:10090000020E75EB030E22BFB61A754640EA0C00C4
:100910005B084FEA3202B6EB020E75EB030E22BF04
:10092000B61A754640EA5C005B084FEA3202B6EB45
:10093000020E75EB030E22BFB61A754640EA9C0004
:100940005B084FEA3202B6EB020E75EB030E22BFD4
:10095000B61A754640EADC0055EA060E18D04FEA92
:10096000051545EA16754FEA06164FEAC30343EA32
:1009700052734FEAC2025FEA1C1CC0D111F4801FFF
:100980000BD141EA00014FF000004FF0004CB6E7F8
:1009900011F4801F04BF01430020B4F1FD0C88BF97
:1009A000BCF5E06F3FF6AFAEB5EB030C04BFB6EBA2
:1009B000020C5FEA500C50F1000041EB045170BD95
:1009C0000EF0004E4EEA113114EB5C04C2BFD4EBC2
:1009D0000C0541EA045170BD41F480114FF0000E46
:1009E000013C90E645EA060E8DE60CEA135594EAC2
:1009F0000C0F08BF95EA0C0F3FF43BAF94EA0C0FC5
:100A00000AD150EA01347FF434AF95EA0C0F7FF439
:100A100025AF104619462CE795EA0C0F06D152EA8D
:100A200003353FF4FDAE1046194622E750EA410671
:100A300018BF52EA43067FF4C5AE50EA41047FF482
:100A40000DAF52EA43057FF4EBAE12E74FF0FF3CE7
:100A500006E000BF4FF0010C02E000BF4FF0010CB8
:100A60004DF804CD4FEA410C7FEA6C5C4FEA430C31
:100A700018BF7FEA6C5C1BD001B050EA410C0CBF80
:100A800052EA430C91EA030F02BF90EA020F0020E2
:100A9000704710F1000F91EA030F58BF994208BF49
:100AA00090422CBFD8176FEAE37040F00100704706
:100AB0004FEA410C7FEA6C5C02D150EA013C07D15D
:100AC0004FEA430C7FEA6C5CD6D152EA033CD3D0A8
:100AD0005DF8040B704700BF8446104662468C46A2
:100AE0001946634600E000BF01B5FFF7B7FF0028D5
:100AF00048BF10F1000F01BD4DF808EDFFF7F4FFFE
:100B00000CBF012000205DF808FB00BF4DF808ED88
:100B1000FFF7EAFF34BF012000205DF808FB00BFAB
:100B20004DF808EDFFF7E0FF94BF012000205DF8CD
:100B300008FB00BF4DF808EDFFF7CEFF94BF012082
:100B400000205DF808FB00BF4DF808EDFFF7C4FF7B
:100B500034BF012000205DF808FB00BF4FEA410CC4
:100B60007FEA6C5C02D150EA013C0AD14FEA430CA7
:100B70007FEA6C5C02D152EA033C02D14FF00000E4
:100B800070474FF0010070474FEA410212F5001222
:100B900015D211D56FF47873B3EB625212D94FEAC4
:100BA000C12343F0004343EA505311F0004F23FAAE
:100BB00002F018BF404270474FF00000704750EA03
:100BC000013005D111F0004008BF6FF000407047C0
:100BD0004FF00000704700BF4A0011D212F500121A
:100BE00011D20DD56FF47873B3EB62520ED44FEA85
:100BF000C12343F0004343EA505323FA02F0704705
:100C00004FF00000704750EA013002D14FF0FF3042
:100C100070474FF0000070474FEA4102B2F1E043E5
:100C200024BFB3F5001CDCF1FE5C0DD901F0004CD3
:100C30004FEAC0024CEA5070B2F1004F40EB830023
:100C400008BF20F00100704711F0804F21D113F14F
:100C50003872BCBF01F00040704741F480114FEA88
:100C60005252C2F11802C2F1200C10FA0CF320FA11
:100C700002F018BF40F001004FEAC1234FEAD3232E
:100C800003FA0CFC40EA0C0023FA02F34FEA430398
:100C9000CCE77FEA625307D150EA01331EBF4FF021
:100CA000FE4040F44000704701F0004040F0FE403C
:100CB00040F40000704700BF53B94AB9002908BF8B
:100CC00000281CBF4FF0FF314FF0FF3000F0A0B9FB
:100CD000ADF1080C6DE904CE00F03CF8DDF804E05D
:100CE000DDE9022304B0704738B500220023044632
:100CF0000D46FFF70BFF28B920462946BDE83840CE
:100D000000F00AB8204605F1004100F005F8404225
:100D100061EB410138BD00BFD0B50C4B0022064647
:100D20000F46FFF781FCFFF757FF0446FFF702FC71
:100D3000074B0022FFF778FC02460B463046394647
:100D4000FFF7BAFAFFF748FF2146D0BD0000F03D9B
:100D50000000F0412DE9F047089D0C46002B4ED1D4
:100D600094468C458646B2FA82F262D94AB1C2F103
:100D70002003914020FA03F30CFA02FC194300FA15
:100D800002FE4FEA1C471FFA8CF6B1FBF7F44FEA5C
:100D90001E4307FB141143EA014304FB06F1994289
:100DA0000AD91CEB030304F1FF3080F01281994251
:100DB00040F20F81023C6344591A1FFA8EF3B1FBD3
:100DC000F7F007FB101143EA014300FB06F69E42D1
:100DD0000AD91CEB030300F1FF3180F0FC809E4236
:100DE00040F2F980634402389B1B40EA0440002132
:100DF0001DB1D3400022C5E90032BDE8F0878B4227
:100E000005D90DB1C5E9000100210846F5E7B3FA9F
:100E100083F1002946D1A34202D39042C0F0F08072
:100E2000861A64EB03030120002DE6D0C5E90063B8
:100E3000E3E7002A40F09080A1EB0C044FEA1C4845
:100E40001FFA8CF70121B4FBF8F64FEA1E4308FBAA
:100E5000164443EA044307FB06F0984208D91CEB0A
:100E6000030306F1FF3402D2984200F2CD802646F9
:100E70001C1A1FFA8EF3B4FBF8F008FB104443EA87
:100E8000044300FB07F79F4208D91CEB030300F162
:100E9000FF3402D29F4200F2B0802046DB1B40EAC2
:100EA0000640A5E7C1F120068B4022FA06F71F4352
:100EB00020FA06FC04FA01F343EA0C03F44000FABA
:100EC00001F8380C4FEA1349B4FBF0FE1FFA87FC17
:100ED00000FB1E4449EA04440EFB0CF9A14502FA4A
:100EE00001F20AD93C190EF1FF3A80F08480A14545
:100EF00040F28180AEF1020E3C44A4EB09041FFADB
:100F000083F9B4FBF0F300FB134449EA044403FB08
:100F10000CFCA44507D93C1903F1FF3067D2A44566
:100F200065D9023B3C4443EA0E40A0FB0293A4EB8C
:100F30000C049C42CE469C4651D34ED055B1B8EBE2
:100F40000E0364EB0C0404FA06F6CB401E43CC40BF
:100F5000C5E90064002150E7C2F1200320FA03F143
:100F60000CFA02FC24FA03F394400C434FEA1C48A9
:100F700000FA02FE1FFA8CF7B3FBF8F008FB103101
:100F8000230C43EA014300FB07F1994208D91CEB0B
:100F9000030300F1FF362CD299422AD90238634468
:100FA0005B1AA4B2B3FBF8F108FB113344EA034423
:100FB00001FB07F3A34208D91CEB040401F1FF363F
:100FC00013D2A34211D902396444E41A41EA004120
:100FD00039E70446F0E6084606E7C845AED2B9EB65
:100FE000020E63EB070C0138A8E73146EDE7034634
:100FF00099E73046D4E7D6467FE7634402384DE7A9
:101000000646234608460FE7023E634430E700BF2A
:10101000704700BF80B487B000AF0346B9607A6004
:10102000FB8100237B613DE07A69BB689A421BD259
:101030007B699B007A6813441A68FB891B04DB43B5
:1010400018467B699B0079680B4402401A607B69F3
:101050009B007A6813441968FA897B699B00786859
:1010600003440A431A601AE07B699B007A681344C0
:101070001A68FB89DB4318467B699B0079680B443F
:1010800002401A607B699B007A6813441968FB89E7
:101090001A047B699B00786803440A431A607B69E1
:1010A00001337B617B69B3F57A7FBDD300BF00BF9D
:1010B0001C37BD465DF8047B7047000080B500AF6B
:1010C0000B4BB3F90030002B03D0094B00221A80E0
:1010D00003E0074B4FF47A721A80054BB3F90030E6
:1010E000044A19460820FFF795FF00BF80BD00BFE6
:1010F000CA1200202403002080B500AF094B012252
:101100001A700121084804F0EBFF0346002B03D0BE
:10111000064B01221A7002E0044B00221A7000BF35
:1011200080BD00BF89150020000002408815002006
:1011300080B500AF094B1B680133084A1360074BA9
:101140001B68B3F5803F02D3044B00221A6002F003
:10115000FBFF0346024A136000BF80BD7C150020E0
:10116000C017002080B500AF4FF40041084804F0DC
:10117000B7FF0346002B08D1064B012283F8442019
:1011800000220821044804F0C3FF00BF80BD00BF57
:1011900000000240301500200004024080B582B0FB
:1011A00000AF00237B600C4B1B6B0B4A43F48003A6
:1011B0001363094B1B6B03F480037B607B68002285
:1011C0000021442003F0A3FD442003F0BCFD00BF38
:1011D0000837BD4680BD00BF0038024080B500AF73
:1011E0000D4B93F84430002B14D00B4B002283F8A6
:1011F00044200A4B4FF47A725A63084B4FF47A72C8
:101200009A63074A00210820FFF704FF40F6AC501C
:1012100002F0A6FF00BF80BD301500200004004092
:101220002403002080B594B000AF07F120033022E2
:10123000002118461DF0D2FD07F10C0300221A60B0
:101240005A609A60DA601A610023BB602A4B1B6CFB
:10125000294A43F080531364274B1B6C03F08053DF
:10126000BB60BB6800237B60244B1B6823F44043B6
:10127000224A43F400431360204B1B6803F44043AD
:101280007B607B6805233B624FF480337B620123E4
:10129000BB620223BB634FF48003FB6319233B64EF
:1012A0004FF4A8737B640423BB640723FB6407F13A
:1012B0002003184607F054FC0346002B01D002F02F
:1012C000F9F90F23FB6002233B6100237B614FF49C
:1012D0008053BB610023FB6107F10C030221184618
:1012E00007F0B6FE0346002B01D002F0E3F900BF81
:1012F0005037BD4680BD00BF00380240007000403E
:1013000080B582B000AF274B7B607B68B3F85F325B
:101310009BB24FF4C252934218D1234A7B681046C5
:10132000194640F261231A461DF06FFE1F491E4800
:101330001DF0C6FD0346002B19D001F0C3F803468B
:101340001A461B4918481DF0FFFB10E0164A194BBE
:101350001046194640F261231A461DF056FE01F070
:10136000B1F803461A4612490F481DF0EDFB124929
:1013700012481DF0A5FD0346002B04D0104B01229E
:1013800083F827200AE00F490C481DF099FD034619
:10139000002B03D00A4B002283F8272000BF083718
:1013A000BD4680BD00000608CC120020F0220208D5
:1013B000F82202088C4E0208FC220208301300209A
:1013C000301500200423020880B584B000AF72B647
:1013D00000BF2D4BBB6004F07BF92C4B0122DA607F
:1013E0002A4B0222DA60294B1022DA60274B202296
:1013F000DA60264B4022DA60244B8022DA60234BED
:101400004FF48072DA60224B00221A60204B0222D5
:101410001A611F4B07229A601D4B0122DA603B467E
:1014200019461B4804F0D2FA0346002B03D004F0FF
:1014300081F9034624E0174B7B60174BFB6016E0F5
:10144000BB68D3E90023F968022004F0EDF80346F5
:10145000002B06D1FB680433FB60BB680433BB6020
:1014600005E004F057F904F065F9034608E0FA686E
:101470007B689A42E4D304F04DF962B600BF0023C2
:1014800018461037BD4680BDCC120020003C0240FB
:10149000DC170020610206080000060880B500AFD6
:1014A000144B1B78002B22D0134B1B78002B0BD036
:1014B000124809F033FF114809F0CEFE104B00220C
:1014C0001A600D4B00221A700D4B1B68B3F5967F06
:1014D0000DD30A4809F022FFFFF776FF084B0022E0
:1014E0001A60044B00221A70034B00221A7000BFCE
:1014F00080BD00BF791500207A15002084190020D6
:101500007C15002080B582B000AF0023FB8013F073
:1015100057FD13F0DDFB13F067FB13F08DFB13F0A9
:10152000B1FB612012F0E8FE12F080FF022012F001
:10153000ABFF00237B7100233B713A1D7B1D1146DD
:10154000184613F0D3FA0346FB8000BF0837BD46A8
:1015500080BD00002DE9B0439EB004AF0023A7F882
:101560006430002012F02AFF002387F86730002340
:1015700087F8673087E04D4B01221A704FF40071F5
:101580004B4804F0ADFD0346002B03D1494813F04E
:101590008DFD02E0484813F089FD10F09FFE474A98
:1015A0004749484812F0EAFE0346A7F86430464B24
:1015B0001B78002B5CD0B7F96430002B13D0B7F93F
:1015C00064203B46414918461DF0BEFA3B4618468A
:1015D000FEF766FE03469AB239464FF47A733C48EA
:1015E0000AF052FE44E0374BD3ED007AF5EE407A34
:1015F000F1EE10FA11D13B46364918461DF0A4FA17
:101600003B461846FEF74CFE03469AB239464FF465
:101610007A732F480AF038FE2AE02A4B1B681846D6
:10162000FEF7AAFF80468946264B5B681846FEF700
:10163000A3FF04460D46234B9B681846FEF79CFF0C
:1016400002460B463846CDE90223CDE90045424625
:101650004B4621491DF078FA3B461846FEF720FE1E
:1016600003469AB239464FF47A7319480AF00CFED1
:1016700000F05EFD10F032FE00F0F4F897F86730ED
:10168000013387F8673097F867309AB2134BB3F895
:101690005D329BB29A42FFF46EAF044B00221A7087
:1016A00000BF6837BD46BDE8B08300BF20030020FF
:1016B0000000024060E3160060AE0A00381500200A
:1016C0003415002030150020781500200C23020866
:1016D000741A00204423020868230208CC12002058
:1016E0002DE9B0439EB004AF0023A7F8643000207A
:1016F00012F064FE002387F86730002387F8673014
:1017000070E0404813F0D2FC3F4A4049404812F094
:1017100035FE0346A7F864303E4B1B78002B5CD0A7
:10172000B7F96430002B13D0B7F964203B463A492F
:1017300018461DF009FA3B461846FEF7B1FD034670
:101740009AB239464FF47A7334480AF09DFD44E06A
:101750002F4BD3ED007AF5EE407AF1EE10FA11D16D
:101760003B462F4918461DF0EFF93B461846FEF759
:1017700097FD03469AB239464FF47A7327480AF028
:1017800083FD2AE0224B1B681846FEF7F5FE8046D3
:1017900089461F4B5B681846FEF7EEFE04460D4671
:1017A0001B4B9B681846FEF7E7FE02460B46384681
:1017B000CDE90223CDE9004542464B4619491DF0CB
:1017C000C3F93B461846FEF76BFD03469AB239460D
:1017D0004FF47A7311480AF057FD97F867300133D8
:1017E00087F8673097F867309AB20F4BB3F85D32DD
:1017F0009BB29A4285D300BF00BF6837BD46BDE8A3
:10180000B08300BF60E316003815002034150020B7
:1018100030150020781500200C230208741A0020CF
:101820004423020868230208CC12002080B58CB043
:1018300000AF0B4814F03EF813F086FF3B1D18462E
:1018400014F043F90346FB8507F10C03184614F026
:1018500045F80346FB8500BF3037BD4680BD00BF5D
:1018600040420F002DE9B04FA0B006AF14F062F86F
:101870000346A7F866303A4814F074F80346A7F810
:101880006630374B1B68374A1361354B5B68354A06
:101890005361334B9B68334A9361314BDB68314A68
:1018A000D361B7F96630002B54DB2F4B1B78002B2C
:1018B00050D0B7F8663043F0FF031BB240F2FF127E
:1018C000934213D1B7F86630DAB23B46274918463F
:1018D0001DF03AF93B461846FEF7E2FC03469AB281
:1018E00039464FF47A7322480AF0CEFC1C4B1B6831
:1018F0001846FEF741FE82468B46194B5B68184638
:10190000FEF73AFE04460D46154B9B681846FEF757
:1019100033FE80468946124BDB681846FEF72CFEE4
:1019200002460B463846CDE90423CDE90289CDE9CC
:10193000004552465B460F491DF006F93B461846E6
:10194000FEF7AEFC03469AB239464FF47A73084864
:101950000AF09AFC00BF6837BD46BDE8B08F00BFF3
:101960009817002030150020781500209C230208CD
:10197000741A0020D023020880B58EB000AF294B26
:1019800093F82F30002B05D0264B002283F82F2010
:1019900010F0BCFC234B93F82E30002B15D0214BBC
:1019A000002283F82E2000224FF400411E4804F04C
:1019B000AFFB4FF4FA7002F0D3FB01224FF4004169
:1019C000194804F0A5FBFFF731FF4FF47A730522A5
:1019D000C221164805F072F80346002B19D0144BAB
:1019E0001B78002B10D03B1D124918461DF0ACF897
:1019F0003B1D1846FEF754FC03469AB2391D4FF4BE
:101A00007A730D480AF040FC064B012283F830201F
:101A100003E0044B002283F8302000BF3837BD4676
:101A200080BD00BF3015002000040240381800209F
:101A30007815002008240208741A002080B500AF31
:101A4000084B93F83730002B0AD0064B93F831300F
:101A5000002B05D1034B002283F8372014F021F826
:101A600000BF80BD3015002080B500AFFFF784FFB8
:101A7000324B4FF47A725A63304B4FF47A729A6356
:101A80002F4A4FF47A710820FFF7C4FA2D4802F06C
:101A900012FC4FF47A730B222B492C480AF0F4FB0A
:101AA00000224FF400412A4804F032FB01220221B7
:101AB000284804F02DFB284B93F83030002B06D13A
:101AC00012F0B4FC002012F0D9FD13F05DF810F014
:101AD00011FC13F0A7FA13F077FE1BF08DF91F48E5
:101AE00009F00BFB1E4809F008FB1E4809F005FB36
:101AF0001D4803F003FA02F057FB01F0F9FC07F070
:101B000017F812F0B5F8194805F0CEFC01210120B4
:101B100006F0DEFF12F0ACF8154B1B78002B09D154
:101B20000D4B93F84430002B04D10B4B93F831301C
:101B3000002BE8D012F08AF800BF80BD00040040FE
:101B400024030020F017002030240208741A00201B
:101B50000004024000000240301500203C19002023
:101B600084190020CC190020141A00208C180020A1
:101B70002900002080B500AF07F038FDFFF752FBC9
:101B800006F0E2FF02F020FB01F0E8FCFFF726FB85
:101B900001224FF40041434804F0BAFA0022022126
:101BA000414804F0B5FA10F0B1FBFFF7F7FA01F085
:101BB00015F901F063F901F0AFF9FFF7A3FC3B4819
:101BC0001AF042FA0346002B05D138481AF068FA99
:101BD0001BF024F902E0364B02221A704FF4007118
:101BE000314804F07DFA0346002B02D1FFF71EFEB8
:101BF0000FE0304B012283F831202E4B012283F875
:101C000034202D4B00221A6002F09EFA03462B4A24
:101C10001360FFF7E3FA2A4A4FF47A710820FFF7BE
:101C2000F9F9284B4FF47A725A63264B4FF47A72C3
:101C30009A63254809F0B6FA21494FF47A73234A8A
:101C4000234803F0B9F9204B1B68DA681E4B1B6868
:101C500042F48072DA601A4A4FF47A710820FFF772
:101C6000D9F900211B4809F0E1FB164B4FF47A72B9
:101C70005A630421174809F0D9FB124B4FF47A72CA
:101C80009A63154812F09CFA00F054F8FFF7A6FA90
:101C90004FF47A730A22114911480AF0F5FA00BF8D
:101CA00080BD00BF00040240000002403C24020846
:101CB000282300203015002084150020C81700209C
:101CC00024030020000400403C19002018040240B6
:101CD000141A0020CC1900205015002040240208BE
:101CE000741A002080B500AF114B00225A634FF4E4
:101CF000487002F035FA0E4B4FF47A725A634FF483
:101D0000487002F02DFA0A4B00225A634FF44870D3
:101D100002F026FA064B4FF47A725A634FF4487079
:101D200002F01EFA024B00225A6300BF80BD00BFC2
:101D30000004004080B500AFA64B93F93630002B6D
:101D400040F095814FF40071A34804F0C9F90346AF
:101D5000002B25D09F4BD3ED087A9FEDA07AF4EEAF
:101D6000C77AF1EE10FA0DDB9D4B00225A639C4BB3
:101D70004FF47A729A639B4A4FF47A710820FFF706
:101D800049F996E1964B4FF47A725A63944B4FF4AB
:101D90007A729A63934A00210820FFF73BF988E1A1
:101DA000904A4FF47A710820FFF734F9894BD3ED4C
:101DB000087A9FED8A7AF4EEC77AF1EE10FA38DBF2
:101DC000874B4FF47A729A63864A4FF47A710820EF
:101DD000FFF720F9844B1B78002B09D1834BB3F913
:101DE00000309BB205339BB21AB2804B1A8008E0D8
:101DF0007E4BB3F900309BB2053B9BB21AB27B4BD2
:101E00001A807A4BB3F90030B3F57A7F03DD764B55
:101E100001221A7007E0754BB3F90030002B02DC89
:101E2000714B00221A70714BB3F900206C4B5A634E
:101E30003FE1684BD3ED087AB0EE0C7AF4EEC77A46
:101E4000F1EE10FA42DD634BD3ED087A9FED637A31
:101E5000F4EEC77AF1EE10FA38D8614B4FF47A728B
:101E60009A63604A4FF47A710820FFF7D3F85E4B0B
:101E70001B78002B09D15D4BB3F900309BB20533C1
:101E80009BB21AB2594B1A8008E0584BB3F9003094
:101E90009BB2053B9BB21AB2544B1A80534BB3F919
:101EA0000030B3F57A7F03DD4F4B01221A7007E053
:101EB0004E4BB3F90030002B02DC4B4B00221A7062
:101EC0004A4BB3F90020464B5A63F2E0414BD3ED45
:101ED000087A9FED477AF4EEC77AF1EE10FA40F3F4
:101EE0008D803C4BD3ED087AB0EE0C7AF4EEC77AD5
:101EF000F1EE10FA00F282803B4B1A783D4B1B78D2
:101F00009A4203D03B4B1A78374B1A70354A4FF43C
:101F10007A710820FFF77EF8334B1B78002B09D12C
:101F2000324BB3F900309BB205339BB21AB22F4B40
:101F30001A8008E02D4BB3F900309BB2053B9BB2F1
:101F40001AB22A4B1A80294BB3F90030B3F57A7FC5
:101F500003DD254B01221A7007E0244BB3F9003052
:101F6000002B02DC204B00221A70224B1B78002B26
:101F700009D1214BB3F900309BB205339BB21AB2A1
:101F80001D4B1A8008E01C4BB3F900309BB2053B97
:101F90009BB21AB2184B1A80174BB3F90030B3F545
:101FA0007A7F03DD134B01221A7007E0124BB3F95D
:101FB0000030002B02DC0F4B00221A700B4BB3F9E0
:101FC0000020074B5A630C4BB3F90020044B9A6373
:101FD0006FE000BF30150020000002403333834023
:101FE0000004004024030020C4120020C612002078
:101FF00033335340C5120020C81200202E4B4FF43B
:102000007A725A632D4A4FF47A710820FFF702F86A
:102010002B4B1B78002B09D12A4BB3F900309BB214
:1020200005339BB21AB2274B1A8008E0254BB3F94F
:1020300000309BB2053B9BB21AB2224B1A80214B57
:10204000B3F90030B3F57A7F03DD1D4B01221A701E
:1020500007E01C4BB3F90030002B02DC184B0022C8
:102060001A70184BB3F90020134B9A6321E0124BFE
:102070004FF47A725A63114A4FF47A710820FEF7CE
:10208000C9FF104BB3F90030B3F57A7F04D00D4B84
:102090004FF47A721A8002E00A4B00221A80094B30
:1020A000B3F90020044B9A634FF4967002F058F88D
:1020B000FFE700BF80BD00BF0004004024030020F4
:1020C000C5120020C812002080B500AF164B4FF497
:1020D0007A725A63154A4FF47A710820FEF79AFF14
:1020E000114B00229A634FF47A7002F039F80E4BCC
:1020F0004FF47A729A634FF47A7002F031F80A4B17
:1021000000229A634FF47A7002F02AF8064B4FF4DB
:102110007A729A634FF47A7002F022F8024B00222E
:102120009A6300BF80BD00BF00040040240300206C
:1021300080B500AFA64B93F93630002B40F0958167
:102140004FF40071A34803F0CBFF0346002B25D0CA
:102150009F4BD3ED087A9FEDA07AF4EEC77AF1EEAB
:1021600010FA0DDB9D4B00225A639C4B4FF47A72A0
:102170009A639B4A4FF47A710820FEF74BFF96E171
:10218000964B4FF47A725A63944B4FF47A729A6377
:10219000934A00210820FEF73DFF88E1904A4FF462
:1021A0007A710820FEF736FF894BD3ED087A9FED50
:1021B0008A7AF4EEC77AF1EE10FA38DB874B4FF4E7
:1021C0007A729A63864A4FF47A710820FEF722FFEA
:1021D000844B1B78002B09D1834BB3F900309BB2A1
:1021E0003C339BB21AB2804B1A8008E07E4BB3F9A5
:1021F00000309BB23C3B9BB21AB27B4B1A807A4BAD
:10220000B3F90030B3F57A7F03DD764B01221A7003
:1022100007E0754BB3F90030002B02DC714B002254
:102220001A70714BB3F900206C4B5A633FE1684B55
:10223000D3ED087AB0EE0C7AF4EEC77AF1EE10FA2C
:1022400042DD634BD3ED087A9FED637AF4EEC77AF3
:10225000F1EE10FA38D8614B4FF47A729A63604A03
:102260004FF47A710820FEF7D5FE5E4B1B78002BE9
:1022700009D15D4BB3F900309BB23C339BB21AB22B
:10228000594B1A8008E0584BB3F900309BB23C3BE5
:102290009BB21AB2544B1A80534BB3F90030B3F5CA
:1022A0007A7F03DD4F4B01221A7007E04E4BB3F9E2
:1022B0000030002B02DC4B4B00221A704A4BB3F962
:1022C0000020464B5A63F2E0414BD3ED087A9FED74
:1022D000477AF4EEC77AF1EE10FA40F38D803C4B6A
:1022E000D3ED087AB0EE0C7AF4EEC77AF1EE10FA7C
:1022F00000F282803B4B1A783D4B1B789A4203D008
:102300003B4B1A78374B1A70354A4FF47A710820D4
:10231000FEF780FE334B1B78002B09D1324BB3F90B
:1023200000309BB23C339BB21AB22F4B1A8008E0AC
:102330002D4BB3F900309BB23C3B9BB21AB22A4BF7
:102340001A80294BB3F90030B3F57A7F03DD254BB2
:1023500001221A7007E0244BB3F90030002B02DC95
:10236000204B00221A70224B1B78002B09D1214BE5
:10237000B3F900309BB23C339BB21AB21D4B1A80AA
:1023800008E01C4BB3F900309BB23C3B9BB21AB245
:10239000184B1A80174BB3F90030B3F57A7F03DD81
:1023A000134B01221A7007E0124BB3F90030002BD7
:1023B00002DC0F4B00221A700B4BB3F90020074BC5
:1023C0005A630C4BB3F90020044B9A636FE000BFD3
:1023D00030150020000002403333834000040040E9
:1023E00024030020C4120020C612002033335340BF
:1023F000C5120020C81200202E4B4FF47A725A6387
:102400002D4A4FF47A710820FEF704FE2B4B1B78FF
:10241000002B09D12A4BB3F900309BB23C339BB25D
:102420001AB2274B1A8008E0254BB3F900309BB253
:102430003C3B9BB21AB2224B1A80214BB3F90030BD
:10244000B3F57A7F03DD1D4B01221A7007E01C4BA8
:10245000B3F90030002B02DC184B00221A70184B25
:10246000B3F90020134B9A6321E0124B4FF47A72B8
:102470005A63114A4FF47A710820FEF7CBFD104BD6
:10248000B3F90030B3F57A7F04D00D4B4FF47A7274
:102490001A8002E00A4B00221A80094BB3F900208F
:1024A000044B9A634FF4967001F05AFEFFE700BFA9
:1024B00080BD00BF0004004024030020C51200209E
:1024C000C812002090B583B000AF01F099FE03461A
:1024D000DBB27B6001F094FE03461D4A1B0A1360C9
:1024E0001C4C01F099FE034623607B68232B09D91D
:1024F0007B683D2B28BF3D23DBB23D33DAB2144B62
:10250000DA710BE07B68092B01D9412200E030220F
:102510007B68DBB21344DAB20D4BDA7101F064FE72
:1025200003461B0CDBB219460B4811F0B5FD01F058
:102530005BFE0346DBB21946084811F0ADFD044BC3
:1025400000221A73024B18460C37BD4690BD00BFDF
:10255000CC170020CF170020D4170020D61700205A
:1025600080B500AF044B1B78002B01D00FF0B6FEF6
:10257000FFF7DEFD00BF80BD2003002080B588B0DE
:1025800000AF482200219F481CF028FCFEF7B8FE4F
:102590009D4808F007FE9D494FF47A739C4A9D4878
:1025A00002F00AFD984B1B68DA68974B1B6842F4EF
:1025B0008072DA60954A4FF47A710820FEF72AFD9E
:1025C0000021954808F032FF944B4FF47A725A6319
:1025D0000421914808F02AFF904B4FF47A729A63D5
:1025E0008F4819F031FD0346002B05D18C4819F0B6
:1025F00057FD1AF013FC02E08A4B02221A7001F018
:10260000A3FD0346884A13604FF40071874803F026
:1026100067FD0346002B02D1FFF708F916E0794B5E
:10262000002283F83120774B012283F83320754B49
:10263000012283F83220734B012283F834207C4B33
:1026400000221A606F4B012283F82420FEF75AFF04
:102650000FF090FE11F08EFB07F11C0300221946CB
:10266000744807F090FAFB7F1A46664B5A850121A1
:10267000704807F039FD03464BF6BE62934206D11F
:102680006D496E48FDF7ACFD0346002B12D16C4935
:102690006C481AF005FB03461A465A4B83F835205E
:1026A00006F0EEF94BF6BE620121624807F002FD2A
:1026B00006F0FAF9FFF716FBC823152262496348B2
:1026C00009F0E2FD01F040FD0346614A136001F0AC
:1026D0003BFD03465F4A13605F4B01221A70FEF711
:1026E0007DFD79E1FEF77AFD5C4811F069FD4FF45C
:1026F00000714E4803F0F4FC0346002B04D001F0B7
:1027000023FD0346524A1360FFF714FB07F1080349
:1027100000221946474807F054F93B1D002219468C
:10272000444807F030FABA79364B83F845207A7975
:10273000344B83F84620FA79324B83F84720314BEB
:102740005B8DFA79934207D02E4B012283F82D201E
:10275000FB791A462B4B5A85FFF70EF9294B93F854
:102760003130002B04D1274B93F83330002B45D068
:10277000244B93F83330002B03D0394B01221A70CD
:1027800003E0204B012283F8322001F0DDFC0246F9
:10279000254B1B68D21A334B1B689A4229D3194B1D
:1027A00093F93530B3F1FF3F0DD1164B93F8333029
:1027B000002B08D0224923481AF072FA03461A4621
:1027C000104B83F835200F4B002283F833200D4B3C
:1027D000002283F831200B4B002283F83220204B5B
:1027E00000221A70FFF722F801F0AEFC0346194AE6
:1027F000136001F0A9FC0346154A13600FF06EFD4B
:1028000046E000BF301500203C19002024030020C2
:1028100018040240141A0020CC19002000040040C3
:102820003C24020828230020C81700200000024092
:1028300084150020981800204C2402086114002000
:1028400030130020CC12002054240208741A0020F7
:10285000C0170020C41700200C00002050150020D5
:1028600080150020080000200FF038FD924B93F8EF
:102870003030002B01D1FEF76DFEFEF7F3FF8F48DD
:1028800011F09EFCFFF754FCFEF7A8FCFFF774F86C
:1028900001F05AFC02468A4B1B68D21A894B1B680E
:1028A0009A4209D8844B93F83130002B04D1824BE3
:1028B00093F83330002BD7D0FFF7C0F8824B1B784A
:1028C000002B14D07C4B93F83130002B0FD17A4B76
:1028D00093F83330002B0AD14FF400717B4803F09A
:1028E000FFFB0346002B02D1774B00221A704FF4F6
:1028F0000071764803F0F4FB0346002B50D0744B74
:102900001B78002B4CD06C4B93F83130002B47D107
:10291000694B93F82D30002B0FD1674B93F825307E
:10292000002B0AD1644B93F82630002B05D1624B63
:1029300093F93530B3F1FF3F14D1664966481AF078
:10294000AFF903461A465C4B83F835205A4B0022F8
:1029500083F82D20584B002283F82520564B002267
:1029600083F826201AF052F90346002B13D040F2C8
:10297000DC5001F0F5FB1AF049F90346002B0AD0B0
:1029800040F2DC5001F0ECFB1AF040F90346002B5A
:1029900001D002F0F4F901F0D7FB0346484A136076
:1029A00011F0E8F9FFF7C6F9FEF778FD0121474875
:1029B00003F096FB0346002B06D03F4B01221A730F
:1029C000464B01221A7005E03B4B00221A73434B21
:1029D00001221A70FEF702FC01F0B6FB0246404BE2
:1029E0001B68D21A3F4B1B689A427FF67BAE324B74
:1029F00093F82D30002B0FD12F4B93F82530002B5F
:102A00000AD12D4B93F82630002B05D12A4B93F990
:102A10003530B3F1FF3F1BD12E492F481AF040F952
:102A200003461A46244B83F83520234B002283F8B3
:102A30002D20214B002283F825201F4B002283F8F4
:102A4000262001E0FEF72AFD274B1B78002BF9D149
:102A50001AF0DCF80346002B13D040F2DC5001F0F2
:102A60007FFB1AF0D3F80346002B0AD040F2DC506B
:102A700001F076FB1AF0CAF80346002B01D002F0F1
:102A80007EF901F061FB0346154A136001E0FEF791
:102A900005FD154B1B78002BF9D14FF400710B4845
:102AA00003F01EFB0346002B03D1FEF7DDFFFFF70B
:102AB00061F8FEF793FB05E6301500205015002065
:102AC000C4170020040000200C0000200000024079
:102AD0002900002030130020CC120020891500208E
:102AE000C0170020000000207915002080B500AF3D
:102AF00001F0C4FA00F022F84FF47A7001F030FBD4
:102B000000F000FB00F0DEFA00F048F900F086FA71
:102B100000F01EF900F0D4F800F0B0F900F0A8FAC7
:102B200000F07CF810F008FF00F058F900F0F4F91C
:102B300000F0F4F8FFF722FD00BFFDE780B594B088
:102B400000AF07F120033022002118461CF046F99F
:102B500007F10C0300221A605A609A60DA601A6169
:102B60000023BB602B4B1B6C2A4A43F08053136439
:102B7000284B1B6C03F08053BB60BB6800237B6059
:102B8000254B1B6823F44043234A43F4004313605E
:102B9000214B1B6803F440437B607B680D233B6241
:102BA0004FF480337B620123BB6201237B630223EA
:102BB000BB634FF48003FB6319233B644FF4A8739A
:102BC0007B640423BB640723FB6407F120031846DE
:102BD00005F0C6FF0346002B01D000F06BFD0F236C
:102BE000FB6002233B6100237B614FF48053BB6198
:102BF0000023FB6107F10C030221184606F028FAB6
:102C00000346002B01D000F055FD00BF5037BD46F4
:102C100080BD00BF003802400070004080B584B025
:102C200000AF3B4600221A605A609A60DA60214B7E
:102C3000214A1A601F4B4FF480325A601D4B00220C
:102C40009A601C4B00221A611A4B00221A76194B0B
:102C5000002283F82020174B0022DA62154B174A16
:102C60009A62144B0022DA60124B0122DA61114B96
:102C7000002283F830200F4B01225A610D4801F0E9
:102C8000D7FA0346002B01D000F014FD0A233B6065
:102C900001237B600023BB603B461946054801F0D9
:102CA000BDFC0346002B01D000F004FD00BF10372F
:102CB000BD4680BDF0170020002001400100000F3C
:102CC00080B500AF124B134A1A60114B124A5A607A
:102CD0000F4B00229A600E4B0022DA600C4B4FF42F
:102CE00080421A610A4B00225A61094B00229A6104
:102CF000074B0022DA61064B00221A62044803F0F7
:102D000039FA0346002B01D000F0D4FC00BF80BD8F
:102D10003818002000540040A086010080B500AFA4
:102D2000094B0A4A1A60084B06225A60064B40F6C5
:102D3000FF729A60044804F075FB0346002B01D033
:102D400000F0B8FC00BF80BD8C18002000300040AF
:102D500080B500AF0F4B104A1A600E4B00225A602C
:102D60000C4B7F229A600B4BFF22DA60094B00224A
:102D70001A61084B00225A61064B00229A610548ED
:102D800006F002FD0346002B01D000F093FC00BFCB
:102D900080BD00BF981800200028004080B400AF1C
:102DA0000C4B0D4A1A600B4B00225A60094B002253
:102DB0009A60084B0022DA60064B00221A61054B2C
:102DC00000225A61034B05229A6100BFBD465DF89F
:102DD000047B7047B8180020002C014080B586B0F5
:102DE00000AF07F1080300221A605A609A60DA60A7
:102DF0003B4600221A605A601E4B1F4A1A601D4B48
:102E000000225A601B4B10229A601A4B40F2E932A2
:102E1000DA60184B00221A61164B00225A61154BDA
:102E200000229A61134808F019F90346002B01D0DB
:102E300000F040FC4FF48053BB6007F108031946D3
:102E40000C4808F055FD0346002B01D000F032FC81
:102E500020233B6000237B603B461946054809F070
:102E60000FF90346002B01D000F024FC00BF1837F7
:102E7000BD4680BD3C1900200000014080B586B0F1
:102E800000AF07F1080300221A605A609A60DA6006
:102E90003B4600221A605A601E4B4FF080421A6077
:102EA0001C4B4FF47A725A601A4B00229A60194BED
:102EB00042F2D002DA60174B00221A61154B8022D1
:102EC0009A61144808F0CAF80346002B01D000F0BC
:102ED000F1FB4FF48053BB6007F1080319460D481E
:102EE00008F006FD0346002B01D000F0E3FB0023B1
:102EF0003B6000237B603B461946064809F0C0F85A
:102F00000346002B01D000F0D5FB00BF1837BD46AB
:102F100080BD00BF8419002080B58EB000AF07F1DE
:102F2000280300221A605A609A60DA6007F12003D1
:102F300000221A605A603B1D00221A605A609A6093
:102F4000DA601A615A619A61324B334A1A60314B26
:102F500000225A602F4B10229A602E4B40F2E93229
:102F6000DA602C4B00221A612A4B80229A61294890
:102F700008F074F80346002B01D000F09BFB4FF4DF
:102F80008053BB6207F128031946224808F0B0FCC1
:102F90000346002B01D000F08DFB1E4808F0EDF930
:102FA0000346002B01D000F085FB00233B62002389
:102FB0007B6207F120031946164809F061F80346C1
:102FC000002B01D000F076FB60237B600023BB6008
:102FD0000023FB6000237B613B1D002219460D4846
:102FE00008F0C4FB0346002B01D000F063FB3B1D3F
:102FF00004221946074808F0B9FB0346002B01D00C
:1030000000F058FB034800F075FD00BF3837BD469F
:1030100080BD00BFCC1900200004004080B500AF87
:10302000114B124A1A60104B4FF4E1325A600E4BAA
:1030300000229A600C4B0022DA600B4B00221A61CE
:10304000094B0C225A61084B00229A61064B002260
:10305000DA61054809F096F80346002B01D000F02C
:1030600029FB00BF80BD00BF741A00200010014082
:1030700080B500AF114B124A1A60104B4FF4E13289
:103080005A600E4B00229A600C4B0022DA600B4B08
:1030900000221A61094B0C225A61084B00229A61E6
:1030A000064B0022DA61054809F06CF80346002B54
:1030B00001D000F0FFFA00BF80BD00BFBC1A0020A5
:1030C0000044004080B582B000AF00237B600C4B11
:1030D0001B6B0B4A43F480031363094B1B6B03F414
:1030E00080037B607B6800220021442001F00FFEFA
:1030F000442001F028FE00BF0837BD4680BD00BF58
:103100000038024080B58AB000AF07F114030022F6
:103110001A605A609A60DA601A6100233B61714B51
:103120001B6B704A43F0040313636E4B1B6B03F07D
:1031300004033B613B690023FB606A4B1B6B694ADC
:1031400043F080031363674B1B6B03F08003FB604A
:10315000FB680023BB60634B1B6B624A43F00103B7
:103160001363604B1B6B03F00103BB60BB68002360
:103170007B605C4B1B6B5B4A43F002031363594B50
:103180001B6B03F002037B607B6800233B60554BA5
:103190001B6B544A43F008031363524B1B6B03F041
:1031A00008033B603B68002202214F4802F0B0FF59
:1031B00001224FF400414D4802F0AAFF00220821ED
:1031C0004A4802F0A5FF42F6FE637B610323BB6120
:1031D0000023FB6107F114031946454802F018FD6E
:1031E00001237B610023BB610023FB6107F1140312
:1031F00019463D4802F00CFD02237B610123BB61AF
:103200000023FB6102233B6207F114031946364891
:1032100002F0FEFC4FF4BE637B610323BB6100231D
:10322000FB6107F1140319462F4802F0F1FC47F245
:1032300007437B610323BB610023FB6107F1140398
:1032400019462A4802F0E4FC4FF400437B61012355
:10325000BB610023FB6102233B6207F114031946A3
:10326000224802F0D5FC4FF400737B614FF48813C1
:10327000BB610223FB6107F1140319461A4802F0EF
:10328000C7FC4FF400437B614FF40413BB6101237F
:10329000FB6107F114031946134802F0B9FC082337
:1032A0007B610123BB610023FB6100233B6207F1CB
:1032B000140319460D4802F0ABFC00220021172030
:1032C00001F025FD172001F03EFD002200212820FD
:1032D00001F01DFD282001F036FD00BF2837BD4656
:1032E00080BD00BF003802400000024000040240E0
:1032F0000008024080B58AB000AF07F11403002235
:103300001A605A609A60DA601A6100233B61414B8F
:103310001B6B404A43F0040313633E4B1B6B03F0EB
:1033200004033B613B690023FB603A4B1B6B394A4A
:1033300043F080031363374B1B6B03F08003FB6088
:10334000FB680023BB60334B1B6B324A43F0010325
:103350001363304B1B6B03F00103BB60BB6800239E
:103360007B602C4B1B6B2B4A43F002031363294BEE
:103370001B6B03F002037B607B6800233B60254BE3
:103380001B6B244A43F008031363224B1B6B03F0AF
:1033900008033B603B684FF400437B610323BB6140
:1033A0000023FB6100233B6207F1140319461A480E
:1033B00002F02EFC01237B610323BB610023FB6130
:1033C00000233B6207F114031946144802F020FC65
:1033D00002237B610323BB610023FB6100233B626B
:1033E00007F1140319460D4802F012FC4FF4C043D4
:1033F0007B610323BB610023FB6100233B6207F178
:1034000014031946054802F003FC00BF2837BD46E7
:1034100080BD00BF003802400004024000000240AE
:1034200080B586B000AF3B1D00221A605A609A60DA
:10343000DA601A614FF440737B600323BB600023A2
:10344000FB6000233B613B1D1946034802F0E0FB93
:1034500000BF1837BD4680BD0004024080B586B06D
:1034600000AF3B1D00221A605A609A60DA601A6150
:10347000C0237B600323BB600023FB6000233B6110
:103480003B1D1946094802F0C3FB0C237B60032354
:10349000BB600023FB6000233B613B1D19460448D1
:1034A00002F0B6FB00BF1837BD4680BD00040240E5
:1034B0000000024080B586B000AF3B1D00221A60BC
:1034C0005A609A60DA601A6130237B600323BB6024
:1034D0000023FB6000233B613B1D1946034802F0BB
:1034E00097FB00BF1837BD4680BD00BF00040240F7
:1034F00080B586B000AFFFF793FFFFF7AFFFFFF790
:10350000D9FFFFF7F7FE3B1D00221A605A609A6050
:10351000DA601A614FF488537B600323BB60002399
:10352000FB6000233B613B1D19460A4802F070FB1B
:1035300004237B600323BB600023FB6000233B610B
:103540003B1D1946044802F063FB00BF1837BD4617
:1035500080BD00BF00080240000C024080B586B06C
:1035600000AFFFF7CFFD3B1D00221A605A609A6042
:10357000DA601A614FF488537B600223BB6000233A
:10358000FB6003233B610C237B613B1D19460B4809
:1035900002F03EFB04237B600223BB600023FB6040
:1035A00003233B610C237B613B1D1946044802F059
:1035B0002FFB00BF1837BD4680BD00BF000802408A
:1035C000000C024080B582B000AF78607B681B6859
:1035D000B3F1804F01D1FDF7ABFD00BF0837BD4609
:1035E00080BD000080B582B000AF0346FB80FB8841
:1035F000012B01D1FDF780FDFB88B3F5007F18D1C9
:10360000114B012283F824200F4B012283F8312033
:103610000D4B012283F834200C4B00221A6000F07D
:1036200093FD03460A4A136000F08EFD0346094AE3
:103630001360FB88B3F5004F01D1FDF793FD00BF88
:103640000837BD4680BD00BF30150020841500201E
:10365000C8170020C017002080B582B000AF786086
:1036600010F0E8FA00BF0837BD4680BD80B483B0D3
:1036700000AF78607B680D4A934206D17B685A6C34
:103680007B681B68D2431A6009E07B68084A934252
:1036900005D17B685A6C7B681B68D2431A6000BFF7
:1036A0000C37BD465DF8047B704700BF741A0020DC
:1036B000BC1A002080B500AF72B600BF01F05FFBFE
:1036C00000BFFDE780B483B000AF00237B60104BE8
:1036D0005B6C0F4A43F4804353640D4B5B6C03F403
:1036E00080437B607B6800233B60094B1B6C084A6E
:1036F00043F080531364064B1B6C03F080533B6014
:103700003B6800BF0C37BD465DF8047B704700BFC7
:103710000038024080B58AB000AF786007F114032A
:1037200000221A605A609A60DA601A617B681B682E
:10373000174A934227D100233B61164B5B6C154A15
:1037400043F480735364134B5B6C03F480733B61ED
:103750003B690023FB600F4B1B6B0E4A43F00403D5
:1037600013630C4B1B6B03F00403FB60FB6801232A
:103770007B610323BB610023FB6107F1140319463E
:10378000054802F045FA00BF2837BD4680BD00BF9E
:1037900000200140003802400008024080B582B09D
:1037A00000AF78607B681B68084A934209D1084BD8
:1037B0005B6C074A23F4807353640121054802F0CF
:1037C000ABFB00BF0837BD4680BD00BF00200140F5
:1037D000003802400008024080B58AB000AF78602F
:1037E00007F1140300221A605A609A60DA601A61C5
:1037F0007B681B68194A93422CD100233B61184B0C
:103800001B6B174A43F002031363154B1B6B03F04A
:1038100002033B613B694FF440737B611223BB6140
:103820000023FB6103233B6204237B6207F1140343
:1038300019460C4802F0ECF90023FB60084B1B6CA6
:10384000074A43F400131364054B1B6C03F4001385
:10385000FB60FB6800BF2837BD4680BD00540040B8
:10386000003802400004024080B582B000AF7860AA
:103870007B681B680B4A93420FD10B4B1B6C0A4AA7
:1038800023F4001313644FF48071084802F044FBE2
:103890004FF40071054802F03FFB00BF0837BD46FA
:1038A00080BD00BF005400400038024000040240C8
:1038B00080B588B000AF786007F10C0300221A6071
:1038C0005A609A60DA601A617B681B68104A9342FA
:1038D00019D10223FB604FF48073BB6107F10C0325
:1038E000184605F095FD0346002B01D0FFF7E2FED8
:1038F000084B01221A6000220021292001F007FA5A
:10390000292001F020FA00BF2037BD4680BD00BF4E
:10391000002800403C0E474280B58AB000AF786076
:1039200007F1140300221A605A609A60DA601A6183
:103930007B681B68284A93424AD100233B61274B8E
:103940005B6C264A43F400635364244B5B6C03F4C2
:1039500000633B613B690023FB60204B1B6B1F4AEC
:1039600043F0040313631D4B1B6B03F00403FB6064
:10397000FB680023BB60194B1B6B184A43F008031C
:103980001363164B1B6B03F00803BB60BB684FF45B
:1039900088537B610223BB610023FB6103233B62ED
:1039A0000C237B6207F1140319460D4802F030F92D
:1039B00004237B610223BB610023FB6103233B6281
:1039C0000C237B6207F114031946064802F020F924
:1039D00000BF2837BD4680BD002C014000380240A2
:1039E00000080240000C024080B586B000AF78604D
:1039F0007B681B683A4A93423FD100237B61394B75
:103A00005B6C384A43F001035364364B5B6C03F044
:103A100001037B617B69344B344A1A60324B4FF0AF
:103A200040625A60304B40229A602F4B0022DA608D
:103A30002D4B4FF480621A612B4B4FF480525A6128
:103A4000294B4FF480429A61274B4FF48072DA6120
:103A5000254B00221A62244B00225A62224801F0B0
:103A60009FF90346002B01D0FFF724FE7B681E4A16
:103A70001A621D4A7B6893632EE07B681B68B3F172
:103A8000804F16D100233B61164B1B6C154A43F047
:103A900001031364134B1B6C03F001033B613B698F
:103AA000002200211C2001F032F91C2001F04BF90A
:103AB00012E07B681B680E4A93420DD10023FB6025
:103AC000084B1B6C074A43F002031364054B1B6C45
:103AD00003F00203FB60FB6800BF1837BD4680BDE2
:103AE0000000014000380240141A0020886402409F
:103AF0000004004080B588B000AF786007F10C0387
:103B000000221A605A609A60DA601A617B681B684A
:103B1000124A93421DD10023BB60114B1B6B104A0C
:103B200043F0020313630E4B1B6B03F00203BB60F5
:103B3000BB683023FB6002233B6100237B610023D1
:103B4000BB610223FB6107F10C031946054802F033
:103B50005FF800BF2037BD4680BD00BF00040040B5
:103B6000003802400004024080B582B000AF7860A7
:103B70007B681B68164A93420BD1164B5B6C154A47
:103B800023F0010353647B681B6A184601F0B6F901
:103B900019E07B681B68B3F1804F09D10D4B1B6C9A
:103BA0000C4A23F0010313641C2001F0DAF80AE048
:103BB0007B681B68084A934205D1064B1B6C054A7B
:103BC00023F00203136400BF0837BD4680BD00BF69
:103BD00000000140003802400004004080B58CB075
:103BE00000AF786007F11C0300221A605A609A60E7
:103BF000DA601A617B681B683A4A934234D1002329
:103C0000BB61394B5B6C384A43F010035364364B4D
:103C10005B6C03F01003BB61BB6900237B61324B1B
:103C20001B6B314A43F0020313632F4B1B6B03F0F2
:103C300002037B617B69C023FB6102233B6200239B
:103C40007B620323BB620723FB6207F11C03194657
:103C5000264801F0DDFF00220021252001F057F861
:103C6000252001F070F838E07B681B68204A9342F9
:103C700033D100233B611C4B1B6C1B4A43F40033C4
:103C80001364194B1B6C03F400333B613B69002345
:103C9000FB60154B1B6B144A43F001031363124B7B
:103CA0001B6B03F00103FB60FB680C23FB61022329
:103CB0003B6200237B620323BB620723FB6207F1A5
:103CC0001C0319460B4801F0A3FF00220021262007
:103CD00001F01DF8262001F036F800BF3037BD4650
:103CE00080BD00BF001001400038024000040240C7
:103CF000004400400000024080B582B000AF786010
:103D00007B681B68134A93420DD1134B5B6C124ABC
:103D100023F010035364C021104802F0FDF8252061
:103D200001F01FF811E07B681B680D4A93420CD12B
:103D3000094B1B6C084A23F4003313640C21094817
:103D400002F0EAF8262001F00CF800BF0837BD4663
:103D500080BD00BF00100140003802400004024056
:103D6000004400400000024080B500AF01F007F8B9
:103D700000BFFDE780B500AF01F001F800BFFDE72F
:103D800080B500AF00F0FBFF00BFFDE780B500AFDE
:103D900000F0F5FF00BFFDE780B500AF00F0EFFFDA
:103DA00000BFFDE780B500AF00F0E9FF00BF80BDB8
:103DB00080B500AF00F0E3FF00BF80BD80B500AF6D
:103DC00000F0DDFF00BF80BD80B500AF034803F009
:103DD0006BFB00F0A5F900BF80BD00BF8C18002070
:103DE00080B500AF4FF4007002F0ACF900BF80BDA9
:103DF00080B500AF024807F0C9FB00BF80BD00BF1F
:103E00008419002080B500AF024808F04BFB00BFCA
:103E100080BD00BF741A002080B500AF024808F0D2
:103E200041FB00BF80BD00BFBC1A002080B500AFC1
:103E30004FF4004002F086F900BF80BD80B500AFAE
:103E4000024806F033F800BF80BD00BF981800207C
:103E500080B500AF024803F0D9FC00BF80BD00BFB1
:103E60000829002080B500AF024801F073F900BFB7
:103E700080BD00BF141A002080B400AF0123184693
:103E8000BD465DF8047B704780B582B000AF7860B6
:103E900039601BF085F8034616221A604FF0FF3395
:103EA00018460837BD4680BD80B582B000AF786047
:103EB0004FF0FF317868FFF7E7FF00BFFDE780B5FF
:103EC00086B000AFF860B9607A6000237B610AE0D9
:103ED000AFF300800146BB685A1CBA60CAB21A70C0
:103EE0007B6901337B617A697B689A42F0DB7B688E
:103EF00018461837BD4680BD80B586B000AFF86063
:103F0000B9607A6000237B6109E0BB685A1CBA6023
:103F10001B781846AFF300807B6901337B617A69B7
:103F20007B689A42F1DB7B6818461837BD4680BD36
:103F300080B483B000AF78604FF0FF3318460C3781
:103F4000BD465DF8047B704780B483B000AF7860F5
:103F500039603B684FF400525A60002318460C3712
:103F6000BD465DF8047B704780B483B000AF7860D5
:103F7000012318460C37BD465DF8047B704780B4BA
:103F800085B000AFF860B9607A6000231846143736
:103F9000BD465DF8047B704780B586B000AF7860A1
:103FA000144A154BD31A7B617B693B61134B1B6829
:103FB000002B02D1114B124A1A60104B1A687B6811
:103FC00013443A699A4207D21AF0EAFF03460C22D8
:103FD0001A604FF0FF3309E0084B1B68FB60074B8A
:103FE0001A687B681344054A1360FB681846183743
:103FF000BD4680BD0080012000040000041B00209D
:10400000B037002080B400AF064BD3F88830054AA3
:1040100043F47003C2F8883000BFBD465DF8047BEE
:10402000704700BF00ED00E0DFF834D00D480E49C6
:104030000E4A002302E0D458C4500433C4188C4202
:10404000F9D30B4A0B4C002301E013600432A24267
:10405000FBD3FFF7D7FF1AF0A9FFFEF747FD704724
:10406000008001200000002004030020345A0208D0
:1040700004030020B0370020FEE7000080B500AF49
:104080000E4B1B680D4A43F4007313600B4B1B6807
:104090000A4A43F480631360084B1B68074A43F4E1
:1040A00080731360032000F027FE0F2000F008F853
:1040B000FFF708FB0023184680BD00BF003C02400C
:1040C00080B582B000AF7860124B1A68124B1B7833
:1040D00019464FF47A73B3FBF1F3B2FBF3F31846CE
:1040E00000F051FE0346002B01D001230EE07B6857
:1040F0000F2B0AD8002279684FF0FF3000F007FE3E
:10410000064A7B681360002300E001231846083745
:10411000BD4680BD100000201800002014000020C3
:1041200080B400AF064B1B781A46064B1B6813443D
:10413000044A136000BFBD465DF8047B704700BFB2
:1041400018000020081B002080B400AF034B1B6840
:104150001846BD465DF8047B704700BF081B002071
:1041600080B584B000AF7860FFF7EEFFB8607B6881
:10417000FB60FB68B3F1FF3F05D00A4B1B781A4682
:10418000FB681344FB6000BFFFF7DEFF0246BB681D
:10419000D31AFA689A42F7D800BF00BF1037BD465D
:1041A00080BD00BF1800002080B400AF054B1B6825
:1041B000044A23F00203136000BFBD465DF8047B90
:1041C000704700BF10E000E080B400AF054B1B68F3
:1041D000044A43F00203136000BFBD465DF8047B50
:1041E000704700BF10E000E080B400AF034B1B68D5
:1041F0001846BD465DF8047B704700BF107AFF1F6C
:1042000080B400AF034B1B681846BD465DF8047BC5
:10421000704700BF147AFF1F80B400AF034B1B68C8
:104220001846BD465DF8047B704700BF187AFF1F33
:1042300080B584B000AF78600023FB737B68002BEF
:1042400001D1012333E07B681B6C002B09D1786816
:10425000FFF760FA7B6800225A647B68002283F8CB
:104260003C207B681B6C03F01003002B18D17B688B
:104270001B6C23F4885323F0020343F002027B6893
:104280001A64786800F0ECFA7B6800225A647B6854
:104290001B6C23F0030343F001027B681A6401E006
:1042A0000123FB737B68002283F83C20FB7B1846CC
:1042B0001037BD4680BD80B584B000AF7860002364
:1042C000FB737B68002B01D1012322E07B681B6C10
:1042D00043F002027B681A647B681B689A687B68FB
:1042E0001B6822F001029A607B681B689B6803F0E0
:1042F0000103002B08D17868FFF750FA7B68002291
:104300005A647B6800221A647B68002283F83C2090
:10431000FB7B18461037BD4680BD000080B485B0D9
:1043200000AF78600023BB607B6893F83C30012BC2
:1043300001D1022397E07B68012283F83C207B684F
:104340001B689B6803F00103012B18D07B681B6876
:104350009A687B681B6842F001029A60454B1B68B3
:10436000454AA2FB03239A0C13465B001344BB602F
:1043700002E0BB68013BBB60BB68002BF9D17B68E6
:104380001B689B6803F00103012B5FD17B681B6CEA
:1043900023F4E06323F0010343F480727B681A6422
:1043A0007B681B685B6803F48063002B07D07B6825
:1043B0001B6C23F4405343F480527B681A647B687F
:1043C0001B6C03F48053B3F5805F06D17B685B6C94
:1043D00023F006027B685A6402E07B6800225A647C
:1043E0007B68002283F83C20244BFB607B681B68C1
:1043F0006FF022021A60FB685B6803F01F03002B5A
:104400000FD17B681B689B6803F04053002B29D1B8
:104410007B681B689A687B681B6842F080429A60E0
:1044200020E07B681B68164A93421BD17B681B689F
:104430009B6803F04053002B14D17B681B689A687B
:104440007B681B6842F080429A600BE07B681B6CC3
:1044500043F010027B681A647B685B6C43F00102D6
:104460007B685A64002318461437BD465DF8047B08
:10447000704700BF1000002083DE1B430023014073
:104480000020014080B483B000AF78607B6893F86F
:104490003C30012B01D1022321E07B68012283F80B
:1044A0003C207B681B689A687B681B6822F00102CD
:1044B0009A607B681B689B6803F00103002B09D19D
:1044C0007B681B6C23F4885323F0010343F0010243
:1044D0007B681A647B68002283F83C20002318461E
:1044E0000C37BD465DF8047B704780B584B000AFE3
:1044F000786039600023FB607B681B689B6803F46D
:104500008063B3F5806F13D17B681B689B6803F4ED
:104510008073B3F5807F0BD17B681B6C43F0200266
:104520007B681A647B68002283F83C20012363E0E7
:10453000FFF70AFEF86021E03B68B3F1FF3F1DD0B2
:104540003B68002B07D0FFF7FFFD0246FB68D31A3C
:104550003A689A4212D27B681B681B6803F0020318
:10456000022B0BD07B681B6C43F004027B681A643F
:104570007B68002283F83C2003233DE07B681B68B6
:104580001B6803F00203022BD6D17B681B686FF017
:1045900012021A607B681B6C43F400727B681A6419
:1045A0007B681B689B6803F04053002B23D17B681A
:1045B0001B7E002B1FD17B681B68DB6A03F4700332
:1045C000002B06D07B681B689B6803F48063002B7C
:1045D00011D17B681B6C23F480727B681A647B6842
:1045E0001B6C03F48053002B05D17B681B6C43F0DC
:1045F00001027B681A64002318461037BD4680BD4F
:1046000080B483B000AF78607B681B68DB6C1846B1
:104610000C37BD465DF8047B7047000080B485B060
:1046200000AF786039600023BB607B6893F83C3052
:10463000012B01D1022305E17B68012283F83C2094
:104640003B681B68092B25D97B681B68D9683B68C8
:104650001B689BB21A4613465B0013441E3B07229D
:1046600002FA03F3DA437B681B680A40DA607B686E
:104670001B68D9683B689A683B681B689BB2184600
:1046800003465B0003441E3B9A407B681B680A4359
:10469000DA6022E07B681B6819693B681B689BB283
:1046A0001A4613465B001344072202FA03F3DA4367
:1046B0007B681B680A401A617B681B6819693B6844
:1046C0009A683B681B689BB2184603465B0003442C
:1046D0009A407B681B680A431A613B685B68062B3B
:1046E00024D87B681B68596B3B685A6813469B004B
:1046F0001344053B1F2202FA03F3DA437B681B686D
:104700000A405A637B681B68596B3B681B689BB205
:1047100018463B685A6813469B001344053B00FA51
:1047200003F27B681B680A435A634CE03B685B6892
:104730000C2B24D87B681B68196B3B685A6813469E
:104740009B001344233B1F2202FA03F3DA437B68E6
:104750001B680A401A637B681B68196B3B681B68FF
:104760009BB218463B685A6813469B001344233B90
:1047700000FA03F27B681B680A431A6323E07B6834
:104780001B68D96A3B685A6813469B001344413B37
:104790001F2202FA03F3DA437B681B680A40DA62DD
:1047A0007B681B68D96A3B681B689BB218463B68EC
:1047B0005A6813469B001344413B00FA03F27B689E
:1047C0001B680A43DA62224BFB607B681B68214A44
:1047D000934209D13B681B68122B05D1FB685B68CB
:1047E00043F48002FB685A607B681B68194A934255
:1047F00023D13B681B68102B03D03B681B68112B2F
:104800001BD1FB685B6843F40002FB685A603B689D
:104810001B68102B11D1104B1B68104AA2FB0323FD
:104820009A0C13469B0013445B00BB6002E0BB681C
:10483000013BBB60BB68002BF9D17B68002283F889
:104840003C20002318461437BD465DF8047B7047B2
:1048500000230140002001401000002083DE1B43A4
:1048600080B485B000AF7860794BFB60FB685B6813
:1048700023F44032FB685A60FB685A687B685B68C7
:104880001A43FB685A607B681B685A687B681B6820
:1048900022F480725A607B681B6859687B681B69C8
:1048A0001A027B681B680A435A607B681B685A6857
:1048B0007B681B6822F040725A607B681B685968ED
:1048C0007B689A687B681B680A435A607B681B6830
:1048D0009A687B681B6822F400629A607B681B6898
:1048E00099687B68DA687B681B680A439A607B6812
:1048F0009B6A584A934222D07B681B689A687B68FF
:104900001B6822F070629A607B681B6899687B68FC
:104910009A6A7B681B680A439A607B681B689A687E
:104920007B681B6822F040529A607B681B6899681C
:104930007B68DA6A7B681B680A439A600FE07B68D1
:104940001B689A687B681B6822F070629A607B68BB
:104950001B689A687B681B6822F040529A607B68EB
:104960001B689A687B681B6822F002029A607B6869
:104970001B6899687B681B7E5A007B681B680A432A
:104980009A607B6893F82030002B1BD07B681B68F3
:104990005A687B681B6842F400625A607B681B6837
:1049A0005A687B681B6822F460425A607B681B6807
:1049B00059687B685B6A013B5A037B681B680A4342
:1049C0005A6007E07B681B685A687B681B6822F4A2
:1049D00000625A607B681B68DA6A7B681B6822F495
:1049E0007002DA627B681B68D96A7B68DB69013B0D
:1049F0001A057B681B680A43DA627B681B689A6841
:104A00007B681B6822F400729A607B681B68996857
:104A10007B6893F830305A027B681B680A439A60BF
:104A20007B681B689A687B681B6822F480629A60C6
:104A30007B681B6899687B685B699A027B681B6866
:104A40000A439A6000BF1437BD465DF8047B704787
:104A5000002301400100000F80B485B000AF7860F2
:104A600039607B6893F83C30012B01D1022331E09F
:104A70007B68012283F83C20194BFB60FB685B6874
:104A800023F01F02FB685A60FB685A683B681B688A
:104A90001A43FB685A60FB685B6823F44042FB687A
:104AA0005A60FB685A683B685B681A43FB685A6047
:104AB000FB685B6823F47062FB685A60FB685A68A5
:104AC0003B689B681A43FB685A607B68002283F846
:104AD0003C20002318461437BD465DF8047B704720
:104AE0000023014080B485B000AF78607B6803F09C
:104AF0000703FB600C4BDB68BB60BA684FF6FF0333
:104B00001340BB60FB681A02BB68134343F0BF63EA
:104B100043F40033BB60044ABB68D36000BF143762
:104B2000BD465DF8047B704700ED00E080B400AF47
:104B3000044BDB681B0A03F007031846BD465DF80B
:104B4000047B704700ED00E080B483B000AF034603
:104B5000FB7197F90730002B0BDBFB7903F01F0289
:104B6000074997F907305B09012000FA02F241F882
:104B7000232000BF0C37BD465DF8047B704700BFA3
:104B800000E100E080B483B000AF0346FB7197F909
:104B90000730002B12DBFB7903F01F020A4997F95B
:104BA00007305B09012000FA02F2203341F823208C
:104BB000BFF34F8F00BFBFF36F8F00BF00BF0C3735
:104BC000BD465DF8047B704700E100E080B483B02F
:104BD00000AF03463960FB7197F90730002B0ADB01
:104BE0003B68DAB20C4997F907301201D2B20B4494
:104BF00083F800230AE03B68DAB20849FB7903F046
:104C00000F03043B1201D2B20B441A7600BF0C37DB
:104C1000BD465DF8047B704700E100E000ED00E078
:104C200080B489B000AFF860B9607A60FB6803F0C7
:104C30000703FB61FB69C3F10703042B28BF0423AF
:104C4000BB61FB690433062B02D9FB69033B00E01F
:104C500000237B614FF0FF32BB6902FA03F3DA43B2
:104C6000BB681A407B699A404FF0FF317B6901FABB
:104C700003F3D9437B680B40134318462437BD46E2
:104C80005DF8047B7047000080B400AFBFF34F8F26
:104C900000BF064BDB6803F4E0620449044B134396
:104CA000CB60BFF34F8F00BF00BFFDE700ED00E01A
:104CB0000400FA0580B582B000AF78607B68013BE4
:104CC000B3F1807F01D301230FE00A4A7B68013BE7
:104CD00053600F214FF0FF30FFF778FF054B0022A4
:104CE0009A60044B07221A60002318460837BD4615
:104CF00080BD00BF10E000E080B582B000AF7860FA
:104D00007868FFF7EFFE00BF0837BD4680BD80B56D
:104D100086B000AF0346B9607A60FB7300237B6105
:104D2000FFF704FF78617A68B9687869FFF778FF60
:104D3000024697F90F3011461846FFF747FF00BFAC
:104D40001837BD4680BD80B582B000AF0346FB7109
:104D500097F907301846FFF7F7FE00BF0837BD4642
:104D600080BD80B582B000AF0346FB7197F9073074
:104D70001846FFF707FF00BF0837BD4680BD80B566
:104D800000AFFFF781FF80B582B000AF7860786830
:104D9000FFF790FF034618460837BD4680BD000068
:104DA00080B586B000AF786000237B61FFF7CCF957
:104DB00038617B68002B01D1012399E07B680222D6
:104DC00083F835207B68002283F834207B681B68D9
:104DD0001A687B681B6822F001021A600FE0FFF777
:104DE000B3F902463B69D31A052B08D97B68202208
:104DF0005A657B68032283F83520032378E07B68BB
:104E00001B681B6803F00103002BE8D17B681B685B
:104E10001B687B617A69384B13407B617B685A68F9
:104E20007B689B681A437B68DB681A437B681B6955
:104E30001A437B685B691A437B689B691A437B68EA
:104E4000DB691A437B681B6A13437A6913437B61EE
:104E50007B685B6A042B07D17B68DA6A7B681B6B13
:104E600013437A6913437B617B681B687A691A6014
:104E70007B681B685B697B617B6923F007037B614F
:104E80007B685B6A7A6913437B617B685B6A042B8E
:104E900017D17B689B6A7A6913437B617B68DB6A05
:104EA000002B0ED0786800F043FB0346002B08D09F
:104EB0007B6840225A657B68012283F835200123F4
:104EC00016E07B681B687A695A61786800F0FAFA24
:104ED0000346FB607B68DB6D3F229A40FB689A606B
:104EE0007B6800225A657B68012283F83520002305
:104EF00018461837BD4680BD3F8010F080B584B09D
:104F000000AF78607B68002B01D1012350E07B6803
:104F100093F83530DBB2022B01D1022348E07B68E5
:104F20001B681A687B681B6822F001021A607B68A4
:104F30001B6800221A607B681B6800225A607B682D
:104F40001B6800229A607B681B680022DA607B681D
:104F50001B6800221A617B681B6821225A617868ED
:104F600000F0B0FA0346FB607B680022DA637B68DE
:104F700000221A647B6800225A647B6800229A64CB
:104F80007B680022DA647B6800221A657B68DB6D2F
:104F90003F229A40FB689A607B6800225A657B68D2
:104FA000002283F835207B68002283F83420002318
:104FB00018461037BD4680BD80B586B000AFF8609A
:104FC000B9607A603B600023FB75FB6893F834306E
:104FD000012B01D1022326E0FB68012283F8342053
:104FE000FB6893F83530DBB2012B15D1FB68022248
:104FF00083F83520FB6800225A653B687A68B968F7
:10500000F86800F031FAFB681B681A68FB681B68D7
:1050100042F001021A6005E0FB68002283F83420A8
:105020000223FB75FB7D18461837BD4680BD80B551
:1050300084B000AF78607B689B6DFB60FFF784F8FD
:10504000B8607B6893F83530DBB2022B08D07B6800
:1050500080225A657B68002283F83420012352E0C5
:105060007B681B681A687B681B6822F016021A604E
:105070007B681B685A697B681B6822F080025A6152
:105080007B681B6C002B03D17B689B6C002B07D0CB
:105090007B681B681A687B681B6822F008021A602C
:1050A0007B681B681A687B681B6822F001021A6023
:1050B00013E0FFF749F80246BB68D31A052B0CD959
:1050C0007B6820225A657B68032283F835207B6841
:1050D000002283F83420032315E07B681B681B68DB
:1050E00003F00103002BE4D17B68DB6D3F229A4083
:1050F000FB689A607B68012283F835207B68002278
:1051000083F83420002318461037BD4680BD80B494
:1051100083B000AF78607B6893F83530DBB2022B48
:1051200004D07B6880225A6501230CE07B6805224D
:1051300083F835207B681B681A687B681B6822F03F
:1051400001021A60002318460C37BD465DF8047B47
:105150007047000080B586B000AF78600023BB6068
:105160008E4B1B688E4AA2FB03239B0A7B617B68E4
:105170009B6D3B613B691B68FB607B68DB6D0822B4
:105180009A40FB681340002B1AD07B681B681B6891
:1051900003F00403002B13D07B681B681A687B683C
:1051A0001B6822F004021A607B68DB6D08229A40BB
:1051B0003B699A607B685B6D43F001027B685A65CE
:1051C0007B68DB6D01229A40FB681340002B12D0F4
:1051D0007B681B685B6903F08003002B0BD07B6846
:1051E000DB6D01229A403B699A607B685B6D43F0FE
:1051F00002027B685A657B68DB6D04229A40FB687B
:105200001340002B12D07B681B681B6803F002035D
:10521000002B0BD07B68DB6D04229A403B699A60BF
:105220007B685B6D43F004027B685A657B68DB6DCD
:1052300010229A40FB681340002B43D07B681B6808
:105240001B6803F00803002B3CD07B68DB6D102249
:105250009A403B699A607B681B681B6803F4802353
:10526000002B18D07B681B681B6803F40023002BFD
:1052700008D17B681B6C002B24D07B681B6C786882
:1052800098471FE07B689B6C002B1BD07B689B6C56
:105290007868984716E07B681B681B6803F4807386
:1052A000002B07D17B681B681A687B681B6822F09B
:1052B00008021A607B681B6C002B03D07B681B6C98
:1052C000786898477B68DB6D20229A40FB68134022
:1052D000002B00F08F807B681B681B6803F01003B5
:1052E000002B00F087807B68DB6D20229A403B69B1
:1052F0009A607B6893F83530DBB2052B36D17B683A
:105300001B681A687B681B6822F016021A607B68AB
:105310001B685A697B681B6822F080025A617B68AF
:105320001B6C002B03D17B689B6C002B07D07B6828
:105330001B681A687B681B6822F008021A607B6889
:10534000DB6D3F229A403B699A607B68012283F8BB
:1053500035207B68002283F834207B681B6D002B8E
:105360007ED07B681B6D7868984779E07B681B6806
:105370001B6803F48023002B1DD07B681B681B680F
:1053800003F40023002B0DD17B685B6C002B31D024
:105390007B685B6C786898472CE000BF10000020A9
:1053A000B5814E1B7B68DB6B002B23D07B68DB6BEE
:1053B000786898471EE07B681B681B6803F480735D
:1053C000002B0FD17B681B681A687B681B6822F072
:1053D00010021A607B68012283F835207B68002266
:1053E00083F834207B68DB6B002B03D07B68DB6B9E
:1053F000786898477B685B6D002B32D07B685B6D6B
:1054000003F00103002B22D07B68052283F83520AE
:105410007B681B681A687B681B6822F001021A60AF
:10542000BB680133BB607A699A4207D37B681B680B
:105430001B6803F00103002BF2D100E000BF7B6882
:10544000012283F835207B68002283F834207B68B2
:10545000DB6C002B05D07B68DB6C7868984700E03C
:1054600000BF1837BD4680BD80B485B000AFF8607E
:10547000B9607A603B60FB681B681A68FB681B6850
:1054800022F480221A60FB681B683A685A60FB6845
:105490009B68402B08D1FB681B687A689A60FB68A0
:1054A0001B68BA68DA6007E0FB681B68BA689A6034
:1054B000FB681B687A68DA6000BF1437BD465DF888
:1054C000047B704780B485B000AF78607B681B6850
:1054D000DBB2103B144AA2FB03231B09FB60134AF7
:1054E000FB6813441B781A467B68DA65FB68032B5C
:1054F00009D97B681B6823F47F7323F003031A1D0B
:105500007B689A6507E07B681B6823F47F7323F050
:1055100003037A6893657B689B6D18461437BD4614
:105520005DF8047B704700BFABAAAAAA0851020825
:1055300080B485B000AF78600023FB737B689B6A02
:10554000BB607B689B69002B1FD1BB68032B56D8BF
:1055500001A252F823F000BF695500087B550008EE
:1055600069550008FF5500087B68DB6A03F080730B
:10557000002B46D00123FB7343E07B68DB6AB3F169
:10558000C07F40D10123FB733DE07B689B69B3F58D
:10559000005F21D1BB68032B37D801A252F823F05A
:1055A000B1550008B7550008B1550008C9550008A5
:1055B0000123FB7330E07B68DB6A03F08073002B10
:1055C00025D00123FB7322E07B68DB6AB3F1C07F47
:1055D0001FD10123FB731CE0BB68022B03D9BB68FE
:1055E000032B03D018E00123FB7315E07B68DB6A13
:1055F00003F08073002B0ED00123FB730BE000BF80
:105600000AE000BF08E000BF06E000BF04E000BF02
:1056100002E000BF00E000BFFB7B18461437BD4628
:105620005DF8047B704700BF80B586B000AFF860BE
:10563000B960C7E900230123FB75234B1B7E012BB7
:1056400001D102233BE0204B01221A764CF250306C
:1056500000F07CF80346FB75FB7D002B2BD1FB682B
:10566000002B05D13B781946B86800F027F916E001
:10567000FB68012B05D13B881946B86800F0FAF8A1
:105680000DE0FB68022B05D13B681946B86800F0B5
:10569000CFF804E0D7E90023B86800F097F84CF29F
:1056A000503000F053F80346FB75084B1B69074A5E
:1056B00023F001031361044B00221A76FB7D184688
:1056C0001837BD4680BD00BF0C1B0020003C0240C7
:1056D00080B483B000AF0023FB710B4B1B69002B20
:1056E0000BDA094B094A5A60074B094A5A60064BC4
:1056F0001B69002B01DA0123FB71FB7918460C377B
:10570000BD465DF8047B7047003C024023016745BD
:10571000AB89EFCD80B400AF054B1B69044A43F061
:105720000043136100231846BD465DF8047B7047B3
:10573000003C024080B400AF034BDB691846BD4615
:105740005DF8047B704700BF0C1B002080B584B05F
:1057500000AF78600023FB601A4B0022DA61FEF78D
:10576000F3FCF86010E07B68B3F1FF3F0CD07B687E
:10577000002B07D0FEF7E8FC0246FB68D31A7A68D4
:105780009A4201D2032319E00F4BDB6803F4803304
:10579000002BE8D10C4BDB6803F00103002B02D097
:1057A000094B0122DA60084BDB6803F4F973002B24
:1057B00003D000F0A5F8012300E0002318461037BD
:1057C000BD4680BD0C1B0020003C024080B485B06B
:1057D00000AFF860C7E90023144B1B69134A23F498
:1057E00040731361114B1B69104A43F440731361FA
:1057F0000E4B1B690D4A43F001031361FB683A68C5
:105800001A60BFF36F8F00BFD7E900014FF00002AD
:105810004FF000030A000023F968043113460B60BF
:1058200000BF1437BD465DF8047B7047003C024062
:1058300080B483B000AF786039600D4B1B690C4AAF
:1058400023F4407313610A4B1B69094A43F4007344
:105850001361074B1B69064A43F0010313617B6820
:105860003A681A6000BF0C37BD465DF8047B70478C
:10587000003C024080B483B000AF78600B467B8070
:105880000D4B1B690C4A23F4407313610A4B1B69CF
:10589000094A43F480731361074B1B69064A43F0BE
:1058A000010313617B687A881A8000BF0C37BD46FC
:1058B0005DF8047B704700BF003C024080B483B0B9
:1058C00000AF78600B46FB700C4B1B690B4A23F44E
:1058D00040731361094B094A1B691361074B1B692C
:1058E000064A43F0010313617B68FA781A7000BF1F
:1058F0000C37BD465DF8047B704700BF003C02409A
:1059000080B400AF2F4BDB6803F01003002B08D0EE
:105910002D4BDB6943F010032B4AD361294B102236
:10592000DA60284BDB6803F02003002B08D0264BFD
:10593000DB6943F00803244AD361224B2022DA605A
:10594000204BDB6803F04003002B08D01E4BDB69C3
:1059500043F004031C4AD3611A4B4022DA60194B0E
:10596000DB6803F08003002B08D0174BDB6943F0A2
:105970000203154AD361134B8022DA60114BDB68B6
:1059800003F48073002B09D00F4BDB6943F0010354
:105990000D4AD3610B4B4FF48072DA60094BDB6820
:1059A00003F00203002B08D0074BDB6943F0200310
:1059B000054AD361034B0222DA6000BFBD465DF8A1
:1059C000047B7047003C02400C1B002080B584B073
:1059D00000AF786039600123FB730023BB60314B5B
:1059E0001B7E012B01D1022358E02E4B01221A7697
:1059F0004CF25030FFF7AAFE0346FB73FB7B002BF3
:105A000048D13B684FF0FF321A607B681B68012B5E
:105A100015D17B681B69DAB27B685B681946104652
:105A200000F044F84CF25030FFF790FE0346FB7351
:105A30001D4B1B691C4A23F00403136128E07B689B
:105A40009B68BB601CE07B681B69DBB21946B868C9
:105A500000F050F84CF25030FFF778FE0346FB732D
:105A6000114B1B69104A23F0FA031361FB7B002BD7
:105A700003D03B68BA681A600AE0BB680133BB60B8
:105A80007B68DA687B689B681344BA689A42DAD309
:105A900000F078F8034B00221A76FB7B184610378B
:105AA000BD4680BD0C1B0020003C024080B483B08A
:105AB00000AF03463960FB710D4B1B690C4A23F4A0
:105AC000407313610A4B1B69094A43F004031361D5
:105AD000074B1A69FB791B021343054A43F48033D1
