:020000040800F2
:10000000008001205D2B0008D5280008DF280008AB
:10001000E9280008F3280008FD2800080000000077
:100020000000000000000000000000000729000898
:1000300013290008000000001F2900082B290008D0
:10004000AD2B0008AD2B0008AD2B0008AD2B000830
:10005000AD2B0008AD2B0008AD2B0008AD2B000820
:10006000AD2B0008AD2B0008AD2B0008AD2B000810
:10007000AD2B0008AD2B0008AD2B0008AD2B000800
:10008000AD2B0008AD2B0008AD2B000800000000D0
:1000900000000000000000000000000037290008F8
:1000A000AD2B0008AD2B0008AD2B0008AD2B0008D0
:1000B00049290008AD2B0008AD2B0008AD2B000826
:1000C000AD2B0008AD2B0008AD2B0008AD2B0008B0
:1000D000AD2B00085D290008712900080000000010
:1000E000AD2B000885290008AD2B0008000000009A
:1000F000000000000000000000000000AD2B000820
:1001000000000000AD2B0008AD2B0008AD2B00084F
:1001100000000000000000000000000000000000DF
:10012000AD2B0008AD2B0008AD2B0008AD2B00084F
:10013000AD2B0008000000000000000000000000DF
:1001400000000000000000000000000099290008E5
:10015000AD2B0008AD2B0008AD2B0008AD2B00081F
:10016000AD2B0008AD2B00080000000000000000CF
:10017000000000000000000000000000000000007F
:1001800000000000AD2B000800000000000000008F
:04019000AD2B00088B
:1001A00010B5054C237833B9044B13B10448AFF3B1
:1001B00000800123237010BD140300200000000004
:1001C00088E2010808B5034B1BB103490348AFF3AC
:1001D000008008BD000000001803002088E201082C
:1001E00010F8012B11F8013B012A28BF9A42F7D0E1
:1001F000D01A7047034613F8012B002AFBD1181AB6
:1002000001387047000000000000000000000000FE
:1002100001F0FF01102A2BDB10F0070F08D010F8B7
:10022000013B013A8B422DD010F0070F42B3F6D1BB
:10023000F0B441EA012141EA014122F007047FF0D4
:1002400000070023F0E80256083C85EA010586EA2B
:10025000010685FA47F5A3FA87F586FA47F6A5FA67
:1002600087F68EB9EED1F0BC01F0FF0102F0070273
:1002700032B110F8013B013A83EA010313B1F8D11E
:100280000020704701387047002D06BF35460338FF
:10029000073815F0010F07D1013015F4807F02BF38
:1002A000013015F4C03F0130F0BC0138704700BF89
:1002B00081F0004102E000BF83F0004330B54FEA17
:1002C00041044FEA430594EA050F08BF90EA020F84
:1002D0001FBF54EA000C55EA020C7FEA645C7FEA17
:1002E000655C00F0E2804FEA5454D4EB5555B8BF3A
:1002F0006D420CDD2C4480EA020281EA030382EAAB
:10030000000083EA010180EA020281EA0303362D3C
:1003100088BF30BD11F0004F4FEA01314FF4801C0F
:100320004CEA113102D0404261EB410113F0004F21
:100330004FEA03334CEA133302D0524263EB4303D8
:1003400094EA050F00F0A780A4F10104D5F1200E76
:100350000DDB02FA0EFC22FA05F2801841F10001D1
:1003600003FA0EF2801843FA05F359410EE0A5F1A5
:1003700020050EF1200E012A03FA0EFC28BF4CF0D6
:10038000020C43FA05F3C01851EBE37101F000458C
:1003900007D54FF0000EDCF1000C7EEB00006EEB99
:1003A0000101B1F5801F1BD3B1F5001F0CD3490823
:1003B0005FEA30004FEA3C0C04F101044FEA44527A
:1003C00012F5800F80F09A80BCF1004F08BF5FEA01
:1003D000500C50F1000041EB045141EA050130BDE1
:1003E0005FEA4C0C404141EB0101013C28BFB1F5F3
:1003F000801FE9D291F0000F04BF01460020B1FA3E
:1004000081F308BF2033A3F10B03B3F120020CDA10
:100410000C3208DD02F1140CC2F10C0201FA0CF0EE
:1004200021FA02F10CE002F11402D8BFC2F1200C53
:1004300001FA02F120FA0CFCDCBF41EA0C01904009
:10044000E41AA2BF01EB0451294330BD6FEA040452
:100450001F3C1CDA0C340EDC04F11404C4F120023D
:1004600020FA04F001FA02F340EA030021FA04F34F
:1004700045EA030130BDC4F10C04C4F1200220FAA6
:1004800002F001FA04F340EA0300294630BD21FAE4
:1004900004F0294630BD94F0000F83F4801306BFAA
:1004A00081F480110134013D4EE77FEA645C18BF9E
:1004B0007FEA655C29D094EA050F08BF90EA020F35
:1004C00005D054EA000C04BF1946104630BD91EA2D
:1004D000030F1EBF0021002030BD5FEA545C05D130
:1004E0004000494128BF41F0004130BD14F580046F
:1004F0003CBF01F5801130BD01F0004545F0FE41E3
:1005000041F470014FF0000030BD7FEA645C1ABF17
:10051000194610467FEA655C1CBF0B46024650EA4E
:10052000013406BF52EA033591EA030F41F400217A
:1005300030BD00BF90F0000F04BF0021704730B500
:100540004FF4806404F132044FF000054FF00001D5
:1005500050E700BF90F0000F04BF0021704730B596
:100560004FF4806404F1320410F0004548BF40426B
:100570004FF000013EE700BF42004FEAE2014FEAC0
:1005800031014FEA02701FBF12F07F4393F07F4F9B
:1005900081F06051704732F07F4208BF704793F09E
:1005A0007F4F04BF41F40021704730B54FF46074B1
:1005B00001F0004521F000411CE700BF50EA0102B4
:1005C00008BF704730B54FF000050AE050EA01025D
:1005D00008BF704730B511F0004502D5404261EBCD
:1005E00041014FF4806404F132045FEA915C3FF40E
:1005F000D8AE4FF003025FEADC0C18BF03325FEAAB
:10060000DC0C18BF033202EBDC02C2F1200300FA5B
:1006100003FC20FA02F001FA03FE40EA0E0021FA80
:1006200002F11444BDE600BF70B54FF0FF0C4CF46E
:10063000E06C1CEA11541DBF1CEA135594EA0C0F20
:1006400095EA0C0F00F0DEF82C4481EA030621EA5B
:100650004C5123EA4C5350EA013518BF52EA033596
:1006600041F4801143F4801338D0A0FB02CE4FF048
:100670000005E1FB02E506F00042E0FB03E54FF078
:100680000006E1FB03569CF0000F18BF4EF0010E70
:10069000A4F1FF04B6F5007F64F5407404D25FEA6C
:1006A0004E0E6D4146EB060642EAC62141EA55511F
:1006B0004FEAC52040EA5E504FEACE2EB4F1FD0C61
:1006C00088BFBCF5E06F1ED8BEF1004F08BF5FEADF
:1006D000500E50F1000041EB045170BD06F0004691
:1006E00046EA010140EA020081EA0301B4EB5C043E
:1006F000C2BFD4EB0C0541EA045170BD41F4801136
:100700004FF0000E013C00F3AB8014F1360FDEBF5A
:10071000002001F0004170BDC4F10004203C35DA36
:100720000C341BDC04F11404C4F1200500FA05F3B9
:1007300020FA04F001FA05F240EA020001F000425A
:1007400021F0004110EBD37021FA04F642EB0601D0
:100750005EEA430E08BF20EAD37070BDC4F10C04FA
:10076000C4F1200500FA04F320FA05F001FA04F2BE
:1007700040EA020001F0004110EBD37041F10001AA
:100780005EEA430E08BF20EAD37070BDC4F12005B5
:1007900000FA05F24EEA020E20FA04F301FA05F21D
:1007A00043EA020321FA04F001F0004121FA04F2C5
:1007B00020EA020000EBD3705EEA430E08BF20EA95
:1007C000D37070BD94F0000F0FD101F000464000CF
:1007D00041EB010111F4801F08BF013CF7D041EA51
:1007E000060195F0000F18BF704703F00046520055
:1007F00043EB030313F4801F08BF013DF7D043EA26
:100800000603704794EA0C0F0CEA135518BF95EADB
:100810000C0F0CD050EA410618BF52EA4306D1D162
:1008200081EA030101F000414FF0000070BD50EA81
:10083000410606BF1046194652EA430619D094EA0B
:100840000C0F02D150EA013613D195EA0C0F05D1F5
:1008500052EA03361CBF104619460AD181EA030149
:1008600001F0004141F0FE4141F470014FF0000001
:1008700070BD41F0FE4141F4780170BD70B54FF09C
:10088000FF0C4CF4E06C1CEA11541DBF1CEA13551C
:1008900094EA0C0F95EA0C0F00F0A7F8A4EB0504FE
:1008A00081EA030E52EA03354FEA013100F08880F5
:1008B0004FEA03334FF0805545EA131343EA1263BE
:1008C0004FEA022245EA111545EA10654FEA002673
:1008D0000EF000419D4208BF964244F1FD0404F52C
:1008E000407402D25B084FEA3202B61A65EB030588
:1008F0005B084FEA32024FF480104FF4002CB6EB45
:10090000020E75EB030E22BFB61A754640EA0C00C4
:100910005B084FEA3202B6EB020E75EB030E22BF04
:10092000B61A754640EA5C005B084FEA3202B6EB45
:10093000020E75EB030E22BFB61A754640EA9C0004
:100940005B084FEA3202B6EB020E75EB030E22BFD4
:10095000B61A754640EADC0055EA060E18D04FEA92
:10096000051545EA16754FEA06164FEAC30343EA32
:1009700052734FEAC2025FEA1C1CC0D111F4801FFF
:100980000BD141EA00014FF000004FF0004CB6E7F8
:1009900011F4801F04BF01430020B4F1FD0C88BF97
:1009A000BCF5E06F3FF6AFAEB5EB030C04BFB6EBA2
:1009B000020C5FEA500C50F1000041EB045170BD95
:1009C0000EF0004E4EEA113114EB5C04C2BFD4EBC2
:1009D0000C0541EA045170BD41F480114FF0000E46
:1009E000013C90E645EA060E8DE60CEA135594EAC2
:1009F0000C0F08BF95EA0C0F3FF43BAF94EA0C0FC5
:100A00000AD150EA01347FF434AF95EA0C0F7FF439
:100A100025AF104619462CE795EA0C0F06D152EA8D
:100A200003353FF4FDAE1046194622E750EA410671
:100A300018BF52EA43067FF4C5AE50EA41047FF482
:100A40000DAF52EA43057FF4EBAE12E74FF0FF3CE7
:100A500006E000BF4FF0010C02E000BF4FF0010CB8
:100A60004DF804CD4FEA410C7FEA6C5C4FEA430C31
:100A700018BF7FEA6C5C1BD001B050EA410C0CBF80
:100A800052EA430C91EA030F02BF90EA020F0020E2
:100A9000704710F1000F91EA030F58BF994208BF49
:100AA00090422CBFD8176FEAE37040F00100704706
:100AB0004FEA410C7FEA6C5C02D150EA013C07D15D
:100AC0004FEA430C7FEA6C5CD6D152EA033CD3D0A8
:100AD0005DF8040B704700BF8446104662468C46A2
:100AE0001946634600E000BF01B5FFF7B7FF0028D5
:100AF00048BF10F1000F01BD4DF808EDFFF7F4FFFE
:100B00000CBF012000205DF808FB00BF4DF808ED88
:100B1000FFF7EAFF34BF012000205DF808FB00BFAB
:100B20004DF808EDFFF7E0FF94BF012000205DF8CD
:100B300008FB00BF4DF808EDFFF7CEFF94BF012082
:100B400000205DF808FB00BF4DF808EDFFF7C4FF7B
:100B500034BF012000205DF808FB00BF4FEA410CC4
:100B60007FEA6C5C02D150EA013C0AD14FEA430CA7
:100B70007FEA6C5C02D152EA033C02D14FF00000E4
:100B800070474FF0010070474FEA410212F5001222
:100B900015D211D56FF47873B3EB625212D94FEAC4
:100BA000C12343F0004343EA505311F0004F23FAAE
:100BB00002F018BF404270474FF00000704750EA03
:100BC000013005D111F0004008BF6FF000407047C0
:100BD0004FF00000704700BF4A0011D212F500121A
:100BE00011D20DD56FF47873B3EB62520ED44FEA85
:100BF000C12343F0004343EA505323FA02F0704705
:100C00004FF00000704750EA013002D14FF0FF3042
:100C100070474FF0000070474FEA4102B2F1E043E5
:100C200024BFB3F5001CDCF1FE5C0DD901F0004CD3
:100C30004FEAC0024CEA5070B2F1004F40EB830023
:100C400008BF20F00100704711F0804F21D113F14F
:100C50003872BCBF01F00040704741F480114FEA88
:100C60005252C2F11802C2F1200C10FA0CF320FA11
:100C700002F018BF40F001004FEAC1234FEAD3232E
:100C800003FA0CFC40EA0C0023FA02F34FEA430398
:100C9000CCE77FEA625307D150EA01331EBF4FF021
:100CA000FE4040F44000704701F0004040F0FE403C
:100CB00040F40000704700BF53B94AB9002908BF8B
:100CC00000281CBF4FF0FF314FF0FF3000F0AAB9F1
:100CD000ADF1080C6DE904CE00F03CF8DDF804E05D
:100CE000DDE9022304B0704738B500220023044632
:100CF0000D46FFF70BFF28B920462946BDE83840CE
:100D000000F00AB8204605F1004100F005F8404225
:100D100061EB410138BD00BFD0B50C4B0022064647
:100D20000F46FFF781FCFFF757FF0446FFF702FC71
:100D3000074B0022FFF778FC02460B463046394647
:100D4000FFF7BAFAFFF748FF2146D0BD0000F03D9B
:100D50000000F0412DE9F047089D04468E46002B27
:100D60004DD18A42944669D9B2FA82F252B101FA5F
:100D700002F3C2F1200120FA01F10CFA02FC41EA6F
:100D8000030E94404FEA1C48210CBEFBF8F61FFAF4
:100D90008CF708FB16E341EA034306FB07F199428F
:100DA0000AD91CEB030306F1FF3080F01F81994242
:100DB00040F21C81023E63445B1AA4B2B3FBF8F01C
:100DC00008FB103344EA034400FB07F7A7420AD9A3
:100DD0001CEB040400F1FF3380F00A81A74240F2CB
:100DE00007816444023840EA0640E41B00261DB136
:100DF000D4400023C5E900433146BDE8F0878B426B
:100E000009D9002D00F0EF800026C5E90001304629
:100E10003146BDE8F087B3FA83F6002E4AD18B4203
:100E200002D3824200F2F980841A61EB03030120AD
:100E30009E46002DE0D0C5E9004EDDE702B9FFDE99
:100E4000B2FA82F2002A40F09280A1EB0C014FEA44
:100E50001C471FFA8CFE0126200CB1FBF7F307FBA1
:100E6000131140EA01410EFB03F0884208D91CEB44
:100E7000010103F1FF3802D2884200F2CB804346E1
:100E8000091AA4B2B1FBF7F007FB101144EA0144C0
:100E90000EFB00FEA64508D91CEB040400F1FF314F
:100EA00002D2A64500F2BB800846A4EB0E0440EA3D
:100EB00003409CE7C6F12007B34022FA07FC4CEA46
:100EC000030C20FA07F401FA06F31C43F9404FEA39
:100ED0001C4900FA06F3B1FBF9F8200C1FFA8CFE4E
:100EE00009FB181140EA014108FB0EF0884202FAA2
:100EF00006F20BD91CEB010108F1FF3A80F0888063
:100F0000884240F28580A8F102086144091AA4B21F
:100F1000B1FBF9F009FB101144EA014100FB0EFEA0
:100F20008E4508D91CEB010100F1FF346CD28E45CF
:100F30006AD90238614440EA0840A0FB0294A1EB60
:100F40000E01A142C846A64656D353D05DB1B3EBBD
:100F5000080261EB0E0101FA07F722FA06F3F140ED
:100F60001F43C5E9007100263146BDE8F087C2F194
:100F70002003D8400CFA02FC21FA03F3914001430C
:100F80004FEA1C471FFA8CFEB3FBF7F007FB103645
:100F90000B0C43EA064300FB0EF69E4204FA02F4F1
:100FA00008D91CEB030300F1FF382FD29E422DD944
:100FB000023863449B1B89B2B3FBF7F607FB163379
:100FC00041EA034106FB0EF38B4208D91CEB0101F9
:100FD00006F1FF3816D28B4214D9023E6144C91A79
:100FE00046EA004638E72E46284605E70646E3E689
:100FF0001846F8E64B45A9D2B9EB020864EB0C0E93
:101000000138A3E74646EAE7204694E74046D1E7A1
:10101000D0467BE7023B614432E7304609E764444F
:10102000023842E7704700BF80B500AF094B01228C
:101030001A700121084803F03BFA0346002B03D045
:10104000064B01221A7002E0044B00221A7000BF06
:1010500080BD00BF110500200000024010050020E7
:1010600080B500AF094B1B680133084A1360074B7A
:101070001B68B3F5803F02D3044B00221A6001F0D5
:10108000FDFD0346024A136000BF80BD0405002039
:101090004807002080B594B000AF07F1200330224C
:1010A0000021184618F052FB07F10C0300221A60C9
:1010B0005A609A60DA601A610023BB60244B1B6C93
:1010C000234A43F080531364214B1B6C03F080537D
:1010D000BB60BB6800237B601E4B1B6823F440434E
:1010E0001C4A43F4004313601A4B1B6803F440434B
:1010F0007B607B6806233B620123BB620123FB62AA
:1011000010233B630023BB6307F12003184605F05F
:101110003FFE0346002B01D001F040F90F23FB6096
:1011200000233B61C0237B610023BB610023FB6183
:1011300007F10C030021184606F0A2F80346002B25
:1011400001D001F02BF900BF5037BD4680BD00BF74
:10115000003802400070004080B594B000AF454BAD
:101160001B68444A43F0010313604FF6FF73A7F86E
:101170004E3000BF3F4B1B6803F00203002B06D12B
:10118000B7F84E305A1EA7F84E20002BF2D1394B3B
:101190009B68384A23F003039360364B1B68354A3B
:1011A00023F08073136007F11C03302200211846DE
:1011B00018F0CCFA07F1080300221A605A609A600E
:1011C000DA601A6100237B602A4B1B6C294A43F0CA
:1011D00080531364274B1B6C03F080537B607B6848
:1011E00000233B60244B1B6823F44043224A43F412
:1011F00000431360204B1B6803F440433B603B6893
:101200000523FB614FF480333B6201237B620223A1
:101210007B634FF48003BB631923FB634FF4A87314
:101220003B6404237B640723BB6407F11C0318465B
:1012300005F0AEFD0346002B01D001F0AFF80F23FF
:10124000BB600223FB6000233B614FF480537B6152
:101250000023BB6107F108030221184606F010F8CD
:101260000346002B01D001F099F800BF5037BD466E
:1012700080BD00BF003802400070004080B582B0E1
:1012800000AF1C4B7B607B68B3F895319BB24FF489
:10129000C252934209D1184A7B681046194640F25F
:1012A00097131A4618F02AFA08E0134A134B10460F
:1012B000194640F297131A4618F020FA10491148BF
:1012C00019F07FFA0346002B04D00F4B012283F85C
:1012D00026200AE00D490B4819F073FA0346002B4B
:1012E00003D0094B002283F8262000BF0837BD46F3
:1012F00080BD00BF000006083003002070FA01081E
:10130000A0E2010894030020C8040020A8E201081C
:1013100080B584B000AF72B600BF2D4BBB6002F049
:10132000BFFB2C4B0122DA602A4B0222DA60294BE8
:101330001022DA60274B2022DA60264B4022DA6046
:10134000244B8022DA60234B4FF48072DA60224B08
:1013500000221A60204B02221A611F4B07229A605A
:101360001D4B0122DA603B4619461B4802F016FD70
:101370000346002B03D002F0C5FB034624E0174BC5
:101380007B60174BFB6016E0BB68D3E90023F9686C
:10139000022002F031FB0346002B06D1FB68043328
:1013A000FB60BB680433BB6005E002F09BFB02F00E
:1013B000A9FB034608E0FA687B689A42E4D302F08E
:1013C00091FB62B600BF002318461037BD4680BDB2
:1013D00030030020003C024064070020970106080B
:1013E0000000060880B500AF144B1B78002B22D0FC
:1013F000134B1B78002B0BD0124807F02FFF11481E
:1014000007F0CAFE104B00221A600D4B00221A7022
:101410000D4B1B68B3F5967F0DD30A4807F01EFFEE
:10142000FFF776FF084B00221A60044B00221A7067
:10143000034B00221A7000BF80BD00BF01050020D1
:1014400002050020B80800200405002080B582B005
:1014500000AF0023FB800FF015FD0FF0C5FB0FF070
:101460005DFA0346FB800FF073FB3A46B91C3B1D47
:1014700018460FF015FB0346FB8000BF0837BD463A
:1014800080BD000080B590B002AF0023FB860FF056
:1014900095F90346FB863E480FF06AFD002387F866
:1014A000353007F1350318460FF0AEFA0346FB86D8
:1014B00097F83530002B66D0364A374937480FF059
:1014C000FBF90346FB86354B5B68354A82FB03120A
:1014D0009211DB17D31A314A5360304B9B68304A64
:1014E00082FB03129211DB17D31A2C4A93602D4B07
:1014F0001B78002B47D0B7F93630002B13D0B7F943
:1015000036203B462849184619F026F93B4618462E
:10151000FEF770FE03469AB239464FF47A732348B9
:1015200008F0DAFA2FE01D4B1B88002B11D13B4647
:101530001F49184619F010F93B461846FEF75AFEA7
:1015400003469AB239464FF47A73184808F0C4FA41
:1015500019E0124B1B881946104B5A680F4B9B68B9
:101560003846009313460A46124919F0F5F83B46EF
:101570001846FEF73FFE03469AB239464FF47A7397
:101580000A4808F0A9FA00BF3837BD4680BD00BF41
:10159000A0860100D0040020CC040020C804002054
:1015A000D34D621000050020B0E2010800090020C0
:1015B000E0E2010804E3010880B58CB000AF042329
:1015C00087F82F300A4810F0E9F810F031F83B1D89
:1015D000184610F023FA0346BB8507F10C031846A2
:1015E00010F0F0F80346BB8500BF3037BD4680BD24
:1015F00040420F002DE9B04FA0B006AF10F00EF939
:101600000346A7F866303A4810F034F90346A7F8C5
:101610006630374B1B68374A1361354B5B68354A78
:101620005361334B9B68334A9361314BDB68314ADA
:10163000D361B7F96630002B54DB2F4B1B78002B9E
:1016400050D0B7F8663043F0FF031BB240F2FF12F0
:10165000934213D1B7F86630DAB23B4627491846B1
:1016600019F07AF83B461846FEF7C4FD03469AB2D5
:1016700039464FF47A73224808F02EFA1C4B1B6847
:101680001846FEF779FF82468B46194B5B68184671
:10169000FEF772FF04460D46154B9B681846FEF791
:1016A0006BFF80468946124BDB681846FEF764FFE5
:1016B00002460B463846CDE90423CDE90289CDE93F
:1016C000004552465B460F4919F046F83B4618461E
:1016D000FEF790FD03469AB239464FF47A730848F4
:1016E00008F0FAF900BF6837BD46BDE8B08F00BF0B
:1016F00020070020C80400200005002034E3010872
:101700000009002068E3010880B500AF1A4B93F888
:101710002A30002B05D0184B002283F82A200DF028
:1017200079F9154B93F82930002B15D0124B002274
:1017300083F8292000224FF40041104802F0D0FE27
:101740004FF4FA7001F0A6FA01224FF400410B4861
:1017500002F0C6FEFFF730FF64230522C4210848CB
:1017600003F088FB0346002B03D0034B012283F8D0
:101770002B2000BF80BD00BFC80400200004024031
:10178000C007002080B500AF104B93F83130002B1C
:101790000BD00E4B93F82C30002B06D10B4B0022B4
:1017A00083F83120042010F025F9084B93F83230EB
:1017B000002B09D0054B002283F83220034B9B8E6F
:1017C000034918460FF0D2F800BF80BDC8040020BE
:1017D000FE04002080B500AF164801F006FB4FF470
:1017E0007A730B221449154808F076F900224FF459
:1017F0000041134802F074FE01220221114802F058
:101800006FFE0FF08BF80FF0C9F90DF0F7F80FF03D
:101810006BFB0FF04DFF17F041F90B4807F067FC29
:10182000FFF738FC01F05AFA0121012005F084FA93
:1018300000BF80BD78070020A0E301080009002058
:101840000004024000000240B808002080B500AF4C
:1018500001F054FAFFF780FC01224FF400411A48CE
:1018600002F03EFE00220221184802F039FE0DF07F
:10187000D1F800F0AFFBFFF7E9FD17F021F94FF4C5
:101880000071124802F014FE0346002B02D1FFF74C
:1018900093FE0FE00E4B012283F82C200C4B01220B
:1018A00083F82F200B4B00221A6001F0E7F9034662
:1018B000094A13604FF47A730A220849084808F06D
:1018C0000BF900BF80BD00BF0004024000000240D1
:1018D000C80400200C05002050070020ACE30108DC
:1018E0000009002090B583B000AF01F023FA034651
:1018F000DBB27B6001F01EFA03461D4A1B0A13602F
:101900001C4C01F023FA034623607B68232B09D982
:101910007B683D2B28BF3D23DBB23D33DAB2144B4D
:10192000DA710BE07B68092B01D9412200E03022FB
:101930007B68DBB21344DAB20D4BDA7101F0EEF9D9
:1019400003461B0CDBB219460B480EF019FE01F0E2
:10195000E5F90346DBB2194608480EF011FE044BC8
:1019600000221A73024B18460C37BD4690BD00BFCB
:1019700054070020570700205C0700205E07002066
:1019800080B588B000AF0123FB7738220021AB4837
:1019900017F0DCFEFFF772FC17F092F801F06EF919
:1019A0000346A74A13604FF40071A64802F080FD79
:1019B0000346002B02D1FFF7FFFD12E09F4B0022F0
:1019C00083F82C209D4B012283F82E209B4B012273
:1019D00083F82D20994B012283F82F209A4B002267
:1019E0001A60FFF733FD0DF049F80EF055FC07F1D2
:1019F000180300221946954806F002F9BA7E8F4B6B
:101A000083F827209249934816F0DEFF03461A46D2
:101A10008A4B83F83020C82315228F498F4808F05D
:101A20005BF801F02BF903468D4A136001F026F9AB
:101A300003468C4A13600123FB7727E14FF40071C2
:101A4000804802F035FD0346002B04D001F016F962
:101A50000346834A13603B1D002219467B4805F06C
:101A6000EDFF3B4600221946784806F0C9F8734B53
:101A700093F82720BB789A4207D0704B012283F855
:101A80002820BA786D4B83F82720FFF73DFE6B4B7B
:101A900093F82C30002B04D1684B93F82E30002B98
:101AA00040D0664B93F82E30002B03D06E4B0122B2
:101AB0001A7003E0614B012283F82D2001F0DEF85B
:101AC00002465F4B1B68D21A684B1B689A4224D3AC
:101AD0005A4B93F93030B3F1FF3F08D1574B93F88D
:101AE0002E30002B03D05A495A4816F06DFF534B45
:101AF000002283F82E20514B002283F82C204F4BDC
:101B0000002283F82D20584B00221A70FFF754FD55
:101B100001F0B4F80346534A136001F0AFF80346EE
:101B20004F4A13600CF05EFF0AE00CF05BFF434B82
:101B300093F82B30002B01D1FFF7A4FCFFF75AFDDF
:101B400001F09CF80246474B1B68D21A484B1B68B1
:101B50009A4209D8394B93F82C30002B04D1374BDB
:101B600093F82E30002BE0D0FFF70CFEFB7F002B0C
:101B700017D0324B93F82C30002B12D12F4B93F807
:101B80002E30002B0DD14FF400712E4802F090FC46
:101B90000346002B05D10EF0C1FE0FF057FE0023C7
:101BA000FB774FF40071274802F082FC0346002BBC
:101BB0002ED0304B1B78002B2AD0204B93F82C30A2
:101BC000002B25D11D4B93F82830002B09D11B4B3E
:101BD00093F82430002B04D1184B93F82530002BB8
:101BE0000FD0164B002283F82820144B002283F8D4
:101BF0002420124B002283F825201549154816F0A1
:101C0000E3FE16F0C9FE01F039F80346154A1360E9
:101C10000EF042FB18480EF047FDFFF7E3FB0121F1
:101C2000084802F045FC0346002B29D0034B012253
:101C30001A73124B01221A7028E000BFC80400205A
:101C400050070020000002400C050020140800206E
:101C50009403002030030020B8E3010800090020AD
:101C6000480700204C07002008050020080000203D
:101C70000400002025000020E804002011050020B9
:101C80001D4B00221A731D4B01221A7000F0F6FF43
:101C900002461B4B1B68D21A1A4B1B689A427FF6EE
:101CA000CDAE154B93F82830002B09D1124B93F889
:101CB0002430002B04D1104B93F82530002B0FD08B
:101CC0000D4B002283F828200B4B002283F82420A0
:101CD000094B002283F825200B490C4816F074FEAE
:101CE00016F05AFE00F0CAFF0346054A1360FFF7DC
:101CF00071FDFFF7ABFD94E6C8040020110500203C
:101D0000480700200000002094030020300300203A
:101D100080B500AF00F04CFF00F016F800F0FCF9C1
:101D200000F038F900F0A4F900F0FCF800F0CCF86D
:101D300000F050F900F0C6F900F074F80EF0FCF86D
:101D4000FFF71EFEFEE7000080B594B000AF07F17C
:101D5000200330220021184617F0F8FC07F10C038D
:101D600000221A605A609A60DA601A610023BB6030
:101D70002A4B1B6C294A43F080531364274B1B6C7E
:101D800003F08053BB60BB6800237B60244B1B685F
:101D900023F44043224A43F400431360204B1B6862
:101DA00003F440437B607B6805233B624FF4803340
:101DB0007B620123BB620223BB634FF48003FB639E
:101DC00019233B644FF4A8737B640423BB6407238B
:101DD000FB6407F12003184604F0DAFF0346002BEA
:101DE00001D000F0DBFA0F23FB6002233B610023EC
:101DF0007B614FF48053BB610023FB6107F10C034F
:101E00000221184605F03CFA0346002B01D000F0F1
:101E1000C5FA00BF5037BD4680BD00BF0038024044
:101E20000070004080B584B000AF3B4600221A60CD
:101E30005A609A60DA60214B214A1A601F4B4FF4B6
:101E400080325A601D4B00229A601C4B00221A619E
:101E50001A4B00221A76194B002283F82020174BC8
:101E60000022DA62154B174A9A62144B0022DA609C
:101E7000124B0122DA61114B002283F830200F4B04
:101E800001225A610D4800F06DFF0346002B01D07E
:101E900000F084FA0A233B6001237B600023BB60CF
:101EA0003B461946054801F053F90346002B01D083
:101EB00000F074FA00BF1037BD4680BD78070020DF
:101EC000002001400100000F80B500AF124B134A03
:101ED0001A60114B124A5A600F4B00229A600E4B47
:101EE0000022DA600C4B4FF480421A610A4B002248
:101EF0005A61094B00229A61074B0022DA61064BB6
:101F000000221A62044802F01DFB0346002B01D098
:101F100000F044FA00BF80BDC0070020005400401C
:101F2000801A060080B590B000AF07F12C030022A4
:101F30001A605A609A60DA601A610023BB623B46FD
:101F400028220021184617F001FC104B104A1A6095
:101F50000E4B00225A600D4B7F229A600B4BFF22E2
:101F6000DA600A4B00221A61084B00225A61074BC3
:101F700000229A61054805F051FC0346002B01D070
:101F800000F00CFA00BF4037BD4680BD14080020A9
:101F90000028004080B400AF0C4B0D4A1A600B4B78
:101FA00000225A60094B00229A60084B0022DA6036
:101FB000064B00221A61054B00225A61034B052291
:101FC0009A6100BFBD465DF8047B7047340800206D
:101FD000002C014080B586B000AF07F10803002255
:101FE0001A605A609A60DA603B4600221A605A60B2
:101FF0001E4B4FF080421A601C4B4FF47A725A60AD
:102000001A4B00229A60194B42F2D002DA60174B49
:1020100000221A61154B80229A61144807F018F8C3
:102020000346002B01D000F0B9F94FF48053BB6098
:1020300007F1080319460D4807F047FA0346002B3D
:1020400001D000F0ABF900233B6000237B603B46EE
:102050001946064807F042FC0346002B01D000F069
:102060009DF900BF1837BD4680BD00BFB8080020ED
:1020700080B500AF114B124A1A60104B4FF4E13299
:102080005A600E4B00229A600C4B0022DA600B4B18
:1020900000221A61094B0C225A61084B00229A61F6
:1020A000064B0022DA61054807F09AFC0346002B34
:1020B00001D000F073F900BF80BD00BF000900200F
:1020C0000010014080B500AF114B124A1A60104B4E
:1020D0004FF4E1325A600E4B00229A600C4B002202
:1020E000DA600B4B00221A61094B0C225A61084B33
:1020F00000229A61064B0022DA61054807F070FC65
:102100000346002B01D000F049F900BF80BD00BF9D
:10211000440900200044004080B58AB000AF07F1B8
:10212000140300221A605A609A60DA601A61002370
:102130003B615C4B1B6B5B4A43F004031363594BDD
:102140001B6B03F004033B613B690023FB60554BB1
:102150001B6B544A43F080031363524B1B6B03F019
:102160008003FB60FB680023BB604E4B1B6B4D4A3A
:1021700043F0010313634B4B1B6B03F00103BB6084
:10218000BB6800237B60474B1B6B464A43F002034E
:102190001363444B1B6B03F002037B607B680023DB
:1021A0003B60404B1B6B3F4A43F0080313633D4BBE
:1021B0001B6B03F008033B603B68002202213A4896
:1021C00002F08EF901224FF40041384802F088F9FC
:1021D00042F6FE637B610323BB610023FB6107F1D1
:1021E00014031946324801F0FBFE01237B610023F2
:1021F000BB610023FB6107F1140319462A4801F073
:10220000EFFE02237B610123BB610023FB610223FC
:102210003B6207F114031946234801F0E1FE48F23E
:10222000F0537B610323BB610023FB6107F11403BF
:1022300019461D4801F0D4FE47F23F437B6103235A
:10224000BB610023FB6107F114031946174801F035
:10225000C7FE4FF400437B610123BB610023FB6198
:1022600002233B6207F114031946104801F0B8FE3F
:102270004FF400737B614FF48813BB610223FB6151
:1022800007F114031946084801F0AAFE00220021B4
:10229000172001F0D6FA172001F0EFFA00BF283717
:1022A000BD4680BD003802400000024000040240EC
:1022B0000008024080B582B000AF78607B681B6880
:1022C000B3F1804F01D1FEF7CBFE00BF0837BD460A
:1022D00080BD000080B582B000AF0346FB80FB8864
:1022E000012B01D1FEF7A0FEFB88B3F5007F14D1CE
:1022F0000C4B012283F82C200A4B012283F82F205B
:10230000094B00221A6000F0B9FC0346074A13602B
:1023100000F0B4FC0346064A136000BF0837BD4610
:1023200080BD00BFC80400200C050020500700201D
:102330004807002080B582B000AF78600DF07AFFCA
:1023400000BF0837BD4680BD80B483B000AF786061
:102350007B680F4A93420AD10E4B012283F82A2050
:102360007B681A6C7B681B68D2431A6009E07B6843
:10237000094A934205D17B681A6C7B681B68D2437B
:102380001A6000BF0C37BD465DF8047B704700BF84
:1023900000090020C80400204409002080B400AFD8
:1023A00072B600BFFEE7000080B483B000AF002328
:1023B0007B60104B5B6C0F4A43F4804353640D4BBE
:1023C0005B6C03F480437B607B6800233B60094BBC
:1023D0001B6C084A43F080531364064B1B6C03F0DC
:1023E00080533B603B6800BF0C37BD465DF8047B03
:1023F000704700BF0038024080B58AB000AF7860F7
:1024000007F1140300221A605A609A60DA601A61B8
:102410007B681B68174A934227D100233B61164B08
:102420005B6C154A43F480735364134B5B6C03F489
:1024300080733B613B690023FB600F4B1B6B0E4AB3
:1024400043F0040313630C4B1B6B03F00403FB60AA
:10245000FB6801237B610323BB610023FB6107F160
:1024600014031946054801F0BBFD00BF2837BD46DF
:1024700080BD00BF0020014000380240000802403B
:1024800080B582B000AF78607B681B68084A9342D1
:1024900009D1084B5B6C074A23F480735364012114
:1024A000054801F021FF00BF0837BD4680BD00BFD1
:1024B00000200140003802400008024080B58AB088
:1024C00000AF786007F1140300221A605A609A6026
:1024D000DA601A617B681B68194A93422CD1002389
:1024E0003B61184B1B6B174A43F002031363154BF8
:1024F0001B6B03F002033B613B694FF440737B614C
:102500001223BB610023FB6103233B6204237B6234
:1025100007F1140319460C4801F062FD0023FB602B
:10252000084B1B6C074A43F400131364054B1B6CE8
:1025300003F40013FB60FB6800BF2837BD4680BD75
:1025400000540040003802400004024080B582B0D0
:1025500000AF78607B681B680B4A93420FD10B4B2E
:102560001B6C0A4A23F4001313644FF4807108486B
:1025700001F0BAFE4FF40071054801F0B5FE00BF4E
:102580000837BD4680BD00BF0054004000380240FF
:102590000004024080B588B000AF786007F10C03FA
:1025A00000221A605A609A60DA601A617B681B68C0
:1025B000104A934219D10223FB604FF48073BB6130
:1025C00007F10C03184605F03BF80346002B01D039
:1025D000FFF7E4FE084B01221A60002200212920A7
:1025E00001F02FF9292001F048F900BF2037BD463E
:1025F00080BD00BF002800403C0E474280B58AB035
:1026000000AF786007F1140300221A605A609A60E4
:10261000DA601A617B681B68284A93424AD100231A
:102620003B61274B5B6C264A43F400635364244BA5
:102630005B6C03F400633B613B690023FB60204B50
:102640001B6B1F4A43F0040313631D4B1B6B03F00A
:102650000403FB60FB680023BB60194B1B6B184A2B
:1026600043F008031363164B1B6B03F00803BB60B6
:10267000BB684FF488537B610223BB610023FB617D
:1026800003233B620C237B6207F1140319460D48B8
:1026900001F0A6FC04237B610223BB610023FB61E4
:1026A00003233B620C237B6207F11403194606489F
:1026B00001F096FC00BF2837BD4680BD002C0140CC
:1026C0000038024000080240000C024080B584B08F
:1026D00000AF78607B681B68B3F1804F15D1002391
:1026E000FB600C4B1B6C0B4A43F001031364094B5A
:1026F0001B6C03F00103FB60FB68002200211C201F
:1027000001F09FF81C2001F0B8F800BF1037BD465B
:1027100080BD00BF0038024080B582B000AF786055
:102720007B681B68B3F1804F08D1064B1B6C054AD0
:1027300023F0010313641C2001F0ADF800BF08373B
:10274000BD4680BD0038024080B58CB000AF7860D7
:1027500007F11C0300221A605A609A60DA601A615D
:102760007B681B683A4A934234D10023BB61394BE2
:102770005B6C384A43F010035364364B5B6C03F0D8
:102780001003BB61BB6900237B61324B1B6B314A79
:1027900043F0020313632F4B1B6B03F002037B61B7
:1027A0007B69C023FB6102233B6200237B6203231E
:1027B000BB620723FB6207F11C031946264801F0A0
:1027C0000FFC00220021252001F03BF8252001F01C
:1027D00054F838E07B681B68204A934233D10023C9
:1027E0003B611C4B1B6C1B4A43F400331364194BB5
:1027F0001B6C03F400333B613B690023FB60154B0A
:102800001B6B144A43F001031363124B1B6B03F061
:102810000103FB60FB680C23FB6102233B62002386
:102820007B620323BB620723FB6207F11C0319468B
:102830000B4801F0D5FB00220021262001F001F811
:10284000262001F01AF800BF3037BD4680BD00BF1A
:1028500000100140003802400004024000440040E3
:102860000000024080B582B000AF78607B681B68D2
:10287000134A93420DD1134B5B6C124A23F01003A1
:102880005364C021104801F02FFD252001F003F80A
:1028900011E07B681B680D4A93420CD1094B1B6CFD
:1028A000084A23F4003313640C21094801F01CFD8D
:1028B000262000F0F0FF00BF0837BD4680BD00BFF6
:1028C0000010014000380240000402400044004073
:1028D0000000024080B500AF00F0EBFFFEE780B5DE
:1028E00000AF00F0E6FFFEE780B500AF00F0E1FFCB
:1028F000FEE780B500AF00F0DCFFFEE780B500AF7B
:1029000000F0D7FFFEE780B500AF00F0D2FF00BFB8
:1029100080BD80B500AF00F0CCFF00BF80BD80B5AA
:1029200000AF00F0C6FF00BF80BD80B500AF00F073
:1029300091F900BF80BD80B500AF4FF4007001F089
:10294000E9FD00BF80BD000080B500AF024806F081
:10295000B4FC00BF80BD00BFB808002080B500AF48
:10296000024807F0E1F900BF80BD00BF0009002068
:1029700080B500AF024807F0D7F900BF80BD00BFA7
:102980004409002080B500AF024805F0CBFA00BF33
:1029900080BD00BF1408002080B500AF024803F0DE
:1029A00070F800BF80BD00BFEC17002080B400AFFE
:1029B00001231846BD465DF8047B704780B582B0A0
:1029C00000AF7860396016F0EDFD034616221A60FC
:1029D0004FF0FF3318460837BD4680BD80B582B042
:1029E00000AF78604FF0FF317868FFF7E7FFFEE750
:1029F00080B586B000AFF860B9607A6000237B6173
:102A00000AE0AFF300800146BB685A1CBA60CAB244
:102A10001A707B6901337B617A697B689A42F0DBCB
:102A20007B6818461837BD4680BD80B586B000AFBC
:102A3000F860B9607A6000237B6109E0BB685A1CCA
:102A4000BA601B781846AFF300807B6901337B6165
:102A50007A697B689A42F1DB7B6818461837BD4675
:102A600080BD80B483B000AF78604FF0FF3318466C
:102A70000C37BD465DF8047B704780B483B000AF6F
:102A8000786039603B684FF400525A600023184662
:102A90000C37BD465DF8047B704780B483B000AF4F
:102AA0007860012318460C37BD465DF8047B7047FB
:102AB00080B485B000AFF860B9607A600023184632
:102AC0001437BD465DF8047B7047000080B586B0C2
:102AD00000AF7860144A154BD31A7B617B693B6168
:102AE000134B1B68002B02D1114B124A1A60104B7A
:102AF0001A687B6813443A699A4207D216F052FD6D
:102B000003460C221A604FF0FF3309E0084B1B68A4
:102B1000FB60074B1A687B681344054A1360FB6827
:102B200018461837BD4680BD008001200004000013
:102B3000880900208025002080B400AF064BD3F820
:102B40008830054A43F47003C2F8883000BFBD46A0
:102B50005DF8047B704700BF00ED00E0DFF834D083
:102B60000D480E490E4A002302E0D458C4500433E5
:102B7000C4188C42F9D30B4A0B4C002301E01360BC
:102B80000432A242FBD3FFF7D7FF16F07FFDFFF719
:102B9000BFF87047008001200000002014030020CF
:102BA000C00502081403002080250020FEE7000075
:102BB00080B500AF0E4B1B680D4A43F400731360E1
:102BC0000B4B1B680A4A43F480631360084B1B6875
:102BD000074A43F480731360032000F027FE0F20A0
:102BE00000F008F8FFF7E0FB0023184680BD00BFA7
:102BF000003C024080B582B000AF7860124B1A688A
:102C0000124B1B7819464FF47A73B3FBF1F3B2FB06
:102C1000F3F3184600F051FE0346002B01D00123C8
:102C20000EE07B680F2B0AD8002279684FF0FF3046
:102C300000F007FE064A7B681360002300E00123D2
:102C400018460837BD4680BD0C0000201400002047
:102C50001000002080B400AF064B1B781A46064BCC
:102C60001B681344044A136000BFBD465DF8047B33
:102C7000704700BF140000208C09002080B400AF12
:102C8000034B1B681846BD465DF8047B704700BFC8
:102C90008C09002080B584B000AF7860FFF7EEFFAC
:102CA000B8607B68FB60FB68B3F1FF3F05D00A4B5F
:102CB0001B781A46FB681344FB6000BFFFF7DEFF7A
:102CC0000246BB68D31AFA689A42F7D800BF00BF21
:102CD0001037BD4680BD00BF1400002080B400AF97
:102CE000054B1B68044A23F00203136000BFBD4676
:102CF0005DF8047B704700BF10E000E080B400AFD7
:102D0000054B1B68044A43F00203136000BFBD4635
:102D10005DF8047B704700BF10E000E080B400AFB6
:102D2000034B1B681846BD465DF8047B704700BF27
:102D3000107AFF1F80B400AF034B1B681846BD46D6
:102D40005DF8047B704700BF147AFF1F80B400AFAA
:102D5000034B1B681846BD465DF8047B704700BFF7
:102D6000187AFF1F80B584B000AF78600023FB7332
:102D70007B68002B01D1012333E07B681B6C002BA7
:102D800009D17868FFF738FB7B6800225A647B68BA
:102D9000002283F83C207B681B6C03F01003002B9F
:102DA00018D17B681B6C23F4885323F0020343F093
:102DB00002027B681A64786800F0ECFA7B680022F3
:102DC0005A647B681B6C23F0030343F001027B68A9
:102DD0001A6401E00123FB737B68002283F83C2026
:102DE000FB7B18461037BD4680BD80B584B000AF70
:102DF00078600023FB737B68002B01D1012322E064
:102E00007B681B6C43F002027B681A647B681B685A
:102E10009A687B681B6822F001029A607B681B68D5
:102E20009B6803F00103002B08D17868FFF728FBAB
:102E30007B6800225A647B6800221A647B68002247
:102E400083F83C20FB7B18461037BD4680BD000050
:102E500080B485B000AF78600023BB607B6893F8D6
:102E60003C30012B01D1022397E07B68012283F8DB
:102E70003C207B681B689B6803F00103012B18D082
:102E80007B681B689A687B681B6842F001029A6045
:102E9000454B1B68454AA2FB03239A0C13465B0073
:102EA0001344BB6002E0BB68013BBB60BB68002B06
:102EB000F9D17B681B689B6803F00103012B5FD18C
:102EC0007B681B6C23F4E06323F0010343F48072FE
:102ED0007B681A647B681B685B6803F48063002B63
:102EE00007D07B681B6C23F4405343F480527B680B
:102EF0001A647B681B6C03F48053B3F5805F06D1C2
:102F00007B685B6C23F006027B685A6402E07B6896
:102F100000225A647B68002283F83C20244BFB602B
:102F20007B681B686FF022021A60FB685B6803F025
:102F30001F03002B0FD17B681B689B6803F0405375
:102F4000002B29D17B681B689A687B681B6842F05C
:102F500080429A6020E07B681B68164A93421BD12E
:102F60007B681B689B6803F04053002B14D17B687F
:102F70001B689A687B681B6842F080429A600BE08D
:102F80007B681B6C43F010027B681A647B685B6C87
:102F900043F001027B685A64002318461437BD468B
:102FA0005DF8047B704700BF0C00002083DE1B43EC
:102FB000002301400020014080B483B000AF78605E
:102FC0007B6893F83C30012B01D1022321E07B6820
:102FD000012283F83C207B681B689A687B681B6829
:102FE00022F001029A607B681B689B6803F0010372
:102FF000002B09D17B681B6C23F4885323F0010359
:1030000043F001027B681A647B68002283F83C204D
:10301000002318460C37BD465DF8047B704780B529
:1030200084B000AF786039600023FB607B681B6868
:103030009B6803F48063B3F5806F13D17B681B68D2
:103040009B6803F48073B3F5807F0BD17B681B6CA6
:1030500043F020027B681A647B68002283F83C20DE
:10306000012363E0FFF70AFEF86021E03B68B3F15B
:10307000FF3F1DD03B68002B07D0FFF7FFFD024646
:10308000FB68D31A3A689A4212D27B681B681B68A5
:1030900003F00203022B0BD07B681B6C43F004028D
:1030A0007B681A647B68002283F83C2003233DE0A0
:1030B0007B681B681B6803F00203022BD6D17B6878
:1030C0001B686FF012021A607B681B6C43F400727D
:1030D0007B681A647B681B689B6803F04053002B75
:1030E00023D17B681B7E002B1FD17B681B68DB6AAA
:1030F00003F47003002B06D07B681B689B6803F405
:103100008063002B11D17B681B6C23F480727B6879
:103110001A647B681B6C03F48053002B05D17B6819
:103120001B6C43F001027B681A64002318461037B9
:10313000BD4680BD80B483B000AF78607B681B68FB
:10314000DB6C18460C37BD465DF8047B7047000009
:1031500080B485B000AF786039600023BB607B68C5
:1031600093F83C30012B01D1022305E17B68012259
:1031700083F83C203B681B68092B25D97B681B68BA
:10318000D9683B681B689BB21A4613465B00134420
:103190001E3B072202FA03F3DA437B681B680A40EE
:1031A000DA607B681B68D9683B689A683B681B6873
:1031B0009BB2184603465B0003441E3B9A407B6863
:1031C0001B680A43DA6022E07B681B6819693B6868
:1031D0001B689BB21A4613465B001344072202FA8F
:1031E00003F3DA437B681B680A401A617B681B683B
:1031F00019693B689A683B681B689BB2184603468E
:103200005B0003449A407B681B680A431A613B6871
:103210005B68062B24D87B681B68596B3B685A682F
:1032200013469B001344053B1F2202FA03F3DA43C3
:103230007B681B680A405A637B681B68596B3B6854
:103240001B689BB218463B685A6813469B001344A0
:10325000053B00FA03F27B681B680A435A634CE0A3
:103260003B685B680C2B24D87B681B68196B3B6838
:103270005A6813469B001344233B1F2202FA03F3B0
:10328000DA437B681B680A401A637B681B68196B0A
:103290003B681B689BB218463B685A6813469B0004
:1032A0001344233B00FA03F27B681B680A431A634A
:1032B00023E07B681B68D96A3B685A6813469B0009
:1032C0001344413B1F2202FA03F3DA437B681B6875
:1032D0000A40DA627B681B68D96A3B681B689BB24C
:1032E00018463B685A6813469B001344413B00FA5A
:1032F00003F27B681B680A43DA62224BFB607B683F
:103300001B68214A934209D13B681B68122B05D1E7
:10331000FB685B6843F48002FB685A607B681B684B
:10332000194A934223D13B681B68102B03D03B689A
:103330001B68112B1BD1FB685B6843F40002FB6820
:103340005A603B681B68102B11D1104B1B68104A48
:10335000A2FB03239A0C13469B0013445B00BB6043
:1033600002E0BB68013BBB60BB68002BF9D17B6806
:10337000002283F83C20002318461437BD465DF830
:10338000047B704700230140002001400C00002016
:1033900083DE1B4380B485B000AF7860794BFB605F
:1033A000FB685B6823F44032FB685A60FB685A682C
:1033B0007B685B681A43FB685A607B681B685A68C5
:1033C0007B681B6822F480725A607B681B685968AE
:1033D0007B681B691A027B681B680A435A607B681A
:1033E0001B685A687B681B6822F040725A607B68D1
:1033F0001B6859687B689A687B681B680A435A6037
:103400007B681B689A687B681B6822F400629A607C
:103410007B681B6899687B68DA687B681B680A436D
:103420009A607B689B6A584A934222D07B681B68EB
:103430009A687B681B6822F070629A607B681B68E0
:1034400099687B689A6A7B681B680A439A607B6804
:103450001B689A687B681B6822F040529A607B6800
:103460001B6899687B68DA6A7B681B680A439A6004
:103470000FE07B681B689A687B681B6822F07062AB
:103480009A607B681B689A687B681B6822F04052D0
:103490009A607B681B689A687B681B6822F002024E
:1034A0009A607B681B6899687B681B7E5A007B6802
:1034B0001B680A439A607B6893F82030002B1BD06E
:1034C0007B681B685A687B681B6842F400625A601C
:1034D0007B681B685A687B681B6822F460425A60EC
:1034E0007B681B6859687B685B6A013B5A037B6891
:1034F0001B680A435A6007E07B681B685A687B6850
:103500001B6822F400625A607B681B68DA6A7B6879
:103510001B6822F47002DA627B681B68D96A7B68D8
:10352000DB69013B1A057B681B680A43DA627B682A
:103530001B689A687B681B6822F400729A607B683B
:103540001B6899687B6893F830305A027B681B6867
:103550000A439A607B681B689A687B681B6822F440
:1035600080629A607B681B6899687B685B699A02D5
:103570007B681B680A439A6000BF1437BD465DF83C
:10358000047B7047002301400100000F80B485B028
:1035900000AF786039607B6893F83C30012B01D133
:1035A000022331E07B68012283F83C20194BFB6049
:1035B000FB685B6823F01F02FB685A60FB685A686F
:1035C0003B681B681A43FB685A60FB685B6823F41E
:1035D0004042FB685A60FB685A683B685B681A4364
:1035E000FB685A60FB685B6823F47062FB685A6092
:1035F000FB685A683B689B681A43FB685A607B68A3
:10360000002283F83C20002318461437BD465DF89D
:10361000047B70470023014080B485B000AF786020
:103620007B6803F00703FB600C4BDB68BB60BA6888
:103630004FF6FF031340BB60FB681A02BB681343DD
:1036400043F0BF6343F40033BB60044ABB68D360FC
:1036500000BF1437BD465DF8047B704700ED00E005
:1036600080B400AF044BDB681B0A03F00703184665
:10367000BD465DF8047B704700ED00E080B483B088
:1036800000AF0346FB7197F90730002B0BDBFB798A
:1036900003F01F02074997F907305B09012000FA80
:1036A00002F241F8232000BF0C37BD465DF8047BD1
:1036B000704700BF00E100E080B483B000AF034674
:1036C000FB7197F90730002B12DBFB7903F01F0227
:1036D0000A4997F907305B09012000FA02F220330A
:1036E00041F82320BFF34F8F00BFBFF36F8F00BFA0
:1036F00000BF0C37BD465DF8047B704700E100E079
:1037000080B483B000AF03463960FB7197F907308E
:10371000002B0ADB3B68DAB20C4997F9073012013B
:10372000D2B20B4483F800230AE03B68DAB20849BE
:10373000FB7903F00F03043B1201D2B20B441A765B
:1037400000BF0C37BD465DF8047B704700E100E028
:1037500000ED00E080B489B000AFF860B9607A6035
:10376000FB6803F00703FB61FB69C3F10703042B4C
:1037700028BF0423BB61FB690433062B02D9FB6914
:10378000033B00E000237B614FF0FF32BB6902FA8C
:1037900003F3DA43BB681A407B699A404FF0FF316C
:1037A0007B6901FA03F3D9437B680B401343184646
:1037B0002437BD465DF8047B7047000080B400AF3D
:1037C000BFF34F8F00BF064BDB6803F4E062044990
:1037D000044B1343CB60BFF34F8F00BF00BFFDE727
:1037E00000ED00E00400FA0580B582B000AF78601B
:1037F0007B68013BB3F1807F01D301230FE00A4ACC
:103800007B68013B53600F214FF0FF30FFF778FFDB
:10381000054B00229A60044B07221A6000231846C9
:103820000837BD4680BD00BF10E000E080B582B023
:1038300000AF78607868FFF7EFFE00BF0837BD463D
:1038400080BD80B586B000AF0346B9607A60FB7377
:1038500000237B61FFF704FF78617A68B9687869B3
:10386000FFF778FF024697F90F3011461846FFF729
:1038700047FF00BF1837BD4680BD80B582B000AF9E
:103880000346FB7197F907301846FFF7F7FE00BFB4
:103890000837BD4680BD80B582B000AF0346FB71DE
:1038A00097F907301846FFF707FF00BF0837BD46F6
:1038B00080BD80B500AFFFF781FF80B582B000AF5B
:1038C00078607868FFF790FF034618460837BD46D2
:1038D00080BD80B584B000AF78607B689B6DFB6075
:1038E000FFF7CCF9B8607B6893F83530DBB2022B78
:1038F00008D07B6880225A657B68002283F83420D8
:10390000012352E07B681B681A687B681B6822F001
:1039100016021A607B681B685A697B681B6822F074
:1039200080025A617B681B6C002B03D17B689B6C07
:10393000002B07D07B681B681A687B681B6822F025
:1039400008021A607B681B681A687B681B6822F093
:1039500001021A6013E0FFF791F90246BB68D31A1F
:10396000052B0CD97B6820225A657B68032283F8DB
:1039700035207B68002283F83420032315E07B6820
:103980001B681B6803F00103002BE4D17B68DB6D2F
:103990003F229A40FB689A607B68012283F83520B9
:1039A0007B68002283F83420002318461037BD4678
:1039B00080BD80B483B000AF78607B6893F8353009
:1039C000DBB2022B04D07B6880225A6501230CE015
:1039D0007B68052283F835207B681B681A687B6842
:1039E0001B6822F001021A60002318460C37BD46FE
:1039F0005DF8047B7047000080B586B000AFF860CA
:103A0000B960C7E900230123FB75234B1B7E012B03
:103A100001D102233BE0204B01221A764CF25030B8
:103A200000F07CF80346FB75FB7D002B2BD1FB6877
:103A3000002B05D13B781946B86800F027F916E04D
:103A4000FB68012B05D13B881946B86800F0FAF8ED
:103A50000DE0FB68022B05D13B681946B86800F001
:103A6000CFF804E0D7E90023B86800F097F84CF2EB
:103A7000503000F053F80346FB75084B1B69074AAA
:103A800023F001031361044B00221A76FB7D1846D4
:103A90001837BD4680BD00BF90090020003C0240A1
:103AA00080B483B000AF0023FB710B4B1B69002B6C
:103AB0000BDA094B094A5A60074B094A5A60064B10
:103AC0001B69002B01DA0123FB71FB7918460C37C7
:103AD000BD465DF8047B7047003C0240230167450A
:103AE000AB89EFCD80B400AF054B1B69044A43F0AE
:103AF0000043136100231846BD465DF8047B704700
:103B0000003C024080B400AF034BDB691846BD4661
:103B10005DF8047B704700BF9009002080B584B039
:103B200000AF78600023FB601A4B0022DA61FFF7D8
:103B3000A5F8F86010E07B68B3F1FF3F0CD07B681C
:103B4000002B07D0FFF79AF80246FB68D31A7A6871
:103B50009A4201D2032319E00F4BDB6803F4803350
:103B6000002BE8D10C4BDB6803F00103002B02D0E3
:103B7000094B0122DA60084BDB6803F4F973002B70
:103B800003D000F0A5F8012300E000231846103709
:103B9000BD4680BD90090020003C024080B485B045
:103BA00000AFF860C7E90023144B1B69134A23F4E4
:103BB00040731361114B1B69104A43F44073136146
:103BC0000E4B1B690D4A43F001031361FB683A6811
:103BD0001A60BFF36F8F00BFD7E900014FF00002FA
:103BE0004FF000030A000023F968043113460B600C
:103BF00000BF1437BD465DF8047B7047003C0240AF
:103C000080B483B000AF786039600D4B1B690C4AFB
:103C100023F4407313610A4B1B69094A43F4007390
:103C20001361074B1B69064A43F0010313617B686C
:103C30003A681A6000BF0C37BD465DF8047B7047D8
:103C4000003C024080B483B000AF78600B467B80BC
:103C50000D4B1B690C4A23F4407313610A4B1B691B
:103C6000094A43F480731361074B1B69064A43F00A
:103C7000010313617B687A881A8000BF0C37BD4648
:103C80005DF8047B704700BF003C024080B483B005
:103C900000AF78600B46FB700C4B1B690B4A23F49A
:103CA00040731361094B094A1B691361074B1B6978
:103CB000064A43F0010313617B68FA781A7000BF6B
:103CC0000C37BD465DF8047B704700BF003C0240E6
:103CD00080B400AF2F4BDB6803F01003002B08D03B
:103CE0002D4BDB6943F010032B4AD361294B102283
:103CF000DA60284BDB6803F02003002B08D0264B4A
:103D0000DB6943F00803244AD361224B2022DA60A6
:103D1000204BDB6803F04003002B08D01E4BDB690F
:103D200043F004031C4AD3611A4B4022DA60194B5A
:103D3000DB6803F08003002B08D0174BDB6943F0EE
:103D40000203154AD361134B8022DA60114BDB6802
:103D500003F48073002B09D00F4BDB6943F00103A0
:103D60000D4AD3610B4B4FF48072DA60094BDB686C
:103D700003F00203002B08D0074BDB6943F020035C
:103D8000054AD361034B0222DA6000BFBD465DF8ED
:103D9000047B7047003C02409009002080B584B04D
:103DA00000AF786039600123FB730023BB60314BA7
:103DB0001B7E012B01D1022358E02E4B01221A76E3
:103DC0004CF25030FFF7AAFE0346FB73FB7B002B3F
:103DD00048D13B684FF0FF321A607B681B68012BAB
:103DE00015D17B681B69DAB27B685B68194610469F
:103DF00000F044F84CF25030FFF790FE0346FB739E
:103E00001D4B1B691C4A23F00403136128E07B68E7
:103E10009B68BB601CE07B681B69DBB21946B86815
:103E200000F050F84CF25030FFF778FE0346FB7379
:103E3000114B1B69104A23F0FA031361FB7B002B23
:103E400003D03B68BA681A600AE0BB680133BB6004
:103E50007B68DA687B689B681344BA689A42DAD355
:103E600000F078F8034B00221A76FB7B18461037D7
:103E7000BD4680BD90090020003C024080B483B064
:103E800000AF03463960FB710D4B1B690C4A23F4EC
:103E9000407313610A4B1B69094A43F00403136121
:103EA000074B1A69FB791B021343054A43F480331D
:103EB000136100BF0C37BD465DF8047B704700BF3F
:103EC000003C024080B485B000AF78600B46FB70C8
:103ED0000023FB60FB78002B02D10023FB6010E085
:103EE000FB78012B03D14FF48073FB6009E0FB7872
:103EF000022B03D14FF40073FB6002E04FF44073D8
:103F0000FB60134B1B69124A23F440731361104B7F
:103F10001A690F49FB6813430B610D4B1B690C4A6F
:103F200023F0F80313610A4B1A697B68DB00134323
:103F3000074A43F002031361054B1B69044A43F42B
:103F40008033136100BF1437BD465DF8047B7047B2
:103F5000003C024080B400AF204B1B6803F40073A8
:103F6000002B17D01D4B1B681C4A23F400731360F1
:103F70001A4B1B68194A43F400631360174B1B6804
:103F8000164A23F400631360144B1B68134A43F46E
:103F900000731360114B1B6803F48063002B17D070
:103FA0000E4B1B680D4A23F4806313600B4B1B6898
:103FB0000A4A43F480531360084B1B68074A23F4F2
:103FC00080531360054B1B68044A43F480631360FD
:103FD00000BFBD465DF8047B704700BF003C024057
:103FE00080B489B000AF7860396000237B61002322
:103FF0003B610023BB610023FB6159E10122FB69A6
:1040000002FA03F37B613B681B687A6913403B61EA
:104010003A697B699A4240F048813B685B6803F0EB
:104020000303012B05D03B685B6803F00303022BFD
:1040300030D17B689B68BB61FB695B00032202FA9D
:1040400003F3DB43BA691340BB613B68DA68FB6981
:104050005B0002FA03F3BA691343BB617B68BA6978
:104060009A607B685B68BB610122FB6902FA03F31B
:10407000DB43BA691340BB613B685B681B0903F013
:104080000102FB6902FA03F3BA691343BB617B685F
:10409000BA695A603B685B6803F00303032B17D0CF
:1040A0007B68DB68BB61FB695B00032202FA03F3F8
:1040B000DB43BA691340BB613B689A68FB695B00EC
:1040C00002FA03F3BA691343BB617B68BA69DA6029
:1040D0003B685B6803F00303022B23D1FB69DA081A
:1040E0007B68083253F82230BB61FB6903F0070399
:1040F0009B000F2202FA03F3DB43BA691340BB6152
:104100003B681A69FB6903F007039B0002FA03F39B
:10411000BA691343BB61FB69DA087B680832B96985
:1041200043F822107B681B68BB61FB695B000322BC
:1041300002FA03F3DB43BA691340BB613B685B6877
:1041400003F00302FB695B0002FA03F3BA6913434D
:10415000BB617B68BA691A603B685B6803F44033F3
:10416000002B00F0A2800023FB60574B5B6C564A8B
:1041700043F480435364544B5B6C03F48043FB6013
:10418000FB68524AFB699B08023352F82330BB613B
:10419000FB6903F003039B000F2202FA03F3DB43E6
:1041A000BA691340BB617B68494A934219D07B6866
:1041B000484A934213D07B68474A93420DD07B68AC
:1041C000464A934207D07B68454A934201D1042373
:1041D00008E0072306E0032304E0022302E00123B2
:1041E00000E00023FA6902F0030292009340BA69EA
:1041F0001343BB613549FB699B080233BA6941F837
:104200002320384B9B68BB613B69DB43BA69134091
:10421000BB613B685B6803F48013002B03D0BA6971
:104220003B691343BB612F4ABB6993602D4BDB682D
:10423000BB613B69DB43BA691340BB613B685B68A8
:1042400003F40013002B03D0BA693B691343BB612D
:10425000244ABB69D360234B5B68BB613B69DB438A
:10426000BA691340BB613B685B6803F40033002B01
:1042700003D0BA693B691343BB611A4ABB695360F7
:10428000184B1B68BB613B69DB43BA691340BB61D8
:104290003B685B6803F48033002B03D0BA693B6949
:1042A0001343BB610F4ABB691360FB690133FB61B8
:1042B000FB690F2B7FF6A2AE00BF00BF2437BD46BF
:1042C0005DF8047B704700BF0038024000380140B1
:1042D000000002400004024000080240000C0240BE
:1042E00000100240003C014080B487B000AF78600D
:1042F000396000233B610023FB600023BB60002387
:104300007B61BBE001227B6902FA03F33B613A68FF
:104310003B691340FB60FA683B699A4240F0AB800E
:104320005C4A7B699B08023352F82330BB607B698F
:1043300003F003039B000F2202FA03F3BA68134051
:10434000BB607B68544A934219D07B68534A9342BE
:1043500013D07B68524A93420DD07B68514A9342F6
:1043600007D07B68504A934201D1042308E0072319
:1043700006E0032304E0022302E0012300E000231F
:104380007A6902F0030292009340BA689A4232D1ED
:10439000464B1A68FB68DB43444913400B60434BB0
:1043A0005A68FB68DB43414913404B603F4BDA6876
:1043B000FB68DB433D491340CB603C4B9A68FB688C
:1043C000DB433A4913408B607B6903F003039B0096
:1043D0000F2202FA03F3BB602E4A7B699B0802336B
:1043E00052F82310BB68DA432A487B699B080A40CD
:1043F000023340F823207B681A687B695B00032145
:1044000001FA03F3DB431A407B681A607B69DA0820
:104410007B68083253F822107B6903F007039B0086
:104420000F2202FA03F3DB437A69D20819407B6852
:10443000083243F822107B68DA687B695B0003214D
:1044400001FA03F3DB431A407B68DA607B685A6841
:1044500001217B6901FA03F3DB431A407B685A6050
:104460007B689A687B695B00032101FA03F3DB43F5
:104470001A407B689A607B6901337B617B690F2BF3
:104480007FF640AF00BF00BF1C37BD465DF8047B20
:10449000704700BF003801400000024000040240A5
:1044A00000080240000C024000100240003C0140A5
:1044B00080B485B000AF78600B467B807B681A695A
:1044C0007B881340002B02D00123FB7301E0002303
:1044D000FB73FB7B18461437BD465DF8047B7047C1
:1044E00080B483B000AF78600B467B8013467B704E
:1044F0007B78002B03D07A887B689A6103E07B8805
:104500001A047B689A6100BF0C37BD465DF8047BD6
:104510007047000080B582B000AF0346FB80084BB7
:104520005A69FB881340002B06D0054AFB8853616B
:10453000FB881846FDF7CEFE00BF0837BD4680BD9C
:10454000003C014080B584B000AF78607B68002BF0
:1045500001D101232BE17B6893F83D30DBB2002BC6
:1045600006D17B68002283F83C207868FDF7A6FF1F
:104570007B68242283F83D207B681B681A687B686F
:104580001B6822F001021A607B681B681A687B684E
:104590001B6842F400421A607B681B681A687B68DB
:1045A0001B6822F400421A6003F022F8F8607B686E
:1045B0005B68814A934207D8FB68804A934294BF64
:1045C00001230023DBB206E0FB687D4A934294BFDF
:1045D00001230023DBB2002B01D00123E7E0FB68BD
:1045E000784AA2FB03239B0CBB607B681B685B685B
:1045F00023F03F017B681B68BA680A435A607B68F6
:104600001B681B6A23F03F017B685B686A4A934220
:1046100002D8BB68013309E0BB684FF4967202FB15
:1046200003F3694AA2FB03239B0901337A681268EA
:104630000B4313627B681B68DB6923F44F4222F053
:10464000FF027B685B685C498B4219D8FB68591E86
:104650007B685B685B00B1FBF3F3591C40F6FC73AD
:104660000B40002B0AD0FB68591E7B685B685B001F
:10467000B1FBF3F30133C3F30B0351E004234FE029
:104680007B689B68002B11D1FB68581E7B685968BA
:104690000B465B000B44B0FBF3F30133C3F30B0396
:1046A000002B0CBF01230023DBB212E0FB68581E75
:1046B0007B6859680B469B000B4499000B44B0FB88
:1046C000F3F30133C3F30B03002B0CBF01230023CF
:1046D000DBB2002B01D0012322E07B689B68002B1A
:1046E0000ED1FB68581E7B6859680B465B000B4473
:1046F000B0FBF3F30133C3F30B0343F400430FE0C8
:10470000FB68581E7B6859680B469B000B44990058
:104710000B44B0FBF3F30133C3F30B0343F4404307
:10472000796809681343CB617B681B681B6823F0B9
:10473000C0017B68DA697B681B6A1A437B681B6867
:104740000A431A607B681B689B6823F4034323F0C9
:10475000FF037A6811697A68D26811437A6812682F
:104760000B4393607B681B68DB6823F0FF017B6869
:104770005A697B689B691A437B681B680A43DA6045
:104780007B681B681A687B681B6842F001021A602C
:104790007B6800221A647B68202283F83D207B68B6
:1047A00000221A637B68002283F83E20002318460B
:1047B0001037BD4680BD00BFA08601007F841E006B
:1047C000FF083D0083DE1B43D34D621080B582B0ED
:1047D00000AF78607B68002B01D1012321E07B686A
:1047E000242283F83D207B681B681A687B681B685D
:1047F00022F001021A607868FDF7A8FE7B680022AB
:104800001A647B68002283F83D207B6800221A63CB
:104810007B68002283F83E207B68002283F83C20DE
:10482000002318460837BD4680BD000080B588B01B
:1048300002AFF8607A601A460B467B8113463B81D3
:10484000FEF71CFA7861FB6893F83D30DBB2202B51
:1048500040F0E0807B690093192301227049F868D9
:1048600000F086FD0346002B01D00223D3E0FB6855
:1048700093F83C30012B01D10223CCE0FB680122EC
:1048800083F83C20FB681B681B6803F00103012BC5
:1048900007D0FB681B681A68FB681B6842F00102BE
:1048A0001A60FB681B681A68FB681B6822F40062C8
:1048B0001A60FB68212283F83D20FB68102283F8F0
:1048C0003E20FB6800221A64FB687A685A62FB6823
:1048D0003A895A85FB685B8D9AB2FB681A85FB683A
:1048E000504ADA6279897B693A6AF86800F0F0FB2D
:1048F0000346002B01D001238DE000233B61FB68C0
:104900001B685B693B61FB681B689B693B613B699A
:1049100066E07A69396AF86800F000FE0346002B09
:104920000DD0FB681B6C042B07D1FB681B681A6851
:10493000FB681B6842F400721A6001236BE0FB689D
:104940005B6A1A78FB681B681A61FB685B6A5A1C11
:10495000FB685A62FB685B8D9BB2013B9AB2FB68B5
:104960005A85FB681B8D013B9AB2FB681A85FB6870
:104970001B685B6903F00403042B1BD1FB681B8DD0
:10498000002B17D0FB685B6A1A78FB681B681A61FA
:10499000FB685B6A5A1CFB685A62FB685B8D9BB2C2
:1049A000013B9AB2FB685A85FB681B8D013B9AB2AA
:1049B000FB681A857A69396AF86800F0F0FD0346E9
:1049C000002B0DD0FB681B6C042B07D1FB681B6808
:1049D0001A68FB681B6842F400721A6001231AE02F
:1049E000FB681B8D002B94D1FB681B681A68FB6861
:1049F0001B6842F400721A60FB68202283F83D2095
:104A0000FB68002283F83E20FB68002283F83C20EC
:104A1000002300E0022318461837BD4680BD00BFC2
:104A2000020010000000FFFF80B58CB002AFF860FC
:104A30007A601A460B467B8113463B81FEF71EF9CE
:104A40007862FB6893F83D30DBB2202B40F00B829C
:104A50007B6A0093192301227C49F86800F088FCE6
:104A60000346002B01D00223FEE1FB6893F83C30A3
:104A7000012B01D10223F7E1FB68012283F83C20DE
:104A8000FB681B681B6803F00103012B07D0FB6860
:104A90001B681A68FB681B6842F001021A60FB6819
:104AA0001B681A68FB681B6822F400621A60FB68C6
:104AB000222283F83D20FB68102283F83E20FB6809
:104AC00000221A64FB687A685A62FB683A895A8540
:104AD000FB685B8D9AB2FB681A85FB685C4ADA62F8
:104AE00079897B6A3A6BF86800F074FB0346002B07
:104AF00001D00123B8E1FB681B8D002B13D10023EB
:104B00003B62FB681B685B693B62FB681B689B69D7
:104B10003B623B6AFB681B681A68FB681B6842F4CF
:104B200000721A608CE1FB681B8D012B1BD1FB68A6
:104B30001B681A68FB681B6822F480621A600023F5
:104B4000FB61FB681B685B69FB61FB681B689B6919
:104B5000FB61FB69FB681B681A68FB681B6842F411
:104B600000721A606CE1FB681B8D022B1BD1FB6885
:104B70001B681A68FB681B6822F480621A60FB6875
:104B80001B681A68FB681B6842F400621A60002305
:104B9000BB61FB681B685B69BB61FB681B689B6949
:104BA000BB61BB694CE1FB681B681A68FB681B684A
:104BB00042F480621A6000237B61FB681B685B69BA
:104BC0007B61FB681B689B697B617B6938E1FB68E3
:104BD0001B8D032B00F2F180FB681B8D012B23D171
:104BE0007A6A396BF86800F01BFD0346002B01D090
:104BF000012339E1FB681B681A69FB685B6AD2B262
:104C00001A70FB685B6A5A1CFB685A62FB681B8D52
:104C1000013B9AB2FB681A85FB685B8D9BB2013B36
:104C20009AB2FB685A850BE1FB681B8D022B4ED1B3
:104C30007B6A00933B6B00220649F86800F098FB02
:104C40000346002B08D001230EE100BF0200100034
:104C50000000FFFF04000100FB681B681A68FB6886
:104C60001B6842F400721A60FB681B681A69FB68D3
:104C70005B6AD2B21A70FB685B6A5A1CFB685A62A4
:104C8000FB681B8D013B9AB2FB681A85FB685B8D44
:104C90009BB2013B9AB2FB685A85FB681B681A6994
:104CA000FB685B6AD2B21A70FB685B6A5A1CFB68CD
:104CB0005A62FB681B8D013B9AB2FB681A85FB6840
:104CC0005B8D9BB2013B9AB2FB685A85B8E07B6A68
:104CD00000933B6B00226649F86800F049FB0346ED
:104CE000002B01D00123BFE0FB681B681A68FB683A
:104CF0001B6822F480621A60FB681B681A69FB68F3
:104D00005B6AD2B21A70FB685B6A5A1CFB685A6213
:104D1000FB681B8D013B9AB2FB681A85FB685B8DB3
:104D20009BB2013B9AB2FB685A857B6A00933B6B4E
:104D300000224F49F86800F01BFB0346002B01D00E
:104D4000012391E0FB681B681A68FB681B6842F44A
:104D500000721A60FB681B681A69FB685B6AD2B252
:104D60001A70FB685B6A5A1CFB685A62FB681B8DF1
:104D7000013B9AB2FB681A85FB685B8D9BB2013BD5
:104D80009AB2FB685A85FB681B681A69FB685B6A04
:104D9000D2B21A70FB685B6A5A1CFB685A62FB68E5
:104DA0001B8D013B9AB2FB681A85FB685B8D9BB239
:104DB000013B9AB2FB685A8542E07A6A396BF8681F
:104DC00000F02EFC0346002B01D001234CE0FB68D1
:104DD0001B681A69FB685B6AD2B21A70FB685B6A6F
:104DE0005A1CFB685A62FB681B8D013B9AB2FB6838
:104DF0001A85FB685B8D9BB2013B9AB2FB685A85B2
:104E0000FB681B685B6903F00403042B18D1FB6883
:104E10001B681A69FB685B6AD2B21A70FB685B6A2E
:104E20005A1CFB685A62FB681B8D013B9AB2FB68F7
:104E30001A85FB685B8D9BB2013B9AB2FB685A8571
:104E4000FB681B8D002B7FF4C2AEFB68202283F829
:104E50003D20FB68002283F83E20FB68002283F897
:104E60003C20002300E0022318462837BD4680BDC1
:104E70000400010080B58AB002AFF8607A603B6040
:104E80000B467B81FDF7FAFEF8610023BB61FB68EE
:104E900093F83D30DBB2202B40F01181FB69009389
:104EA000192301228849F86800F062FA0346002BB2
:104EB00001D0022304E1FB6893F83C30012B01D1BF
:104EC0000223FDE0FB68012283F83C20FB681B689D
:104ED0001B6803F00103012B07D0FB681B681A68ED
:104EE000FB681B6842F001021A60FB681B681A68C5
:104EF000FB681B6822F400621A60FB68242283F8B6
:104F00003D20FB6800221A64FB68704ADA62FB6885
:104F10001B681A68FB681B6842F480721A60FB69A0
:104F200000933B6800224FF00111F86800F020FA6E
:104F30000346002B0DD0FB681B681B6803F48073CD
:104F4000B3F5807F03D1FB684FF400721A6403232A
:104F5000B6E07B89DBB21A46FB681B6802F0FE02F2
:104F60001A61FDF78BFEF861FB681B685B6903F053
:104F70000203022B0CBF01230023DBB2FB75FB688D
:104F80001B685B6903F48063B3F5806F0CBF01237A
:104F90000023DBB2BB7525E0FDF770FE0246FB691E
:104FA000D31A3A689A4202D33B68002B03D1FB68BC
:104FB000A02283F83D20FB681B685B6903F00203B5
:104FC000022B0CBF01230023DBB2FB75FB681B68BF
:104FD0005B6903F48063B3F5806F0CBF012300238A
:104FE000DBB2BB75FB6893F83D30DBB2A02B05D07C
:104FF000FB7D002B02D1BB7D002BCDD0FB68202296
:1050000083F83D20FB681B685B6903F00203022BF9
:1050100029D1FB681B681A68FB681B6842F40072A0
:105020001A6000233B61FB681B685B693B61FB689E
:105030001B689B693B613B69FB6900931923012253
:105040002149F86800F094F90346002B01D00123B0
:1050500036E0FB68202283F83D20FB68002283F8BD
:105060003C2000232CE0FB681B681A68FB681B6867
:1050700042F400721A60FB681B686FF480625A6128
:10508000FB690093192301220F49F86800F070F9B9
:105090000346002B01D0012312E0BB690133BB6141
:1050A000BA697B689A42FFF432AFFB68202283F82A
:1050B0003D20FB68002283F83C20012300E002230E
:1050C00018462037BD4680BD020010000000FFFFDB
:1050D00080B588B002AFF8607A603B600B467B8198
:1050E000FB68DB6A7B617B69082B06D07B69012B3F
:1050F00003D07B6913F5803F08D1FB681B681A68F1
:10510000FB681B6842F480721A600BE0FB681B6B43
:10511000122B07D1FB681B681A68FB681B6842F4F6
:1051200080721A603B6800937B6800224FF0011187
:10513000F86800F01DF90346002B0DD0FB681B68D2
:105140001B6803F48073B3F5807F03D1FB684FF4D1
:1051500000721A64032335E0FB681B69B3F5804FC6
:1051600008D17B89DBB21A46FB681B6802F0FE029D
:105170001A611BE07B89DB11DBB203F00603DBB2B3
:1051800063F00F03DAB2FB681B681A613B687A6848
:105190000E49F86800F043F90346002B01D00123C3
:1051A00010E07B89DAB2FB681B681A613B687A6899
:1051B0000749F86800F033F90346002B01D00123BA
:1051C00000E0002318461837BD4680BD08000100E6
:1051D0000200010080B588B002AFF8607A603B60E1
:1051E0000B467B81FB68DB6A7B61FB681B681A6886
:1051F000FB681B6842F480621A607B69082B06D04A
:105200007B69012B03D07B6913F5803F08D1FB68D4
:105210001B681A68FB681B6842F480721A600BE016
:10522000FB681B6B112B07D1FB681B681A68FB68B6
:105230001B6842F480721A603B6800937B6800220E
:105240004FF00111F86800F093F80346002B0DD0E1
:10525000FB681B681B6803F48073B3F5807F03D180
:10526000FB684FF400721A64032379E0FB681B6942
:10527000B3F5804F08D17B89DBB243F00103DAB28A
:10528000FB681B681A615FE07B89DB11DBB203F00E
:105290000603DBB263F00F03DAB2FB681B681A6126
:1052A0003B687A683049F86800F0B9F80346002B8B
:1052B00001D0012354E07B89DAB2FB681B681A61D4
:1052C0003B687A682949F86800F0A9F80346002B82
:1052D00001D0012344E000233B61FB681B685B694C
:1052E0003B61FB681B689B693B613B69FB681B6812
:1052F0001A68FB681B6842F480721A603B6800936E
:105300007B6800224FF00111F86800F031F8034685
:10531000002B0DD0FB681B681B6803F48073B3F58A
:10532000807F03D1FB684FF400721A64032317E0F7
:105330007B89DB11DBB203F00603DBB263F00E0303
:10534000DAB2FB681B681A613B687A680749F8683B
:1053500000F065F80346002B01D0012300E0002394
:1053600018461837BD4680BD080001000200010044
:1053700080B584B000AFF860B9603B601346FB7144
:1053800025E03B68B3F1FF3F21D0FDF777FC0246F3
:10539000BB69D31A3A689A4202D33B68002B16D1F4
:1053A000FB6800221A63FB68202283F83D20FB681B
:1053B000002283F83E20FB681B6C43F02002FB6850
:1053C0001A64FB68002283F83C20012323E0BB68B9
:1053D0001B0CDBB2012B0DD1FB681B685B69DA4348
:1053E000BB6813409BB2002B0CBF01230023DBB230
:1053F0001A460CE0FB681B689B69DA43BB681340E4
:105400009BB2002B0CBF01230023DBB21A46FB79B1
:105410009A42B6D0002318461037BD4680BD80B5ED
:1054200084B000AFF860B9607A603B6051E0FB681F
:105430001B685B6903F48063B3F5806F23D1FB685D
:105440001B681A68FB681B6842F400721A60FB68EC
:105450001B686FF480625A61FB6800221A63FB6864
:10546000202283F83D20FB68002283F83E20FB6861
:105470001B6C43F00402FB681A64FB68002283F88B
:105480003C20012346E07B68B3F1FF3F21D0FDF7CC
:10549000F5FB02463B68D31A7A689A4202D37B68CE
:1054A000002B16D1FB6800221A63FB68202283F8C8
:1054B0003D20FB68002283F83E20FB681B6C43F014
:1054C0002002FB681A64FB68002283F83C20012359
:1054D00020E0BB681B0CDBB2012B0CD1FB681B6806
:1054E0005B69DA43BB6813409BB2002B14BF0123F6
:1054F0000023DBB20BE0FB681B689B69DA43BB68E7
:1055000013409BB2002B14BF01230023DBB2002BFE
:105510008DD1002318461037BD4680BD80B584B0BC
:1055200000AFF860B9607A602DE0F86800F0CEF85E
:105530000346002B01D001232DE0BB68B3F1FF3FF0
:1055400021D0FDF79BFB02467B68D31ABA689A42CA
:1055500002D3BB68002B16D1FB6800221A63FB68DC
:10556000202283F83D20FB68002283F83E20FB6860
:105570001B6C43F02002FB681A64FB68002283F86E
:105580003C20012307E0FB681B685B6903F0800394
:10559000802BCAD1002318461037BD4680BD80B588
:1055A00084B000AFF860B9607A602DE0F86800F070
:1055B0008DF80346002B01D001232DE0BB68B3F129
:1055C000FF3F21D0FDF75AFB02467B68D31ABA6829
:1055D0009A4202D3BB68002B16D1FB6800221A63E3
:1055E000FB68202283F83D20FB68002283F83E20E0
:1055F000FB681B6C43F02002FB681A64FB68002206
:1056000083F83C20012307E0FB681B685B6903F01B
:105610000403042BCAD1002318461037BD4680BDB1
:1056200080B584B000AFF860B9607A6042E0FB6892
:105630001B685B6903F01003102B19D1FB681B6812
:105640006FF010025A61FB6800221A63FB68202287
:1056500083F83D20FB68002283F83E20FB681A6C2B
:10566000FB681A64FB68002283F83C20012329E0D0
:10567000FDF704FB02467B68D31ABA689A4202D34C
:10568000BB68002B16D1FB6800221A63FB6820223E
:1056900083F83D20FB68002283F83E20FB681B6CEA
:1056A00043F02002FB681A64FB68002283F83C2068
:1056B000012307E0FB681B685B6903F04003402B94
:1056C000B5D1002318461037BD4680BD80B483B0E5
:1056D00000AF78607B681B685B6903F48063B3F597
:1056E000806F1BD17B681B686FF480625A617B6896
:1056F00000221A637B68202283F83D207B68002209
:1057000083F83E207B681B6C43F004027B681A64BC
:105710007B68002283F83C20012300E00023184628
:105720000C37BD465DF8047B7047F0B58FB00AAF0B
:1057300078607B68002B01D101230FE17B681B6837
:10574000BB607B6893F8BD34DBB2002B06D17B686D
:10575000002283F8BC24786813F096FB7B68032250
:1057600083F8BD24BB68DB6B03F48073002B02D18C
:105770007B6800221A617B681B68184606F06DF88A
:105780007B681B683B607E686D4606F110040FCC99
:105790000FC50FCC0FC594E8030085E80300331D47
:1057A0000ECB386805F044FF0346002B05D07B681C
:1057B000022283F8BD240123D0E07B681B6800210E
:1057C000184606F05BF80023FB734AE0FA7B796821
:1057D0001346DB0013449B000B443D3301221A7037
:1057E000FA7B79681346DB0013449B000B443C337F
:1057F000FA7B1A70FA7BFB7B98B279681346DB0060
:1058000013449B000B44443302461A80FA7B7968A8
:105810001346DB0013449B000B44403300221A70F4
:10582000FA7B79681346DB0013449B000B44483332
:1058300000221A60FA7B79681346DB0013449B0050
:105840000B444C3300221A60FA7B79681346DB0064
:1058500013449B000B44543300221A60FB7B01333A
:10586000FB73FA7B7B685B689A42AFD30023FB73C0
:1058700044E0FA7B79681346DB0013449B000B4439
:1058800003F27D2300221A70FA7B79681346DB004D
:1058900013449B000B4403F51F73FA7B1A70FA7BC9
:1058A00079681346DB0013449B000B4403F5207317
:1058B00000221A70FA7B79681346DB0013449B00C0
:1058C0000B4403F5227300221A60FA7B79681346B1
:1058D000DB0013449B000B4403F5237300221A6082
:1058E000FA7B79681346DB0013449B000B4403F5F5
:1058F000257300221A60FB7B0133FB73FA7B7B6804
:105900005B689A42B5D37B681B683B607E686D46D6
:1059100006F110040FCC0FC50FCC0FC594E803009F
:1059200085E80300331D0ECB386805F0F3FF03460E
:10593000002B05D07B68022283F8BD2401230DE0F3
:105940007B68002283F838207B68012283F8BD241D
:105950007B681B68184607F091F900231846143736
:10596000BD46F0BD80B582B000AF78607B68002B8B
:1059700001D1012315E07B68032283F8BD247B68F5
:105980001B68184607F0E4F80346002B01D00123FA
:1059900007E0786813F0CCFA7B68002283F8BD2416
:1059A000002318460837BD4680BD80B584B000AFDF
:1059B00078607B681B68FB607B6893F8BC34012BC4
:1059C00001D1022320E07B68012283F8BC247B689C
:1059D0009B6A012B09D17B689B69012B05D0FB6871
:1059E0009B6B43F48032FB689A637B681B681846A4
:1059F00005F022FF7B681B68184607F01EF97B68DC
:105A0000002283F8BC24002318461037BD4680BD11
:105A100080B584B000AF78607B681B68FB607B68F2
:105A200093F8BC34012B01D1022326E07B680122CC
:105A300083F8BC247B681B68184605F00EFF7B6862
:105A40001B68184607F01AF97B681B681021184676
:105A500006F0C4F87B689B6A012B09D17B689B69BF
:105A6000012B05D0FB689B6B23F48032FB689A63A3
:105A70007B68002283F8BC24002318461037BD46FB
:105A800080BD90B58DB000AF78607B681B683B62CD
:105A90003B6AFB617B681B68184607F0A3F9034665
:105AA000002B40F08A847B681B68184607F007F9D2
:105AB0000346002B00F08084FB6903F500639B68BC
:105AC0001B0AC3F30D027B68C3F8FC247B681B68C8
:105AD000184607F0F4F8034603F00203022B07D13F
