:020000040800F2
:1000000000800120E53A000839380008433800082C
:100010004D3800085738000861380008000000001B
:100020000000000000000000000000006B38000825
:100030007738000800000000833800088F38000877
:10004000353B0008353B0008353B0008353B0008D0
:10005000353B0008353B0008353B0008353B0008C0
:10006000353B0008353B0008353B0008353B0008B0
:10007000353B0008353B0008353B0008353B0008A0
:10008000353B0008353B0008353B00080000000008
:100090000000000000000000000000009B38000885
:1000A000353B0008353B0008353B0008353B000870
:1000B000AD380008353B0008353B0008353B0008EB
:1000C000353B0008353B0008353B0008353B000850
:1000D000353B0008C1380008D53800080000000092
:1000E000E9380008F9380008353B00080000000036
:1000F000000000000000000000000000353B000888
:1001000000000000353B0008353B0008353B000887
:1001100000000000000000000000000000000000DF
:10012000353B0008353B0008353B0008353B0008EF
:10013000353B000800000000000000000000000047
:100140000000000000000000000000000D39000861
:1001500021390008353B0008353B0008353B0008D5
:10016000353B0008353B000800000000000000009F
:10017000000000000000000000000000000000007F
:1001800000000000353B00080000000000000000F7
:04019000353B0008F3
:1001A00010B5054C237833B9044B13B10448AFF3B1
:1001B00000800123237010BD3803002000000000E0
:1001C000C806020808B5034B1BB103490348AFF347
:1001D000008008BD000000003C030020C8060208A3
:1001E00010F8012B11F8013B012A28BF9A42F7D0E1
:1001F000D01A7047034613F8012B002AFBD1181AB6
:1002000001387047000000000000000000000000FE
:1002100001F0FF01102A2BDB10F0070F08D010F8B7
:10022000013B013A8B422DD010F0070F42B3F6D1BB
:10023000F0B441EA012141EA014122F007047FF0D4
:1002400000070023F0E80256083C85EA010586EA2B
:10025000010685FA47F5A3FA87F586FA47F6A5FA67
:1002600087F68EB9EED1F0BC01F0FF0102F0070273
:1002700032B110F8013B013A83EA010313B1F8D11E
:100280000020704701387047002D06BF35460338FF
:10029000073815F0010F07D1013015F4807F02BF38
:1002A000013015F4C03F0130F0BC0138704700BF89
:1002B00081F0004102E000BF83F0004330B54FEA17
:1002C00041044FEA430594EA050F08BF90EA020F84
:1002D0001FBF54EA000C55EA020C7FEA645C7FEA17
:1002E000655C00F0E2804FEA5454D4EB5555B8BF3A
:1002F0006D420CDD2C4480EA020281EA030382EAAB
:10030000000083EA010180EA020281EA0303362D3C
:1003100088BF30BD11F0004F4FEA01314FF4801C0F
:100320004CEA113102D0404261EB410113F0004F21
:100330004FEA03334CEA133302D0524263EB4303D8
:1003400094EA050F00F0A780A4F10104D5F1200E76
:100350000DDB02FA0EFC22FA05F2801841F10001D1
:1003600003FA0EF2801843FA05F359410EE0A5F1A5
:1003700020050EF1200E012A03FA0EFC28BF4CF0D6
:10038000020C43FA05F3C01851EBE37101F000458C
:1003900007D54FF0000EDCF1000C7EEB00006EEB99
:1003A0000101B1F5801F1BD3B1F5001F0CD3490823
:1003B0005FEA30004FEA3C0C04F101044FEA44527A
:1003C00012F5800F80F09A80BCF1004F08BF5FEA01
:1003D000500C50F1000041EB045141EA050130BDE1
:1003E0005FEA4C0C404141EB0101013C28BFB1F5F3
:1003F000801FE9D291F0000F04BF01460020B1FA3E
:1004000081F308BF2033A3F10B03B3F120020CDA10
:100410000C3208DD02F1140CC2F10C0201FA0CF0EE
:1004200021FA02F10CE002F11402D8BFC2F1200C53
:1004300001FA02F120FA0CFCDCBF41EA0C01904009
:10044000E41AA2BF01EB0451294330BD6FEA040452
:100450001F3C1CDA0C340EDC04F11404C4F120023D
:1004600020FA04F001FA02F340EA030021FA04F34F
:1004700045EA030130BDC4F10C04C4F1200220FAA6
:1004800002F001FA04F340EA0300294630BD21FAE4
:1004900004F0294630BD94F0000F83F4801306BFAA
:1004A00081F480110134013D4EE77FEA645C18BF9E
:1004B0007FEA655C29D094EA050F08BF90EA020F35
:1004C00005D054EA000C04BF1946104630BD91EA2D
:1004D000030F1EBF0021002030BD5FEA545C05D130
:1004E0004000494128BF41F0004130BD14F580046F
:1004F0003CBF01F5801130BD01F0004545F0FE41E3
:1005000041F470014FF0000030BD7FEA645C1ABF17
:10051000194610467FEA655C1CBF0B46024650EA4E
:10052000013406BF52EA033591EA030F41F400217A
:1005300030BD00BF90F0000F04BF0021704730B500
:100540004FF4806404F132044FF000054FF00001D5
:1005500050E700BF90F0000F04BF0021704730B596
:100560004FF4806404F1320410F0004548BF40426B
:100570004FF000013EE700BF42004FEAE2014FEAC0
:1005800031014FEA02701FBF12F07F4393F07F4F9B
:1005900081F06051704732F07F4208BF704793F09E
:1005A0007F4F04BF41F40021704730B54FF46074B1
:1005B00001F0004521F000411CE700BF50EA0102B4
:1005C00008BF704730B54FF000050AE050EA01025D
:1005D00008BF704730B511F0004502D5404261EBCD
:1005E00041014FF4806404F132045FEA915C3FF40E
:1005F000D8AE4FF003025FEADC0C18BF03325FEAAB
:10060000DC0C18BF033202EBDC02C2F1200300FA5B
:1006100003FC20FA02F001FA03FE40EA0E0021FA80
:1006200002F11444BDE600BF70B54FF0FF0C4CF46E
:10063000E06C1CEA11541DBF1CEA135594EA0C0F20
:1006400095EA0C0F00F0DEF82C4481EA030621EA5B
:100650004C5123EA4C5350EA013518BF52EA033596
:1006600041F4801143F4801338D0A0FB02CE4FF048
:100670000005E1FB02E506F00042E0FB03E54FF078
:100680000006E1FB03569CF0000F18BF4EF0010E70
:10069000A4F1FF04B6F5007F64F5407404D25FEA6C
:1006A0004E0E6D4146EB060642EAC62141EA55511F
:1006B0004FEAC52040EA5E504FEACE2EB4F1FD0C61
:1006C00088BFBCF5E06F1ED8BEF1004F08BF5FEADF
:1006D000500E50F1000041EB045170BD06F0004691
:1006E00046EA010140EA020081EA0301B4EB5C043E
:1006F000C2BFD4EB0C0541EA045170BD41F4801136
:100700004FF0000E013C00F3AB8014F1360FDEBF5A
:10071000002001F0004170BDC4F10004203C35DA36
:100720000C341BDC04F11404C4F1200500FA05F3B9
:1007300020FA04F001FA05F240EA020001F000425A
:1007400021F0004110EBD37021FA04F642EB0601D0
:100750005EEA430E08BF20EAD37070BDC4F10C04FA
:10076000C4F1200500FA04F320FA05F001FA04F2BE
:1007700040EA020001F0004110EBD37041F10001AA
:100780005EEA430E08BF20EAD37070BDC4F12005B5
:1007900000FA05F24EEA020E20FA04F301FA05F21D
:1007A00043EA020321FA04F001F0004121FA04F2C5
:1007B00020EA020000EBD3705EEA430E08BF20EA95
:1007C000D37070BD94F0000F0FD101F000464000CF
:1007D00041EB010111F4801F08BF013CF7D041EA51
:1007E000060195F0000F18BF704703F00046520055
:1007F00043EB030313F4801F08BF013DF7D043EA26
:100800000603704794EA0C0F0CEA135518BF95EADB
:100810000C0F0CD050EA410618BF52EA4306D1D162
:1008200081EA030101F000414FF0000070BD50EA81
:10083000410606BF1046194652EA430619D094EA0B
:100840000C0F02D150EA013613D195EA0C0F05D1F5
:1008500052EA03361CBF104619460AD181EA030149
:1008600001F0004141F0FE4141F470014FF0000001
:1008700070BD41F0FE4141F4780170BD70B54FF09C
:10088000FF0C4CF4E06C1CEA11541DBF1CEA13551C
:1008900094EA0C0F95EA0C0F00F0A7F8A4EB0504FE
:1008A00081EA030E52EA03354FEA013100F08880F5
:1008B0004FEA03334FF0805545EA131343EA1263BE
:1008C0004FEA022245EA111545EA10654FEA002673
:1008D0000EF000419D4208BF964244F1FD0404F52C
:1008E000407402D25B084FEA3202B61A65EB030588
:1008F0005B084FEA32024FF480104FF4002CB6EB45
:10090000020E75EB030E22BFB61A754640EA0C00C4
:100910005B084FEA3202B6EB020E75EB030E22BF04
:10092000B61A754640EA5C005B084FEA3202B6EB45
:10093000020E75EB030E22BFB61A754640EA9C0004
:100940005B084FEA3202B6EB020E75EB030E22BFD4
:10095000B61A754640EADC0055EA060E18D04FEA92
:10096000051545EA16754FEA06164FEAC30343EA32
:1009700052734FEAC2025FEA1C1CC0D111F4801FFF
:100980000BD141EA00014FF000004FF0004CB6E7F8
:1009900011F4801F04BF01430020B4F1FD0C88BF97
:1009A000BCF5E06F3FF6AFAEB5EB030C04BFB6EBA2
:1009B000020C5FEA500C50F1000041EB045170BD95
:1009C0000EF0004E4EEA113114EB5C04C2BFD4EBC2
:1009D0000C0541EA045170BD41F480114FF0000E46
:1009E000013C90E645EA060E8DE60CEA135594EAC2
:1009F0000C0F08BF95EA0C0F3FF43BAF94EA0C0FC5
:100A00000AD150EA01347FF434AF95EA0C0F7FF439
:100A100025AF104619462CE795EA0C0F06D152EA8D
:100A200003353FF4FDAE1046194622E750EA410671
:100A300018BF52EA43067FF4C5AE50EA41047FF482
:100A40000DAF52EA43057FF4EBAE12E74FF0FF3CE7
:100A500006E000BF4FF0010C02E000BF4FF0010CB8
:100A60004DF804CD4FEA410C7FEA6C5C4FEA430C31
:100A700018BF7FEA6C5C1BD001B050EA410C0CBF80
:100A800052EA430C91EA030F02BF90EA020F0020E2
:100A9000704710F1000F91EA030F58BF994208BF49
:100AA00090422CBFD8176FEAE37040F00100704706
:100AB0004FEA410C7FEA6C5C02D150EA013C07D15D
:100AC0004FEA430C7FEA6C5CD6D152EA033CD3D0A8
:100AD0005DF8040B704700BF8446104662468C46A2
:100AE0001946634600E000BF01B5FFF7B7FF0028D5
:100AF00048BF10F1000F01BD4DF808EDFFF7F4FFFE
:100B00000CBF012000205DF808FB00BF4DF808ED88
:100B1000FFF7EAFF34BF012000205DF808FB00BFAB
:100B20004DF808EDFFF7E0FF94BF012000205DF8CD
:100B300008FB00BF4DF808EDFFF7CEFF94BF012082
:100B400000205DF808FB00BF4DF808EDFFF7C4FF7B
:100B500034BF012000205DF808FB00BF4FEA410CC4
:100B60007FEA6C5C02D150EA013C0AD14FEA430CA7
:100B70007FEA6C5C02D152EA033C02D14FF00000E4
:100B800070474FF0010070474FEA410212F5001222
:100B900015D211D56FF47873B3EB625212D94FEAC4
:100BA000C12343F0004343EA505311F0004F23FAAE
:100BB00002F018BF404270474FF00000704750EA03
:100BC000013005D111F0004008BF6FF000407047C0
:100BD0004FF00000704700BF4A0011D212F500121A
:100BE00011D20DD56FF47873B3EB62520ED44FEA85
:100BF000C12343F0004343EA505323FA02F0704705
:100C00004FF00000704750EA013002D14FF0FF3042
:100C100070474FF0000070474FEA4102B2F1E043E5
:100C200024BFB3F5001CDCF1FE5C0DD901F0004CD3
:100C30004FEAC0024CEA5070B2F1004F40EB830023
:100C400008BF20F00100704711F0804F21D113F14F
:100C50003872BCBF01F00040704741F480114FEA88
:100C60005252C2F11802C2F1200C10FA0CF320FA11
:100C700002F018BF40F001004FEAC1234FEAD3232E
:100C800003FA0CFC40EA0C0023FA02F34FEA430398
:100C9000CCE77FEA625307D150EA01331EBF4FF021
:100CA000FE4040F44000704701F0004040F0FE403C
:100CB00040F40000704700BF53B94AB9002908BF8B
:100CC00000281CBF4FF0FF314FF0FF3000F0AAB9F1
:100CD000ADF1080C6DE904CE00F03CF8DDF804E05D
:100CE000DDE9022304B0704738B500220023044632
:100CF0000D46FFF70BFF28B920462946BDE83840CE
:100D000000F00AB8204605F1004100F005F8404225
:100D100061EB410138BD00BFD0B50C4B0022064647
:100D20000F46FFF781FCFFF757FF0446FFF702FC71
:100D3000074B0022FFF778FC02460B463046394647
:100D4000FFF7BAFAFFF748FF2146D0BD0000F03D9B
:100D50000000F0412DE9F047089D04468E46002B27
:100D60004DD18A42944669D9B2FA82F252B101FA5F
:100D700002F3C2F1200120FA01F10CFA02FC41EA6F
:100D8000030E94404FEA1C48210CBEFBF8F61FFAF4
:100D90008CF708FB16E341EA034306FB07F199428F
:100DA0000AD91CEB030306F1FF3080F01F81994242
:100DB00040F21C81023E63445B1AA4B2B3FBF8F01C
:100DC00008FB103344EA034400FB07F7A7420AD9A3
:100DD0001CEB040400F1FF3380F00A81A74240F2CB
:100DE00007816444023840EA0640E41B00261DB136
:100DF000D4400023C5E900433146BDE8F0878B426B
:100E000009D9002D00F0EF800026C5E90001304629
:100E10003146BDE8F087B3FA83F6002E4AD18B4203
:100E200002D3824200F2F980841A61EB03030120AD
:100E30009E46002DE0D0C5E9004EDDE702B9FFDE99
:100E4000B2FA82F2002A40F09280A1EB0C014FEA44
:100E50001C471FFA8CFE0126200CB1FBF7F307FBA1
:100E6000131140EA01410EFB03F0884208D91CEB44
:100E7000010103F1FF3802D2884200F2CB804346E1
:100E8000091AA4B2B1FBF7F007FB101144EA0144C0
:100E90000EFB00FEA64508D91CEB040400F1FF314F
:100EA00002D2A64500F2BB800846A4EB0E0440EA3D
:100EB00003409CE7C6F12007B34022FA07FC4CEA46
:100EC000030C20FA07F401FA06F31C43F9404FEA39
:100ED0001C4900FA06F3B1FBF9F8200C1FFA8CFE4E
:100EE00009FB181140EA014108FB0EF0884202FAA2
:100EF00006F20BD91CEB010108F1FF3A80F0888063
:100F0000884240F28580A8F102086144091AA4B21F
:100F1000B1FBF9F009FB101144EA014100FB0EFEA0
:100F20008E4508D91CEB010100F1FF346CD28E45CF
:100F30006AD90238614440EA0840A0FB0294A1EB60
:100F40000E01A142C846A64656D353D05DB1B3EBBD
:100F5000080261EB0E0101FA07F722FA06F3F140ED
:100F60001F43C5E9007100263146BDE8F087C2F194
:100F70002003D8400CFA02FC21FA03F3914001430C
:100F80004FEA1C471FFA8CFEB3FBF7F007FB103645
:100F90000B0C43EA064300FB0EF69E4204FA02F4F1
:100FA00008D91CEB030300F1FF382FD29E422DD944
:100FB000023863449B1B89B2B3FBF7F607FB163379
:100FC00041EA034106FB0EF38B4208D91CEB0101F9
:100FD00006F1FF3816D28B4214D9023E6144C91A79
:100FE00046EA004638E72E46284605E70646E3E689
:100FF0001846F8E64B45A9D2B9EB020864EB0C0E93
:101000000138A3E74646EAE7204694E74046D1E7A1
:10101000D0467BE7023B614432E7304609E764444F
:10102000023842E7704700BF80B487B000AF034684
:10103000B9607A60FB8100237B613DE07A69BB681F
:101040009A421BD27B699B007A6813441A68FB8919
:101050001B04DB4318467B699B0079680B44024004
:101060001A607B699B007A6813441968FA897B6966
:101070009B00786803440A431A601AE07B699B006E
:101080007A6813441A68FB89DB4318467B699B0026
:1010900079680B4402401A607B699B007A681344AC
:1010A0001968FB891A047B699B00786803440A432A
:1010B0001A607B6901337B617B69B3F57A7FBDD3AD
:1010C00000BF00BF1C37BD465DF8047B70470000C1
:1010D00080B500AF0B4BB3F90030002B03D0094BA8
:1010E00000221A8003E0074B4FF47A721A80054BF6
:1010F000B3F90030044A19460820FFF795FF00BFF6
:1011000080BD00BFFA1200205403002080B500AF5C
:10111000094B01221A700121084804F03FFD0346E3
:10112000002B03D0064B01221A7002E0044B002270
:101130001A7000BF80BD00BFE11400200000024013
:10114000E014002080B500AF094B1B680133084A4A
:101150001360074B1B68B3F5803F02D3044B00229A
:101160001A6002F04FFD0346024A136000BF80BDC3
:10117000D41400201817002080B500AF4FF40041B0
:10118000054804F00BFD0346002B03D1034B01225D
:1011900083F8382000BF80BD000002409414002076
:1011A00080B582B000AF00237B600C4B1B6B0B4AF9
:1011B00043F480031363094B1B6B03F480037B60D0
:1011C0007B6800220021442003F0FFFA442003F052
:1011D00018FB00BF0837BD4680BD00BF0038024085
:1011E00080B500AF0D4B93F83830002B14D00B4B6B
:1011F000002283F838200A4B4FF47A725A63084B66
:101200004FF47A729A63074A00210820FFF70CFF17
:1012100041F2883002F002FD00BF80BD941400202E
:10122000000400405403002080B594B000AF07F1E3
:1012300020033022002118461AF0A8FC07F10C0305
:1012400000221A605A609A60DA601A610023BB605B
:10125000244B1B6C234A43F080531364214B1B6CBB
:1012600003F08053BB60BB6800237B601E4B1B6890
:1012700023F440431C4A43F4004313601A4B1B6899
:1012800003F440437B607B6806233B620123BB621F
:101290000123FB6210233B630023BB6307F12003A0
:1012A000184607F0EBF80346002B01D001F06AFF67
:1012B0000F23FB6000233B61C0237B610023BB61E4
:1012C0000023FB6107F10C030021184607F04EFBD9
:1012D0000346002B01D001F055FF00BF5037BD463B
:1012E00080BD00BF003802400070004080B594B05F
:1012F00000AF454B1B68444A43F0010313604FF6AF
:10130000FF73A7F84E3000BF3F4B1B6803F002038A
:10131000002B06D1B7F84E305A1EA7F84E20002BEE
:10132000F2D1394B9B68384A23F003039360364B64
:101330001B68354A23F08073136007F11C033022C9
:10134000002118461AF022FC07F1080300221A6057
:101350005A609A60DA601A6100237B602A4B1B6C2A
:10136000294A43F080531364274B1B6C03F08053CE
:101370007B607B6800233B60244B1B6823F4404365
:10138000224A43F400431360204B1B6803F440439C
:101390003B603B680523FB614FF480333B620123D4
:1013A0007B6202237B634FF48003BB631923FB63DF
:1013B0004FF4A8733B6404237B640723BB6407F1E9
:1013C0001C03184607F05AF80346002B01D001F021
:1013D000D9FE0F23BB600223FB6000233B614FF467
:1013E00080537B610023BB6107F10803022118468B
:1013F00007F0BCFA0346002B01D001F0C3FE00BF8A
:101400005037BD4680BD00BF00380240007000402C
:1014100080B582B000AF274B7B607B68B3F8953115
:101420009BB24FF4C252934218D1234A7B681046B4
:10143000194640F297131A461AF080FB1F491E48BE
:101440001BF0DFFB0346002B19D000F073FF0346AF
:101450001A461B4918481BF09FFB10E0164A194B0F
:101460001046194640F297131A461AF067FB00F02F
:1014700061FF03461A4612490F481BF08DFB1249C3
:1014800012481BF0BEFB0346002B04D0104B012278
:1014900083F826200AE00F490C481BF0B2FB0346F4
:1014A000002B03D00A4B002283F8262000BF083708
:1014B000BD4680BD00000608FC120020E0060208C0
:1014C000E80602083C250208EC060208601300202A
:1014D00094140020F406020880B584B000AF72B600
:1014E00000BF2D4BBB6003F051FE2C4B0122DA6094
:1014F0002A4B0222DA60294B1022DA60274B202285
:10150000DA60264B4022DA60244B8022DA60234BDB
:101510004FF48072DA60224B00221A60204B0222C4
:101520001A611F4B07229A601D4B0122DA603B466D
:1015300019461B4803F0A8FF0346002B03D003F015
:1015400057FE034624E0174B7B60174BFB6016E009
:10155000BB68D3E90023F968022003F0C3FD03460A
:10156000002B06D1FB680433FB60BB680433BB600F
:1015700005E003F02DFE03F03BFE034608E0FA68A9
:101580007B689A42E4D303F023FE62B600BF0023D7
:1015900018461037BD4680BDFC120020003C0240BA
:1015A00034170020970106080000060880B500AF38
:1015B000144B1B78002B22D0134B1B78002B0BD025
:1015C000124809F01BFA114809F0B6F9104B002235
:1015D0001A600D4B00221A700D4B1B68B3F5967FF5
:1015E0000DD30A4809F00AFAFFF776FF084B0022EC
:1015F0001A60044B00221A70034B00221A7000BFBD
:1016000080BD00BFD1140020D2140020D0180020CB
:10161000D414002080B582B000AF11F0F1FD11F0BC
:10162000A1FC11F039FB11F051FCBA1C391DBB1D96
:10163000184611F0F3FB00BF0837BD4680BD00001F
:1016400080B590B002AF0023FB8611F075FA034617
:10165000FB863E4811F04AFE002387F8353007F13B
:101660003503184611F08EFB0346FB8697F835309C
:10167000002B66D0364A3749374811F0DBFA03466B
:10168000FB86354B5B68354A82FB03129211DB17F0
:10169000D31A314A5360304B9B68304A82FB0312A5
:1016A0009211DB17D31A2C4A93602D4B1B78002B19
:1016B00047D0B7F93630002B13D0B7F936203B4668
:1016C000284918461BF068FA3B461846FEF792FD7B
:1016D00003469AB239464FF47A7323480AF04AF91E
:1016E0002FE01D4B1B88002B11D13B461F4918468C
:1016F0001BF052FA3B461846FEF77CFD03469AB2B1
:1017000039464FF47A7318480AF034F919E0124B4D
:101710001B881946104B5A680F4B9B68384600933C
:1017200013460A4612491BF037FA3B461846FEF7A5
:1017300061FD03469AB239464FF47A730A480AF0BB
:1017400019F900BF3837BD4680BD00BFA086010033
:101750009C1400209814002094140020D34D621093
:10176000D0140020FC060208C01900202C07020833
:101770005007020880B58CB000AF0B4812F0AAF9F0
:1017800012F0F2F83B1D184612F0C3FA0346FB852F
:1017900007F10C03184612F0B1F90346FB8500BFB0
:1017A0003037BD4680BD00BF40420F002DE9B04F2D
:1017B000A0B006AF12F0CEF90346A7F866303A485B
:1017C00012F0F4F90346A7F86630374B1B68374A26
:1017D0001361354B5B68354A5361334B9B68334A21
:1017E0009361314BDB68314AD361B7F96630002B26
:1017F00054DB2F4B1B78002B50D0B7F8663043F0EA
:10180000FF031BB240F2FF12934213D1B7F86630C8
:10181000DAB23B46274918461BF0BEF93B4618464C
:10182000FEF7E8FC03469AB239464FF47A73224831
:101830000AF0A0F81C4B1B681846FEF79DFE824676
:101840008B46194B5B681846FEF796FE04460D461C
:10185000154B9B681846FEF78FFE80468946124B53
:10186000DB681846FEF788FE02460B463846CDE98F
:101870000423CDE90289CDE9004552465B460F4974
:101880001BF08AF93B461846FEF7B4FC03469AB2B1
:1018900039464FF47A7308480AF06CF800BF68378D
:1018A000BD46BDE8B08F00BFF016002094140020A4
:1018B000D014002080070208C0190020B4070208D5
:1018C00080B500AF1A4B93F82A30002B05D0184B87
:1018D000002283F82A200FF0F3F9154B93F82930F2
:1018E000002B15D0124B002283F8292000224FF440
:1018F0000041104804F06AF94FF4FA7002F08EF9D2
:1019000001224FF400410B4804F060F9FFF732FF69
:1019100064230522C421084804F022FE0346002B5C
:1019200003D0034B012283F82B2000BF80BD00BFF2
:1019300094140020000402409017002080B500AFEE
:10194000084B93F83230002B0AD0064B93F82C301A
:10195000002B05D1034B002283F8322012F0C5F989
:1019600000BF80BD9414002080B500AF224B4FF41F
:101970007A725A63204B4FF47A729A631F4A4FF47B
:101980007A710820FFF750FB1D4802F0F2F94FF47E
:101990007A730B221B491C4809F0ECFF00224FF41C
:1019A00000411A4804F012F901220221184804F0FB
:1019B0000DF911F071F911F0AFFA0FF075F911F09E
:1019C00051FC12F011F819F091FA124808F005FFD5
:1019D000114808F002FF114808F0FFFE104802F01D
:1019E000EBFFFFF721FC02F03DF90121012006F099
:1019F00019FD00BF80BD00BF00040040540300205B
:101A000048170020EC070208C0190020000402401B
:101A10000000024088180020D0180020181900206B
:101A20006019002080B500AF02F02CF9FFF75EFCD2
:101A300001224FF40041384804F0C8F80022022186
:101A4000364804F0C3F80FF03BF9FFF7A9FB01F0AB
:101A500099F801F0E7F801F033F9FFF7DBFD3048C2
:101A600018F0EAFB0346002B05D12D4818F010FCB6
:101A700019F04EFA02E02B4B02221A704FF400715B
:101A8000264804F08BF80346002B02D1FFF772FEC4
:101A90000FE0254B012283F82C20234B012283F8F1
:101AA0002F20224B00221A6002F0ACF80346204A95
:101AB0001360204808F0E6FE1F494FF47A731F4A6E
:101AC0001F4802F0D7FF1B4B1B68DA68194B1B68D5
:101AD00042F48072DA60184A4FF47A710820FFF7F6
:101AE000A3FA0021174809F011F8174B4FF47A7246
:101AF0005A630421134809F009F8134B4FF47A7222
:101B00009A63FFF76DFB4FF47A730A220F4910486E
:101B100009F030FF00BF80BD000402400000024019
:101B2000F80702083723002094140020DC1400205A
:101B300020170020881800205403002018040240B9
:101B4000601900201819002000040040FC0702085A
:101B5000C019002080B500AF114B00225A634FF42A
:101B6000487002F05BF80E4B4FF47A725A634FF4F0
:101B7000487002F053F80A4B00225A634FF4487041
:101B800002F04CF8064B4FF47A725A634FF44870E7
:101B900002F044F8024B00225A6300BF80BD00BF30
:101BA0000004004080B500AFA64B93F93130002B04
:101BB00040F095814FF40071A34803F0EFFF034616
:101BC000002B25D09F4BD3ED087A9FEDA07AF4EE41
:101BD000C77AF1EE10FA0DDB9D4B00225A639C4B45
:101BE0004FF47A729A639B4A4FF47A710820FFF798
:101BF0001BFA96E1964B4FF47A725A63944B4FF46A
:101C00007A729A63934A00210820FFF70DFA88E15F
:101C1000904A4FF47A710820FFF706FA894BD3ED0A
:101C2000087A9FED8A7AF4EEC77AF1EE10FA38DB83
:101C3000874B4FF47A729A63864A4FF47A71082080
:101C4000FFF7F2F9844B1B78002B09D1834BB3F9D2
:101C500000309BB205339BB21AB2804B1A8008E069
:101C60007E4BB3F900309BB2053B9BB21AB27B4B63
:101C70001A807A4BB3F90030B3F57A7F03DD764BE7
:101C800001221A7007E0754BB3F90030002B02DC1B
:101C9000714B00221A70714BB3F900206C4B5A63E0
:101CA0003FE1684BD3ED087AB0EE0C7AF4EEC77AD8
:101CB000F1EE10FA42DD634BD3ED087A9FED637AC3
:101CC000F4EEC77AF1EE10FA38D8614B4FF47A721D
:101CD0009A63604A4FF47A710820FFF7A5F95E4BCA
:101CE0001B78002B09D15D4BB3F900309BB2053353
:101CF0009BB21AB2594B1A8008E0584BB3F9003026
:101D00009BB2053B9BB21AB2544B1A80534BB3F9AA
:101D10000030B3F57A7F03DD4F4B01221A7007E0E4
:101D20004E4BB3F90030002B02DC4B4B00221A70F3
:101D30004A4BB3F90020464B5A63F2E0414BD3EDD6
:101D4000087A9FED477AF4EEC77AF1EE10FA40F385
:101D50008D803C4BD3ED087AB0EE0C7AF4EEC77A66
:101D6000F1EE10FA00F282803B4B1A783D4B1B7863
:101D70009A4203D03B4B1A78374B1A70354A4FF4CE
:101D80007A710820FFF750F9334B1B78002B09D1EB
:101D9000324BB3F900309BB205339BB21AB22F4BD2
:101DA0001A8008E02D4BB3F900309BB2053B9BB283
:101DB0001AB22A4B1A80294BB3F90030B3F57A7F57
:101DC00003DD254B01221A7007E0244BB3F90030E4
:101DD000002B02DC204B00221A70224B1B78002BB8
:101DE00009D1214BB3F900309BB205339BB21AB233
:101DF0001D4B1A8008E01C4BB3F900309BB2053B29
:101E00009BB21AB2184B1A80174BB3F90030B3F5D6
:101E10007A7F03DD134B01221A7007E0124BB3F9EE
:101E20000030002B02DC0F4B00221A700B4BB3F971
:101E30000020074B5A630C4BB3F90020044B9A6304
:101E40006FE000BF94140020000002403333834051
:101E50000004004054030020F4120020F612002079
:101E600033335340F5120020F81200202E4B4FF46C
:101E70007A725A632D4A4FF47A710820FFF7D4F82A
:101E80002B4B1B78002B09D12A4BB3F900309BB2A6
:101E900005339BB21AB2274B1A8008E0254BB3F9E1
:101EA00000309BB2053B9BB21AB2224B1A80214BE9
:101EB000B3F90030B3F57A7F03DD1D4B01221A70B0
:101EC00007E01C4BB3F90030002B02DC184B00225A
:101ED0001A70184BB3F90020134B9A6321E0124B90
:101EE0004FF47A725A63114A4FF47A710820FFF75F
:101EF0009BF8104BB3F90030B3F57A7F04D00D4B4B
:101F00004FF47A721A8002E00A4B00221A80094BC1
:101F1000B3F90020044B9A634FF4967001F07EFEF3
:101F2000FFE700BF80BD00BF000400405403002055
:101F3000F5120020F812002080B500AF164B4FF4C8
:101F40007A725A63154A4FF47A710820FFF76CF8D9
:101F5000114B00229A634FF47A7001F05FFE0E4B32
:101F60004FF47A729A634FF47A7001F057FE0A4B7D
:101F700000229A634FF47A7001F050FE064B4FF442
:101F80007A729A634FF47A7001F048FE024B002295
:101F90009A6300BF80BD00BF0004004054030020CE
:101FA00080B500AFA64B93F93130002B40F09581FE
:101FB0004FF40071A34803F0F1FD0346002B25D038
:101FC0009F4BD3ED087A9FEDA07AF4EEC77AF1EE3D
:101FD00010FA0DDB9D4B00225A639C4B4FF47A7232
:101FE0009A639B4A4FF47A710820FFF71DF896E137
:101FF000964B4FF47A725A63944B4FF47A729A6309
:10200000934A00210820FFF70FF888E1904A4FF427
:102010007A710820FFF708F8894BD3ED087A9FED15
:102020008A7AF4EEC77AF1EE10FA38DB874B4FF478
:102030007A729A63864A4FF47A710820FEF7F4FFA9
:10204000844B1B78002B09D1834BB3F900309BB232
:1020500028339BB21AB2804B1A8008E07E4BB3F94A
:1020600000309BB2283B9BB21AB27B4B1A807A4B52
:10207000B3F90030B3F57A7F03DD764B01221A7095
:1020800007E0754BB3F90030002B02DC714B0022E6
:102090001A70714BB3F900206C4B5A633FE1684BE7
:1020A000D3ED087AB0EE0C7AF4EEC77AF1EE10FABE
:1020B00042DD634BD3ED087A9FED637AF4EEC77A85
:1020C000F1EE10FA38D8614B4FF47A729A63604A95
:1020D0004FF47A710820FEF7A7FF5E4B1B78002BA8
:1020E00009D15D4BB3F900309BB228339BB21AB2D1
:1020F000594B1A8008E0584BB3F900309BB2283B8B
:102100009BB21AB2544B1A80534BB3F90030B3F55B
:102110007A7F03DD4F4B01221A7007E04E4BB3F973
:102120000030002B02DC4B4B00221A704A4BB3F9F3
:102130000020464B5A63F2E0414BD3ED087A9FED05
:10214000477AF4EEC77AF1EE10FA40F38D803C4BFB
:10215000D3ED087AB0EE0C7AF4EEC77AF1EE10FA0D
:1021600000F282803B4B1A783D4B1B789A4203D099
:102170003B4B1A78374B1A70354A4FF47A71082066
:10218000FEF752FF334B1B78002B09D1324BB3F9CA
:1021900000309BB228339BB21AB22F4B1A8008E052
:1021A0002D4BB3F900309BB2283B9BB21AB22A4B9D
:1021B0001A80294BB3F90030B3F57A7F03DD254B44
:1021C00001221A7007E0244BB3F90030002B02DC27
:1021D000204B00221A70224B1B78002B09D1214B77
:1021E000B3F900309BB228339BB21AB21D4B1A8050
:1021F00008E01C4BB3F900309BB2283B9BB21AB2EB
:10220000184B1A80174BB3F90030B3F57A7F03DD12
:10221000134B01221A7007E0124BB3F90030002B68
:1022200002DC0F4B00221A700B4BB3F90020074B56
:102230005A630C4BB3F90020044B9A636FE000BF64
:102240009414002000000240333383400004004017
:1022500054030020F4120020F612002033335340C0
:10226000F5120020F81200202E4B4FF47A725A63B8
:102270002D4A4FF47A710820FEF7D6FE2B4B1B78BF
:10228000002B09D12A4BB3F900309BB228339BB203
:102290001AB2274B1A8008E0254BB3F900309BB2E5
:1022A000283B9BB21AB2224B1A80214BB3F9003063
:1022B000B3F57A7F03DD1D4B01221A7007E01C4B3A
:1022C000B3F90030002B02DC184B00221A70184BB7
:1022D000B3F90020134B9A6321E0124B4FF47A724A
:1022E0005A63114A4FF47A710820FEF79DFE104B95
:1022F000B3F90030B3F57A7F04D00D4B4FF47A7206
:102300001A8002E00A4B00221A80094BB3F9002020
:10231000044B9A634FF4967001F080FCFFE700BF16
:1023200080BD00BF0004004054030020F5120020CF
:10233000F812002090B583B000AF01F0BFFC034657
:10234000DBB27B6001F0BAFC03461D4A1B0A136036
:102350001C4C01F0BFFC034623607B68232B09D98A
:102360007B683D2B28BF3D23DBB23D33DAB2144BF3
:10237000DA710BE07B68092B01D9412200E03022A1
:102380007B68DBB21344DAB20D4BDA7101F08AFCE0
:1023900003461B0CDBB219460B4810F09BFA01F008
:1023A00081FC0346DBB21946084810F093FA044B4F
:1023B00000221A73024B18460C37BD4690BD00BF71
:1023C00024170020271700202C1700202E1700208C
:1023D00080B588B000AF3C2200218C4819F0D6FBB4
:1023E000FFF716F88A4808F04DFA8A494FF47A73D5
:1023F000894A8A4802F03EFB854B1B68DA68844BA9
:102400001B6842F48072DA60824A4FF47A710820C5
:10241000FEF70AFE0021824808F078FB814B4FF45A
:102420007A725A6304217E4808F070FB7D4B4FF4AA
:102430007A729A637C4817F0FFFE0346002B05D1A1
:10244000794817F025FF18F063FD02E0774B022270
:102450001A7001F0D7FB0346754A13604FF4007100
:10246000744803F09BFB0346002B02D1FFF782F96F
:1024700012E0664B002283F82C20644B012283F883
:102480002E20624B012283F82D20604B012283F81D
:102490002F20694B00221A60FFF7BCF80EF044FCB5
:1024A00010F086F807F11C0300221946634806F075
:1024B0001DFFBA7F554B83F827206149614818F00A
:1024C0009BFC03461A46514B83F83020FFF742FB32
:1024D000C82315225C495D4809F04CFA01F092FBD3
:1024E00003465B4A136001F08DFB0346594A1360B3
:1024F000594B01221A7072E14FF400714D4803F0FC
:102500004DFB0346002B04D001F07CFB0346504AF0
:10251000136007F1080300221946484806F004FE3C
:102520003B1D00221946454806F0E0FEBA79374BBC
:1025300083F839207A79354B83F83A20FA79334B8E
:1025400083F83B20314B93F82720BB799A4207D080
:102550002E4B012283F82820BA792C4B83F82720B0
:10256000FFF7AEF9294B93F82C30002B04D1274B01
:1025700093F82E30002B45D0244B93F82E30002BAF
:1025800003D0364B01221A7003E0204B012283F85E
:102590002D2001F037FB0246254B1B68D21A304B29
:1025A0001B689A4229D3194B93F93030B3F1FF3F9E
:1025B0000DD1164B93F82E30002B08D0204921481E
:1025C00018F01AFC03461A46104B83F830200F4BC4
:1025D000002283F82E200D4B002283F82C200B4B79
:1025E000002283F82D201D4B00221A70FFF7C2F83D
:1025F00001F008FB0346174A136001F003FB034692
:10260000134A13600EF044FB3EE000BF9414002018
:10261000881800205403002018040240601900208C
:102620001819002000040040F80702083723002092
:102630002017002000000240DC140020E4170020D6
:1026400060130020FC12002008080208C0190020B6
:10265000181700201C1700200C000020D8140020A0
:10266000080000200EF014FB8D4B93F82B30002B4C
:1026700001D1FEF7E5FFFFF799F88A4810F0C0F99D
:10268000FFF78EFCFEF7ACFD01F0BCFA0246864B6C
:102690001B68D21A854B1B689A4209D8804B93F865
:1026A0002C30002B04D17E4B93F82E30002BD9D048
:1026B000FFF744F97E4B1B78002B18D0784B93F82A
:1026C0002C30002B13D1764B93F82E30002B0ED1EB
:1026D0004FF40071774803F061FA0346002B06D1EE
:1026E00010F0DAFA11F04EFA714B00221A704FF422
:1026F0000071704803F052FA0346002B50D06E4B25
:102700001B78002B4CD0664B93F82C30002B47D114
:10271000634B93F82830002B0FD1614B93F8243092
:10272000002B0AD15E4B93F82530002B05D15C4B72
:1027300093F93030B3F1FF3F14D1594B002283F8A5
:102740002820574B002283F82420554B002283F881
:1027500025205A495A4818F04FFB03461A46504B59
:1027600083F8302018F01EFB0346002B13D040F2F4
:10277000DC5001F053FA18F015FB0346002B0AD089
:1027800040F2DC5001F04AFA18F00CFB0346002B33
:1027900001D002F052F801F035FA0346424A1360C4
:1027A0000FF006FF3F4810F02BF9FFF7FBF9FEF79B
:1027B000FDFE01213F4803F0F1F90346002B06D04E
:1027C000374B01221A733F4B01221A7005E0344B3C
:1027D00000221A733B4B01221A70FEF701FD01F033
:1027E00011FA0246384B1B68D21A384B1B689A42C2
:1027F0007FF682AE2A4B93F82830002B0FD1284B5E
:1028000093F82430002B0AD1254B93F82530002B68
:1028100005D1234B93F93030B3F1FF3F14D1204B56
:10282000002283F828201E4B002283F824201C4B12
:10283000002283F825202149214818F0DDFA0346BB
:102840001A46174B83F8302018F0ACFA0346002BD9
:1028500013D040F2DC5001F0E1F918F0A3FA03467E
:10286000002B0AD040F2DC5001F0D8F918F09AFAA7
:102870000346002B01D001F0E0FF01F0C3F903464D
:10288000114A13604FF400710A4803F087F90346B8
:10289000002B7FF423AEFFF767F8FFF7C3F81DE6C0
:1028A00094140020B41400201C1700200400002001
:1028B0000C000020000002402900002060130020CE
:1028C000FC120020E1140020181700200000002056
:1028D00080B500AF01F030F900F020F84FF47A70C5
:1028E00001F09CF900F0E2FA00F0C0FA00F02AF9D9
:1028F00000F068FA00F000F900F0D0F800F092F96A
:1029000000F08AFA00F078F80FF0A2FC00F03AF933
:1029100000F0D6F9FFF75CFDFEE7000080B594B04B
:1029200000AF07F1200330220021184619F02EF9DC
:1029300007F10C0300221A605A609A60DA601A618B
:102940000023BB602A4B1B6C294A43F0805313645D
:10295000274B1B6C03F08053BB60BB6800237B607C
:10296000244B1B6823F44043224A43F40043136082
:10297000204B1B6803F440437B607B6805233B626C
:102980004FF480337B620123BB620223BB634FF4AD
:102990008003FB6319233B644FF4A8737B64042317
:1029A000BB640723FB6407F12003184605F066FDAE
:1029B0000346002B01D000F0E5FB0F23FB60022350
:1029C0003B6100237B614FF48053BB610023FB61BB
:1029D00007F10C030221184605F0C8FF0346002B3F
:1029E00001D000F0CFFB00BF5037BD4680BD00BF17
:1029F000003802400070004080B584B000AF3B4614
:102A000000221A605A609A60DA60214B214A1A60EB
:102A10001F4B4FF480325A601D4B00229A601C4BB2
:102A200000221A611A4B00221A76194B002283F8F1
:102A30002020174B0022DA62154B174A9A62144B7A
:102A40000022DA60124B0122DA61114B002283F876
:102A500030200F4B01225A610D4801F047F903461F
:102A6000002B01D000F08EFB0A233B6001237B602A
:102A70000023BB603B461946054801F02DFB034689
:102A8000002B01D000F07EFB00BF1037BD4680BD9B
:102A900048170020002001400100000F80B500AF62
:102AA000124B134A1A60114B124A5A600F4B002204
:102AB0009A600E4B0022DA600C4B4FF480421A6190
:102AC0000A4B00225A61094B00229A61074B0022EF
:102AD000DA61064B00221A62044803F0A9F80346A3
:102AE000002B01D000F04EFB00BF80BD90170020EE
:102AF00000540040801A060080B500AF0F4B104A0A
:102B00001A600E4B00225A600C4B7F229A600B4BCE
:102B1000FF22DA60094B00221A61084B00225A6139
:102B2000064B00229A61054806F0EEF90346002B99
:102B300001D000F027FB00BF80BD00BFE4170020DC
:102B40000028004080B400AF0C4B0D4A1A600B4BBC
:102B500000225A60094B00229A60084B0022DA607A
:102B6000064B00221A61054B00225A61034B0522D5
:102B70009A6100BFBD465DF8047B704704180020D1
:102B8000002C014080B586B000AF07F10803002299
:102B90001A605A609A60DA603B4600221A605A60F6
:102BA0001E4B1F4A1A601D4B00225A601B4B00220D
:102BB0009A601A4B40F2E732DA60184B00221A6131
:102BC000164B00225A61154B00229A61134807F0F8
:102BD000B5FD0346002B01D000F0D4FA4FF480532A
:102BE000BB6007F1080319460C4808F009FA0346D0
:102BF000002B01D000F0C6FA20233B6000237B604D
:102C00003B461946054808F0B7FD0346002B01D0A6
:102C100000F0B8FA00BF1837BD4680BD8818002004
:102C20000000014080B586B000AF07F10803002224
:102C30001A605A609A60DA603B4600221A605A6055
:102C40001E4B4FF080421A601C4B4FF47A725A6050
:102C50001A4B00229A60194B42F2D002DA60174BED
:102C600000221A61154B80229A61144807F066FD14
:102C70000346002B01D000F085FA4FF48053BB606F
:102C800007F1080319460D4808F0BAF90346002B6E
:102C900001D000F077FA00233B6000237B603B46C5
:102CA0001946064808F068FD0346002B01D000F0E5
:102CB00069FA00BF1837BD4680BD00BFD01800209C
:102CC00080B58EB000AF07F1280300221A605A6069
:102CD0009A60DA6007F1200300221A605A603B1DF7
:102CE00000221A605A609A60DA601A615A619A6129
:102CF000324B334A1A60314B00225A602F4B00226C
:102D00009A602E4B40F2E732DA602C4B00221A61B7
:102D10002A4B80229A61294807F010FD0346002BB8
:102D200001D000F02FFA4FF48053BB6207F1280363
:102D30001946224808F064F90346002B01D000F040
:102D400021FA1E4807F089FE0346002B01D000F04F
:102D500019FA00233B6200237B6207F12003194626
:102D6000164808F009FD0346002B01D000F00AFACE
:102D700060237B600023BB600023FB6000237B613A
:102D80003B1D002219460D4808F078F80346002B39
:102D900001D000F0F7F93B1D04221946074808F05E
:102DA0006DF80346002B01D000F0ECF9034800F069
:102DB00009FC00BF3837BD4680BD00BF1819002090
:102DC0000004004080B500AF114B124A1A60104B4E
:102DD0004FF4E1325A600E4B00229A600C4B0022F5
:102DE000DA600B4B00221A61094B0C225A61084B26
:102DF00000229A61064B0022DA61054808F03EFD88
:102E00000346002B01D000F0BDF900BF80BD00BF1C
:102E1000C01900200010014080B500AF114B124ACC
:102E20001A60104B4FF4E1325A600E4B00229A6048
:102E30000C4B0022DA600B4B00221A61094B0C226A
:102E40005A61084B00229A61064B0022DA6105485C
:102E500008F014FD0346002B01D000F093F900BFE9
:102E600080BD00BF041A00200044004080B582B03D
:102E700000AF00237B600C4B1B6B0B4A43F48003B9
:102E80001363094B1B6B03F480037B607B68002298
:102E90000021442001F099FC442001F0B2FC00BF65
:102EA0000837BD4680BD00BF0038024080B58AB0FB
:102EB00000AF07F1140300221A605A609A60DA60CA
:102EC0001A6100233B61714B1B6B704A43F0040392
:102ED00013636E4B1B6B03F004033B613B690023E0
:102EE000FB606A4B1B6B694A43F080031363674BBB
:102EF0001B6B03F08003FB60FB680023BB60634B2C
:102F00001B6B624A43F001031363604B1B6B03F0BE
:102F10000103BB60BB6800237B605C4B1B6B5B4A9F
:102F200043F002031363594B1B6B03F002037B60F6
:102F30007B6800233B60554B1B6B544A43F00803EE
:102F40001363524B1B6B03F008033B603B6800228A
:102F500002214F4802F03AFE01224FF400414D4851
:102F600002F034FE002208214A4802F02FFE42F609
:102F7000FE637B610323BB610023FB6107F1140344
:102F80001946454802F0A2FB01237B610023BB6187
:102F90000023FB6107F1140319463D4802F096FB3C
:102FA00002237B610123BB610023FB6102233B629F
:102FB00007F114031946364802F088FB4FF4BE634C
:102FC0007B610323BB610023FB6107F114031946F6
:102FD0002F4802F07BFB47F207437B610323BB6171
:102FE0000023FB6107F1140319462A4802F06EFB27
:102FF0004FF400437B610123BB610023FB6102238B
:103000003B6207F114031946224802F05FFB4FF4BC
:1030100000737B614FF48813BB610223FB6107F1EE
:10302000140319461A4802F051FB4FF400437B6128
:103030004FF40413BB610123FB6107F1140319462C
:10304000134802F043FB08237B610123BB6100238B
:10305000FB6100233B6207F1140319460D4802F09F
:1030600035FB00220021172001F0AFFB172001F0F3
:10307000C8FB00220021282001F0A7FB282001F036
:10308000C0FB00BF2837BD4680BD00BF00380240EE
:1030900000000240000402400008024080B582B0F7
:1030A00000AF78607B681B68B3F1804F01D1FEF7F9
:1030B00049F800BF0837BD4680BD000080B582B02A
:1030C00000AF0346FB80FB88012B01D1FEF71EF801
:1030D000FB88B3F5007F14D10F4B012283F82C201D
:1030E0000D4B012283F82F200C4B00221A6000F0B8
:1030F00089FD03460A4A136000F084FD0346094A2D
:103100001360FB88B3F5004F01D1FEF735F800BF1F
:103110000837BD4680BD00BF94140020DC14002099
:10312000201700201817002080B582B000AF78600B
:103130000FF00CFA00BF0837BD4680BD80B483B0E5
:1031400000AF78607B680D4A934206D17B681A6CA9
:103150007B681B68D2431A6009E07B68084A934287
:1031600005D17B681A6C7B681B68D2431A6000BF6C
:103170000C37BD465DF8047B704700BFC0190020C6
:10318000041A002080B500AF72B600BF01F055FBF5
:10319000FEE7000080B483B000AF00237B60104BDB
:1031A0005B6C0F4A43F4804353640D4B5B6C03F438
:1031B00080437B607B6800233B60094B1B6C084AA3
:1031C00043F080531364064B1B6C03F080533B6049
:1031D0003B6800BF0C37BD465DF8047B704700BFFD
:1031E0000038024080B58AB000AF786007F1140360
:1031F00000221A605A609A60DA601A617B681B6864
:10320000174A934227D100233B61164B5B6C154A4A
:1032100043F480735364134B5B6C03F480733B6122
:103220003B690023FB600F4B1B6B0E4A43F004030A
:1032300013630C4B1B6B03F00403FB60FB6801235F
:103240007B610323BB610023FB6107F11403194673
:10325000054802F03BFA00BF2837BD4680BD00BFDD
:1032600000200140003802400008024080B582B0D2
:1032700000AF78607B681B68084A934209D1084B0D
:103280005B6C074A23F4807353640121054802F004
:10329000A1FB00BF0837BD4680BD00BF0020014034
:1032A000003802400008024080B58AB000AF786064
:1032B00007F1140300221A605A609A60DA601A61FA
:1032C0007B681B68194A93422CD100233B61184B41
:1032D0001B6B174A43F002031363154B1B6B03F080
:1032E00002033B613B694FF440737B611223BB6176
:1032F0000023FB6103233B6204237B6207F1140379
:1033000019460C4802F0E2F90023FB60084B1B6CE5
:10331000074A43F400131364054B1B6C03F40013BA
:10332000FB60FB6800BF2837BD4680BD00540040ED
:10333000003802400004024080B582B000AF7860DF
:103340007B681B680B4A93420FD10B4B1B6C0A4ADC
:1033500023F4001313644FF48071084802F03AFB21
:103360004FF40071054802F035FB00BF0837BD4639
:1033700080BD00BF005400400038024000040240FD
:1033800080B588B000AF786007F10C0300221A60A6
:103390005A609A60DA601A617B681B68104A93422F
:1033A00019D10223FB604FF48073BB6107F10C035A
:1033B000184605F0BBFC0346002B01D0FFF7E2FEE8
:1033C000084B01221A6000220021292001F0FDF99A
:1033D000292001F016FA00BF2037BD4680BD00BF8E
:1033E000002800403C0E474280B58AB000AF7860AC
:1033F00007F1140300221A605A609A60DA601A61B9
:103400007B681B68284A93424AD100233B61274BC3
:103410005B6C264A43F400635364244B5B6C03F4F7
:1034200000633B613B690023FB60204B1B6B1F4A21
:1034300043F0040313631D4B1B6B03F00403FB6099
:10344000FB680023BB60194B1B6B184A43F0080351
:103450001363164B1B6B03F00803BB60BB684FF490
:1034600088537B610223BB610023FB6103233B6222
:103470000C237B6207F1140319460D4802F026F96C
:1034800004237B610223BB610023FB6103233B62B6
:103490000C237B6207F114031946064802F016F963
:1034A00000BF2837BD4680BD002C014000380240D7
:1034B00000080240000C024080B586B000AF786082
:1034C0007B681B683A4A93423FD100237B61394BAA
:1034D0005B6C384A43F001035364364B5B6C03F07A
:1034E00001037B617B69344B344A1A60324B4FF0E5
:1034F00040625A60304B40229A602F4B0022DA60C3
:103500002D4B4FF480621A612B4B4FF480525A615D
:10351000294B4FF480429A61274B4FF48072DA6155
:10352000254B00221A62244B00225A62224801F0E5
:1035300095F90346002B01D0FFF724FE7B681E4A55
:103540001A621D4A7B6893632EE07B681B68B3F1A7
:10355000804F16D100233B61164B1B6C154A43F07C
:1035600001031364134B1B6C03F001033B613B69C4
:10357000002200211C2001F028F91C2001F041F953
:1035800012E07B681B680E4A93420DD10023FB605A
:10359000084B1B6C074A43F002031364054B1B6C7A
:1035A00003F00203FB60FB6800BF1837BD4680BD17
:1035B0000000014000380240601900208864024089
:1035C0000004004080B588B000AF786007F10C03BC
:1035D00000221A605A609A60DA601A617B681B6880
:1035E000124A93421DD10023BB60114B1B6B104A42
:1035F00043F0020313630E4B1B6B03F00203BB602B
:10360000BB683023FB6002233B6100237B61002306
:10361000BB610223FB6107F10C031946054802F068
:1036200055F800BF2037BD4680BD00BF00040040F4
:10363000003802400004024080B582B000AF7860DC
:103640007B681B68164A93420BD1164B5B6C154A7C
:1036500023F0010353647B681B6A184601F0ACF940
:1036600019E07B681B68B3F1804F09D10D4B1B6CCF
:103670000C4A23F0010313641C2001F0D0F80AE087
:103680007B681B68084A934205D1064B1B6C054AB0
:1036900023F00203136400BF0837BD4680BD00BF9E
:1036A00000000140003802400004004080B58CB0AA
:1036B00000AF786007F11C0300221A605A609A601C
:1036C000DA601A617B681B683A4A934234D100235E
:1036D000BB61394B5B6C384A43F010035364364B83
:1036E0005B6C03F01003BB61BB6900237B61324B51
:1036F0001B6B314A43F0020313632F4B1B6B03F028
:1037000002037B617B69C023FB6102233B620023D0
:103710007B620323BB620723FB6207F11C0319468C
:10372000264801F0D3FF00220021252001F04DF8AA
:10373000252001F066F838E07B681B68204A934238
:1037400033D100233B611C4B1B6C1B4A43F40033F9
:103750001364194B1B6C03F400333B613B6900237A
:10376000FB60154B1B6B144A43F001031363124BB0
:103770001B6B03F00103FB60FB680C23FB6102235E
:103780003B6200237B620323BB620723FB6207F1DA
:103790001C0319460B4801F099FF00220021262046
:1037A00001F013F8262001F02CF800BF3037BD4699
:1037B00080BD00BF001001400038024000040240FC
:1037C000004400400000024080B582B000AF786045
:1037D0007B681B68134A93420DD1134B5B6C124AF2
:1037E00023F010035364C021104802F0F3F82520A1
:1037F00001F015F811E07B681B680D4A93420CD16B
:10380000094B1B6C084A23F4003313640C2109484C
:1038100002F0E0F8262001F002F800BF0837BD46AC
:1038200080BD00BF0010014000380240000402408B
:10383000004400400000024080B500AF00F0FDFFF2
:10384000FEE780B500AF00F0F8FFFEE780B500AFFF
:1038500000F0F3FFFEE780B500AF00F0EEFFFEE7FB
:1038600080B500AF00F0E9FFFEE780B500AF00F0E3
:10387000E4FF00BF80BD80B500AF00F0DEFF00BFF9
:1038800080BD80B500AF00F0D8FF00BF80BD80B51F
:1038900000AF00F0A3F900BF80BD80B500AF4FF4CA
:1038A000007002F0ADF900BF80BD000080B500AF30
:1038B000024807F0DBF900BF80BD00BFD018002030
:1038C00080B500AF024808F07DF900BF80BD00BFA1
:1038D000C019002080B500AF024808F073F900BF9E
:1038E00080BD00BF041A002080B500AF4FF4004037
:1038F00002F086F900BF80BD80B500AF024805F038
:1039000087FE00BF80BD00BFE417002080B500AF78
:10391000024803F02CFC00BF80BD00BF142900202A
:1039200080B500AF024801F073F900BF80BD00BF51
:103930006019002080B400AF01231846BD465DF831
:10394000047B704780B582B000AF7860396018F0B2
:1039500051F8034616221A604FF0FF331846083715
:10396000BD4680BD80B582B000AF78604FF0FF31BA
:103970007868FFF7E7FFFEE780B586B000AFF86034
:10398000B9607A6000237B610AE0AFF300800146F2
:10399000BB685A1CBA60CAB21A707B6901337B617A
:1039A0007A697B689A42F0DB7B6818461837BD4617
:1039B00080BD80B586B000AFF860B9607A60002342
:1039C0007B6109E0BB685A1CBA601B781846AFF3EC
:1039D00000807B6901337B617A697B689A42F1DB05
:1039E0007B6818461837BD4680BD80B483B000AFF1
:1039F00078604FF0FF3318460C37BD465DF8047B06
:103A0000704780B483B000AF786039603B684FF492
:103A100000525A60002318460C37BD465DF8047BFF
:103A2000704780B483B000AF7860012318460C372C
:103A3000BD465DF8047B704780B485B000AFF86088
:103A4000B9607A60002318461437BD465DF8047BE0
:103A50007047000080B586B000AF7860144A154BFF
:103A6000D31A7B617B693B61134B1B68002B02D12E
:103A7000114B124A1A60104B1A687B6813443A695A
:103A80009A4207D217F0B6FF03460C221A604FF095
:103A9000FF3309E0084B1B68FB60074B1A687B6823
:103AA0001344054A1360FB6818461837BD4680BDAD
:103AB0000080012000040000481A0020A8360020E1
:103AC00080B400AF064BD3F88830054A43F4700346
:103AD000C2F8883000BFBD465DF8047B704700BF68
:103AE00000ED00E0DFF834D00D480E490E4A002307
:103AF00002E0D458C4500433C4188C42F9D30B4AA2
:103B00000B4C002301E013600432A242FBD3FFF709
:103B1000D7FF17F0E3FFFEF7DBFE704700800120C0
:103B200000000020380300209830020838030020ED
:103B3000A8360020FEE7000080B500AF0E4B1B68E2
:103B40000D4A43F4007313600B4B1B680A4A43F49D
:103B500080631360084B1B68074A43F4807313604B
:103B6000032000F027FE0F2000F008F8FFF712FBFB
:103B70000023184680BD00BF003C024080B582B0E3
:103B800000AF7860124B1A68124B1B7819464FF43D
:103B90007A73B3FBF1F3B2FBF3F3184600F051FE76
:103BA0000346002B01D001230EE07B680F2B0AD8BF
:103BB000002279684FF0FF3000F007FE064A7B686C
:103BC0001360002300E0012318460837BD4680BD7E
:103BD00010000020180000201400002080B400AF66
:103BE000064B1B781A46064B1B681344044A1360A5
:103BF00000BFBD465DF8047B704700BF1800002081
:103C00004C1A002080B400AF034B1B681846BD4619
:103C10005DF8047B704700BF4C1A002080B584B06B
:103C200000AF7860FFF7EEFFB8607B68FB60FB6871
:103C3000B3F1FF3F05D00A4B1B781A46FB681344CB
:103C4000FB6000BFFFF7DEFF0246BB68D31AFA68CD
:103C50009A42F7D800BF00BF1037BD4680BD00BFF5
:103C60001800002080B400AF054B1B68044A23F005
:103C70000203136000BFBD465DF8047B704700BFC0
:103C800010E000E080B400AF054B1B68044A43F02D
:103C90000203136000BFBD465DF8047B704700BFA0
:103CA00010E000E080B400AF034B1B681846BD462F
:103CB0005DF8047B704700BF107AFF1F80B400AF2F
:103CC000034B1B681846BD465DF8047B704700BF78
:103CD000147AFF1F80B400AF034B1B681846BD4623
:103CE0005DF8047B704700BF187AFF1F80B584B071
:103CF00000AF78600023FB737B68002B01D10123A8
:103D000033E07B681B6C002B09D17868FFF76AFAF7
:103D10007B6800225A647B68002283F83C207B6821
:103D20001B6C03F01003002B18D17B681B6C23F471
:103D3000885323F0020343F002027B681A64786818
:103D400000F0ECFA7B6800225A647B681B6C23F05D
:103D5000030343F001027B681A6401E00123FB7353
:103D60007B68002283F83C20FB7B18461037BD4659
:103D700080BD80B584B000AF78600023FB737B68A2
:103D8000002B01D1012322E07B681B6C43F002026F
:103D90007B681A647B681B689A687B681B6822F0E2
:103DA00001029A607B681B689B6803F00103002B8B
:103DB00008D17868FFF75AFA7B6800225A647B685A
:103DC00000221A647B68002283F83C20FB7B1846A3
:103DD0001037BD4680BD000080B485B000AF78606C
:103DE0000023BB607B6893F83C30012B01D1022398
:103DF00097E07B68012283F83C207B681B689B6806
:103E000003F00103012B18D07B681B689A687B685C
:103E10001B6842F001029A60454B1B68454AA2FBB1
:103E200003239A0C13465B001344BB6002E0BB689B
:103E3000013BBB60BB68002BF9D17B681B689B68AA
:103E400003F00103012B5FD17B681B6C23F4E0635B
:103E500023F0010343F480727B681A647B681B685B
:103E60005B6803F48063002B07D07B681B6C23F432
:103E7000405343F480527B681A647B681B6C03F4E4
:103E80008053B3F5805F06D17B685B6C23F006023C
:103E90007B685A6402E07B6800225A647B680022D7
:103EA00083F83C20244BFB607B681B686FF0220288
:103EB0001A60FB685B6803F01F03002B0FD17B685F
:103EC0001B689B6803F04053002B29D17B681B685B
:103ED0009A687B681B6842F080429A6020E07B68A9
:103EE0001B68164A93421BD17B681B689B6803F0D2
:103EF0004053002B14D17B681B689A687B681B6851
:103F000042F080429A600BE07B681B6C43F0100229
:103F10007B681A647B685B6C43F001027B685A64BF
:103F2000002318461437BD465DF8047B704700BF78
:103F30001000002083DE1B430023014000200140CD
:103F400080B483B000AF78607B6893F83C30012B7D
:103F500001D1022321E07B68012283F83C207B68A9
:103F60001B689A687B681B6822F001029A607B6874
:103F70001B689B6803F00103002B09D17B681B6C55
:103F800023F4885323F0010343F001027B681A6491
:103F90007B68002283F83C20002318460C37BD467E
:103FA0005DF8047B704780B584B000AF78603960FD
:103FB0000023FB607B681B689B6803F48063B3F598
:103FC000806F13D17B681B689B6803F48073B3F523
:103FD000807F0BD17B681B6C43F020027B681A64E6
:103FE0007B68002283F83C20012363E0FFF70AFE90
:103FF000F86021E03B68B3F1FF3F1DD03B68002B28
:1040000007D0FFF7FFFD0246FB68D31A3A689A42D1
:1040100012D27B681B681B6803F00203022B0BD0D3
:104020007B681B6C43F004027B681A647B68002287
:1040300083F83C2003233DE07B681B681B6803F08A
:104040000203022BD6D17B681B686FF012021A6044
:104050007B681B6C43F400727B681A647B681B6886
:104060009B6803F04053002B23D17B681B7E002B01
:104070001FD17B681B68DB6A03F47003002B06D03A
:104080007B681B689B6803F48063002B11D17B68FD
:104090001B6C23F480727B681A647B681B6C03F4CE
:1040A0008053002B05D17B681B6C43F001027B68B9
:1040B0001A64002318461037BD4680BD80B483B013
:1040C00000AF78607B681B68DB6C18460C37BD4618
:1040D0005DF8047B7047000080B485B000AF786065
:1040E00039600023BB607B6893F83C30012B01D121
:1040F000022305E17B68012283F83C203B681B68B2
:10410000092B25D97B681B68D9683B681B689BB263
:104110001A4613465B0013441E3B072202FA03F3C0
:10412000DA437B681B680A40DA607B681B68D968E1
:104130003B689A683B681B689BB2184603465B0065
:1041400003441E3B9A407B681B680A43DA6022E006
:104150007B681B6819693B681B689BB21A4613464B
:104160005B001344072202FA03F3DA437B681B68FF
:104170000A401A617B681B6819693B689A683B684A
:104180001B689BB2184603465B0003449A407B6859
:104190001B680A431A613B685B68062B24D87B685E
:1041A0001B68596B3B685A6813469B001344053BD8
:1041B0001F2202FA03F3DA437B681B680A405A6342
:1041C0007B681B68596B3B681B689BB218463B6851
:1041D0005A6813469B001344053B00FA03F27B68C0
:1041E0001B680A435A634CE03B685B680C2B24D87D
:1041F0007B681B68196B3B685A6813469B00134425
:10420000233B1F2202FA03F3DA437B681B680A4050
:104210001A637B681B68196B3B681B689BB2184666
:104220003B685A6813469B001344233B00FA03F291
:104230007B681B680A431A6323E07B681B68D96AA2
:104240003B685A6813469B001344413B1F2202FA05
:1042500003F3DA437B681B680A40DA627B681B68F9
:10426000D96A3B681B689BB218463B685A6813467C
:104270009B001344413B00FA03F27B681B680A432E
:10428000DA62224BFB607B681B68214A934209D1AA
:104290003B681B68122B05D1FB685B6843F4800206
:1042A000FB685A607B681B68194A934223D13B68BC
:1042B0001B68102B03D03B681B68112B1BD1FB68BC
:1042C0005B6843F40002FB685A603B681B68102B74
:1042D00011D1104B1B68104AA2FB03239A0C134602
:1042E0009B0013445B00BB6002E0BB68013BBB600A
:1042F000BB68002BF9D17B68002283F83C200023A7
:1043000018461437BD465DF8047B70470023014012
:10431000002001401000002083DE1B4380B485B0E4
:1043200000AF7860794BFB60FB685B6823F4403238
:10433000FB685A60FB685A687B685B681A43FB68D5
:104340005A607B681B685A687B681B6822F480721D
:104350005A607B681B6859687B681B691A027B6816
:104360001B680A435A607B681B685A687B681B6835
:1043700022F040725A607B681B6859687B689A68B3
:104380007B681B680A435A607B681B689A687B6875
:104390001B6822F400629A607B681B6899687B68DE
:1043A000DA687B681B680A439A607B689B6A584A94
:1043B000934222D07B681B689A687B681B6822F056
:1043C00070629A607B681B6899687B689A6A7B68F0
:1043D0001B680A439A607B681B689A687B681B6845
:1043E00022F040529A607B681B6899687B68DA6AA1
:1043F0007B681B680A439A600FE07B681B689A68B9
:104400007B681B6822F070629A607B681B689A6800
:104410007B681B6822F040529A607B681B689A6830
:104420007B681B6822F002029A607B681B689968AF
:104430007B681B7E5A007B681B680A439A607B6816
:1044400093F82030002B1BD07B681B685A687B6870
:104450001B6842F400625A607B681B685A687B687C
:104460001B6822F460425A607B681B6859687B684D
:104470005B6A013B5A037B681B680A435A6007E08A
:104480007B681B685A687B681B6822F400625A606C
:104490007B681B68DA6A7B681B6822F47002DA6248
:1044A0007B681B68D96A7B68DB69013B1A057B68FE
:1044B0001B680A43DA627B681B689A687B681B6822
:1044C00022F400729A607B681B6899687B6893F895
:1044D00030305A027B681B680A439A607B681B680D
:1044E0009A687B681B6822F480629A607B681B680C
:1044F00099687B685B699A027B681B680A439A60CB
:1045000000BF1437BD465DF8047B704700230140AF
:104510000100000F80B485B000AF786039607B681F
:1045200093F83C30012B01D1022331E07B6801225A
:1045300083F83C20194BFB60FB685B6823F01F028B
:10454000FB685A60FB685A683B681B681A43FB6843
:104550005A60FB685B6823F44042FB685A60FB6862
:104560005A683B685B681A43FB685A60FB685B6883
:1045700023F47062FB685A60FB685A683B689B686A
:104580001A43FB685A607B68002283F83C200023B2
:1045900018461437BD465DF8047B70470023014080
:1045A00080B485B000AF78607B6803F00703FB60E0
:1045B0000C4BDB68BB60BA684FF6FF031340BB606F
:1045C000FB681A02BB68134343F0BF6343F4003334
:1045D000BB60044ABB68D36000BF1437BD465DF8BA
:1045E000047B704700ED00E080B400AF044BDB6853
:1045F0001B0A03F007031846BD465DF8047B7047AD
:1046000000ED00E080B483B000AF0346FB7197F982
:104610000730002B0BDBFB7903F01F02074997F9EA
:1046200007305B09012000FA02F241F8232000BFA5
:104630000C37BD465DF8047B704700BF00E100E029
:1046400080B483B000AF0346FB7197F90730002BAD
:1046500012DBFB7903F01F020A4997F907305B0967
:10466000012000FA02F2203341F82320BFF34F8FDC
:1046700000BFBFF36F8F00BF00BF0C37BD465DF8B2
:10468000047B704700E100E080B483B000AF0346D4
:104690003960FB7197F90730002B0ADB3B68DAB20F
:1046A0000C4997F907301201D2B20B4483F800236A
:1046B0000AE03B68DAB20849FB7903F00F03043BD8
:1046C0001201D2B20B441A7600BF0C37BD465DF81A
:1046D000047B704700E100E000ED00E080B489B0A9
:1046E00000AFF860B9607A60FB6803F00703FB6114
:1046F000FB69C3F10703042B28BF0423BB61FB69DB
:104700000433062B02D9FB69033B00E000237B61E5
:104710004FF0FF32BB6902FA03F3DA43BB681A4079
:104720007B699A404FF0FF317B6901FA03F3D9436B
:104730007B680B40134318462437BD465DF8047B65
:104740007047000080B400AFBFF34F8F00BF064B2F
:10475000DB6803F4E0620449044B1343CB60BFF30E
:104760004F8F00BF00BFFDE700ED00E00400FA0539
:1047700080B582B000AF78607B68013BB3F1807F89
:1047800001D301230FE00A4A7B68013B53600F21EC
:104790004FF0FF30FFF778FF054B00229A60044B83
:1047A00007221A60002318460837BD4680BD00BFA7
:1047B00010E000E080B582B000AF78607868FFF765
:1047C000EFFE00BF0837BD4680BD80B586B000AFA4
:1047D0000346B9607A60FB7300237B61FFF704FF37
:1047E00078617A68B9687869FFF778FF024697F9C7
:1047F0000F3011461846FFF747FF00BF1837BD4678
:1048000080BD80B582B000AF0346FB7197F90730D9
:104810001846FFF7F7FE00BF0837BD4680BD80B5DC
:1048200082B000AF0346FB7197F907301846FFF7D7
:1048300007FF00BF0837BD4680BD80B500AFFFF75A
:1048400081FF80B582B000AF78607868FFF790FF95
:10485000034618460837BD4680BD000080B586B0C7
:1048600000AF786000237B61FFF7CCF938617B688B
:10487000002B01D1012399E07B68022283F83520C7
:104880007B68002283F834207B681B681A687B6889
:104890001B6822F001021A600FE0FFF7B3F902462D
:1048A0003B69D31A052B08D97B6820225A657B689F
:1048B000032283F83520032378E07B681B681B689C
:1048C00003F00103002BE8D17B681B681B687B6148
:1048D0007A69384B13407B617B685A687B689B68B8
:1048E0001A437B68DB681A437B681B691A437B6841
:1048F0005B691A437B689B691A437B68DB691A43CF
:104900007B681B6A13437A6913437B617B685B6A2C
:10491000042B07D17B68DA6A7B681B6B13437A69C7
:1049200013437B617B681B687A691A607B681B682C
:104930005B697B617B6923F007037B617B685B6A52
:104940007A6913437B617B685B6A042B17D17B68B0
:104950009B6A7A6913437B617B68DB6A002B0ED00C
:10496000786800F043FB0346002B08D07B684022A8
:104970005A657B68012283F83520012316E07B68A5
:104980001B687A695A61786800F0FAFA0346FB609E
:104990007B68DB6D3F229A40FB689A607B6800224F
:1049A0005A657B68012283F83520002318461837A2
:1049B000BD4680BD3F8010F080B584B000AF786008
:1049C0007B68002B01D1012350E07B6893F83530E0
:1049D000DBB2022B01D1022348E07B681B681A6816
:1049E0007B681B6822F001021A607B681B6800224A
:1049F0001A607B681B6800225A607B681B68002273
:104A00009A607B681B680022DA607B681B68002262
:104A10001A617B681B6821225A61786800F0B0FA3D
:104A20000346FB607B680022DA637B6800221A641D
:104A30007B6800225A647B6800229A647B680022AB
:104A4000DA647B6800221A657B68DB6D3F229A403E
:104A5000FB689A607B6800225A657B68002283F8B5
:104A600035207B68002283F8342000231846103755
:104A7000BD4680BD80B586B000AFF860B9607A6091
:104A80003B600023FB75FB6893F83430012B01D1A8
:104A9000022326E0FB68012283F83420FB6893F8A8
:104AA0003530DBB2012B15D1FB68022283F83520AB
:104AB000FB6800225A653B687A68B968F86800F0BC
:104AC00031FAFB681B681A68FB681B6842F0010238
:104AD0001A6005E0FB68002283F834200223FB758E
:104AE000FB7D18461837BD4680BD80B584B000AF49
:104AF00078607B689B6DFB60FFF784F8B8607B682B
:104B000093F83530DBB2022B08D07B6880225A65DF
:104B10007B68002283F83420012352E07B681B6805
:104B20001A687B681B6822F016021A607B681B6893
:104B30005A697B681B6822F080025A617B681B6C93
:104B4000002B03D17B689B6C002B07D07B681B6814
:104B50001A687B681B6822F008021A607B681B6871
:104B60001A687B681B6822F001021A6013E0FFF7E5
:104B700049F80246BB68D31A052B0CD97B68202262
:104B80005A657B68032283F835207B68002283F80E
:104B90003420032315E07B681B681B6803F00103C6
:104BA000002BE4D17B68DB6D3F229A40FB689A6062
:104BB0007B68012283F835207B68002283F834204B
:104BC000002318461037BD4680BD80B483B000AFC7
:104BD00078607B6893F83530DBB2022B04D07B68B9
:104BE00080225A6501230CE07B68052283F835207A
:104BF0007B681B681A687B681B6822F001021A60D8
:104C0000002318460C37BD465DF8047B7047000052
:104C100080B586B000AF78600023BB608E4B1B6808
:104C20008E4AA2FB03239B0A7B617B689B6D3B61E1
:104C30003B691B68FB607B68DB6D08229A40FB6860
:104C40001340002B1AD07B681B681B6803F0040319
:104C5000002B13D07B681B681A687B681B6822F0E6
:104C600004021A607B68DB6D08229A403B699A60F7
:104C70007B685B6D43F001027B685A657B68DB6D86
:104C800001229A40FB681340002B12D07B681B68FE
:104C90005B6903F08003002B0BD07B68DB6D012286
:104CA0009A403B699A607B685B6D43F002027B68C7
:104CB0005A657B68DB6D04229A40FB681340002B29
:104CC00012D07B681B681B6803F00203002B0BD01B
:104CD0007B68DB6D04229A403B699A607B685B6D60
:104CE00043F004027B685A657B68DB6D10229A40B2
:104CF000FB681340002B43D07B681B681B6803F0E4
:104D00000803002B3CD07B68DB6D10229A403B6986
:104D10009A607B681B681B6803F48023002B18D003
:104D20007B681B681B6803F40023002B08D17B6899
:104D30001B6C002B24D07B681B6C786898471FE0A5
:104D40007B689B6C002B1BD07B689B6C78689847BA
:104D500016E07B681B681B6803F48073002B07D187
:104D60007B681B681A687B681B6822F008021A605F
:104D70007B681B6C002B03D07B681B6C78689847A2
:104D80007B68DB6D20229A40FB681340002B00F00B
:104D90008F807B681B681B6803F01003002B00F0FA
:104DA00087807B68DB6D20229A403B699A607B6834
:104DB00093F83530DBB2052B36D17B681B681A6857
:104DC0007B681B6822F016021A607B681B685A69B0
:104DD0007B681B6822F080025A617B681B6C002B89
:104DE00003D17B689B6C002B07D07B681B681A681B
:104DF0007B681B6822F008021A607B68DB6D3F222B
:104E00009A403B699A607B68012283F835207B6871
:104E1000002283F834207B681B6D002B7ED07B68DA
:104E20001B6D7868984779E07B681B681B6803F402
:104E30008023002B1DD07B681B681B6803F40023B4
:104E4000002B0DD17B685B6C002B31D07B685B6CD9
:104E5000786898472CE000BF10000020B5814E1BF9
:104E60007B68DB6B002B23D07B68DB6B7868984713
:104E70001EE07B681B681B6803F48073002B0FD156
:104E80007B681B681A687B681B6822F010021A6036
:104E90007B68012283F835207B68002283F8342068
:104EA0007B68DB6B002B03D07B68DB6B78689847F3
:104EB0007B685B6D002B32D07B685B6D03F0010378
:104EC000002B22D07B68052283F835207B681B6885
:104ED0001A687B681B6822F001021A60BB68013304
:104EE000BB607A699A4207D37B681B681B6803F032
:104EF0000103002BF2D100E000BF7B68012283F8A0
:104F000035207B68002283F834207B68DB6C002B23
:104F100005D07B68DB6C7868984700E000BF1837E5
:104F2000BD4680BD80B485B000AFF860B9607A60DE
:104F30003B60FB681B681A68FB681B6822F48022D0
:104F40001A60FB681B683A685A60FB689B68402BD4
:104F500008D1FB681B687A689A60FB681B68BA68AE
:104F6000DA6007E0FB681B68BA689A60FB681B6838
:104F70007A68DA6000BF1437BD465DF8047B70477D
:104F800080B485B000AF78607B681B68DBB2103BF3
:104F9000144AA2FB03231B09FB60134AFB6813445A
:104FA0001B781A467B68DA65FB68032B09D97B6896
:104FB0001B6823F47F7323F003031A1D7B689A6533
:104FC00007E07B681B6823F47F7323F003037A6890
:104FD00093657B689B6D18461437BD465DF8047B6E
:104FE000704700BFABAAAAAAEC26020880B485B01D
:104FF00000AF78600023FB737B689B6ABB607B68B3
:105000009B69002B1FD1BB68032B56D801A252F815
:1050100023F000BF25500008375000082550000835
:10502000BB5000087B68DB6A03F08073002B46D01E
:105030000123FB7343E07B68DB6AB3F1C07F40D19F
:105040000123FB733DE07B689B69B3F5005F21D1D1
:10505000BB68032B37D801A252F823F06D5000082B
:10506000735000086D500008855000080123FB7341
:1050700030E07B68DB6A03F08073002B25D00123CE
:10508000FB7322E07B68DB6AB3F1C07F1FD1012391
:10509000FB731CE0BB68022B03D9BB68032B03D056
:1050A00018E00123FB7315E07B68DB6A03F0807373
:1050B000002B0ED00123FB730BE000BF0AE000BF02
:1050C00008E000BF06E000BF04E000BF02E000BF50
:1050D00000E000BFFB7B18461437BD465DF8047B3B
:1050E000704700BF80B586B000AFF860B960C7E90F
:1050F00000230123FB75234B1B7E012B01D10223CF
:105100003BE0204B01221A764CF2503000F07CF844
:105110000346FB75FB7D002B2BD1FB68002B05D1D3
:105120003B781946B86800F027F916E0FB68012BB8
:1051300005D13B881946B86800F0FAF80DE0FB6825
:10514000022B05D13B681946B86800F0CFF804E09F
:10515000D7E90023B86800F097F84CF2503000F01F
:1051600053F80346FB75084B1B69074A23F00103FC
:105170001361044B00221A76FB7D18461837BD4692
:1051800080BD00BF501A0020003C024080B483B0B4
:1051900000AF0023FB710B4B1B69002B0BDA094B93
:1051A000094A5A60074B094A5A60064B1B69002B93
:1051B00001DA0123FB71FB7918460C37BD465DF817
:1051C000047B7047003C024023016745AB89EFCD6B
:1051D00080B400AF054B1B69044A43F000431361E0
:1051E00000231846BD465DF8047B7047003C024032
:1051F00080B400AF034BDB691846BD465DF8047B05
:10520000704700BF501A002080B584B000AF7860AE
:105210000023FB601A4B0022DA61FEF7F3FCF86012
:1052200010E07B68B3F1FF3F0CD07B68002B07D008
:10523000FEF7E8FC0246FB68D31A7A689A4201D26C
:10524000032319E00F4BDB6803F48033002BE8D114
:105250000C4BDB6803F00103002B02D0094B012249
:10526000DA60084BDB6803F4F973002B03D000F01D
:10527000A5F8012300E0002318461037BD4680BD85
:10528000501A0020003C024080B485B000AFF860A6
:10529000C7E90023144B1B69134A23F440731361BD
:1052A000114B1B69104A43F4407313610E4B1B6989
:1052B0000D4A43F001031361FB683A681A60BFF3BB
:1052C0006F8F00BFD7E900014FF000024FF00003DD
:1052D0000A000023F968043113460B6000BF14373D
:1052E000BD465DF8047B7047003C024080B483B04B
:1052F00000AF786039600D4B1B690C4A23F4407392
:1053000013610A4B1B69094A43F400731361074B8D
:105310001B69064A43F0010313617B683A681A600F
:1053200000BF0C37BD465DF8047B7047003C02406F
:1053300080B483B000AF78600B467B800D4B1B6957
:105340000C4A23F4407313610A4B1B69094A43F466
:1053500080731361074B1B69064A43F00103136115
:105360007B687A881A8000BF0C37BD465DF8047BE5
:10537000704700BF003C024080B483B000AF78604B
:105380000B46FB700C4B1B690B4A23F440731361F3
:10539000094B094A1B691361074B1B69064A43F015
:1053A000010313617B68FA781A7000BF0C37BD46A1
:1053B0005DF8047B704700BF003C024080B400AF42
:1053C0002F4BDB6803F01003002B08D02D4BDB695B
:1053D00043F010032B4AD361294B1022DA60284B8B
:1053E000DB6803F02003002B08D0264BDB6943F079
:1053F0000803244AD361224B2022DA60204BDB6869
:1054000003F04003002B08D01E4BDB6943F004037C
:105410001C4AD3611A4B4022DA60194BDB6803F057
:105420008003002B08D0174BDB6943F00203154AB9
:10543000D361134B8022DA60114BDB6803F4807375
:10544000002B09D00F4BDB6943F001030D4AD361F8
:105450000B4B4FF48072DA60094BDB6803F00203F8
:10546000002B08D0074BDB6943F02003054AD361CA
:10547000034B0222DA6000BFBD465DF8047B704733
:10548000003C0240501A002080B584B000AF786024
:1054900039600123FB730023BB60314B1B7E012B62
:1054A00001D1022358E02E4B01221A764CF25030E3
:1054B000FFF7AAFE0346FB73FB7B002B48D13B683A
:1054C0004FF0FF321A607B681B68012B15D17B6897
:1054D0001B69DAB27B685B681946104600F044F835
:1054E0004CF25030FFF790FE0346FB731D4B1B69D7
:1054F0001C4A23F00403136128E07B689B68BB60AF
:105500001CE07B681B69DBB21946B86800F050F8F4
:105510004CF25030FFF778FE0346FB73114B1B69CA
:10552000104A23F0FA031361FB7B002B03D03B6886
:10553000BA681A600AE0BB680133BB607B68DA684E
:105540007B689B681344BA689A42DAD300F078F813
:10555000034B00221A76FB7B18461037BD4680BDF0
:10556000501A0020003C024080B483B000AF0346D4
:105570003960FB710D4B1B690C4A23F440731361B6
:105580000A4B1B69094A43F004031361074B1A696C
:10559000FB791B021343054A43F48033136100BFB8
:1055A0000C37BD465DF8047B704700BF003C0240ED
:1055B00080B485B000AF78600B46FB700023FB60C1
:1055C000FB78002B02D10023FB6010E0FB78012B5D
:1055D00003D14FF48073FB6009E0FB78022B03D109
:1055E0004FF40073FB6002E04FF44073FB60134B19
:1055F0001B69124A23F440731361104B1A690F4957
:10560000FB6813430B610D4B1B690C4A23F0F80335
:1056100013610A4B1A697B68DB001343074A43F0A6
:1056200002031361054B1B69044A43F48033136181
:1056300000BF1437BD465DF8047B7047003C024054
:1056400080B400AF204B1B6803F40073002B17D00D
:105650001D4B1B681C4A23F4007313601A4B1B6814
:10566000194A43F400631360174B1B68164A23F46E
:1056700000631360144B1B68134A43F400731360F8
:10568000114B1B6803F48063002B17D00E4B1B6873
:105690000D4A23F4806313600B4B1B680A4A43F4E2
:1056A00080531360084B1B68074A23F48053136030
:1056B000054B1B68044A43F48063136000BFBD467A
:1056C0005DF8047B704700BF003C024080B489B0A5
:1056D00000AF7860396000237B6100233B610023C9
:1056E000BB610023FB6159E10122FB6902FA03F36C
:1056F0007B613B681B687A6913403B613A697B694F
:105700009A4240F048813B685B6803F00303012B39
:1057100005D03B685B6803F00303022B30D17B6844
:105720009B68BB61FB695B00032202FA03F3DB4366
:10573000BA691340BB613B68DA68FB695B0002FA37
:1057400003F3BA691343BB617B68BA699A607B68EB
:105750005B68BB610122FB6902FA03F3DB43BA69B0
:105760001340BB613B685B681B0903F00102FB69E6
:1057700002FA03F3BA691343BB617B68BA695A60E2
:105780003B685B6803F00303032B17D07B68DB687F
:10579000BB61FB695B00032202FA03F3DB43BA69D6
:1057A0001340BB613B689A68FB695B0002FA03F334
:1057B000BA691343BB617B68BA69DA603B685B68AE
:1057C00003F00303022B23D1FB69DA087B6808325C
:1057D00053F82230BB61FB6903F007039B000F22E3
:1057E00002FA03F3DB43BA691340BB613B681A69F1
:1057F000FB6903F007039B0002FA03F3BA69134342
:10580000BB61FB69DA087B680832B96943F822108A
:105810007B681B68BB61FB695B00032202FA03F330
:10582000DB43BA691340BB613B685B6803F003026A
:10583000FB695B0002FA03F3BA691343BB617B683F
:10584000BA691A603B685B6803F44033002B00F0D0
:10585000A2800023FB60574B5B6C564A43F48043A5
:105860005364544B5B6C03F48043FB60FB68524A07
:10587000FB699B08023352F82330BB61FB6903F0DC
:1058800003039B000F2202FA03F3DB43BA691340C0
:10589000BB617B68494A934219D07B68484A93426E
:1058A00013D07B68474A93420DD07B68464A9342A7
:1058B00007D07B68454A934201D1042308E00723BF
:1058C00006E0032304E0022302E0012300E00023BA
:1058D000FA6902F0030292009340BA691343BB6174
:1058E0003549FB699B080233BA6941F82320384BDC
:1058F0009B68BB613B69DB43BA691340BB613B6892
:105900005B6803F48013002B03D0BA693B6913432F
:10591000BB612F4ABB6993602D4BDB68BB613B6960
:10592000DB43BA691340BB613B685B6803F4001357
:10593000002B03D0BA693B691343BB61244ABB699E
:10594000D360234B5B68BB613B69DB43BA6913409F
:10595000BB613B685B6803F40033002B03D0BA697A
:105960003B691343BB611A4ABB695360184B1B6800
:10597000BB613B69DB43BA691340BB613B685B6851
:1059800003F48033002B03D0BA693B691343BB6136
:105990000F4ABB691360FB690133FB61FB690F2B85
:1059A0007FF6A2AE00BF00BF2437BD465DF8047B82
:1059B000704700BF0038024000380140000002403C
:1059C0000004024000080240000C024000100240A7
:1059D000003C014080B487B000AF7860396000239C
:1059E0003B610023FB600023BB6000237B61BBE0C5
:1059F00001227B6902FA03F33B613A683B69134079
:105A0000FB60FA683B699A4240F0AB805C4A7B6974
:105A10009B08023352F82330BB607B6903F0030319
:105A20009B000F2202FA03F3BA681340BB607B6845
:105A3000544A934219D07B68534A934213D07B68EF
:105A4000524A93420DD07B68514A934207D07B68FB
:105A5000504A934201D1042308E0072306E00323C0
:105A600004E0022302E0012300E000237A6902F04F
:105A7000030292009340BA689A4232D1464B1A68A8
:105A8000FB68DB43444913400B60434B5A68FB6897
:105A9000DB43414913404B603F4BDA68FB68DB4313
:105AA0003D491340CB603C4B9A68FB68DB433A4965
:105AB00013408B607B6903F003039B000F2202FA03
:105AC00003F3BB602E4A7B699B08023352F8231014
:105AD000BB68DA432A487B699B080A40023340F8D6
